{"abi":[{"inputs":[{"internalType":"uint256","name":"minimum","type":"uint256"},{"internalType":"string","name":"camp_name","type":"string"},{"internalType":"string","name":"camp_description","type":"string"},{"internalType":"address","name":"creator","type":"address"}],"stateMutability":"nonpayable","type":"constructor"},{"inputs":[{"internalType":"uint256","name":"index","type":"uint256"}],"name":"approveRequest","outputs":[],"stateMutability":"nonpayable","type":"function"},{"inputs":[{"internalType":"address","name":"","type":"address"}],"name":"approvers","outputs":[{"internalType":"bool","name":"","type":"bool"}],"stateMutability":"view","type":"function"},{"inputs":[],"name":"approversCount","outputs":[{"internalType":"uint256","name":"","type":"uint256"}],"stateMutability":"view","type":"function"},{"inputs":[],"name":"campaign_description","outputs":[{"internalType":"string","name":"","type":"string"}],"stateMutability":"view","type":"function"},{"inputs":[],"name":"campaign_name","outputs":[{"internalType":"string","name":"","type":"string"}],"stateMutability":"view","type":"function"},{"inputs":[],"name":"contribute","outputs":[],"stateMutability":"payable","type":"function"},{"inputs":[{"internalType":"string","name":"description","type":"string"},{"internalType":"uint256","name":"value","type":"uint256"},{"internalType":"address","name":"recipient","type":"address"}],"name":"createRequest","outputs":[],"stateMutability":"nonpayable","type":"function"},{"inputs":[{"internalType":"uint256","name":"index","type":"uint256"}],"name":"finalizeRequest","outputs":[],"stateMutability":"nonpayable","type":"function"},{"inputs":[],"name":"getRequestsCount","outputs":[{"internalType":"uint256","name":"","type":"uint256"}],"stateMutability":"view","type":"function"},{"inputs":[],"name":"getSummary","outputs":[{"internalType":"uint256","name":"","type":"uint256"},{"internalType":"uint256","name":"","type":"uint256"},{"internalType":"uint256","name":"","type":"uint256"},{"internalType":"uint256","name":"","type":"uint256"},{"internalType":"address","name":"","type":"address"}],"stateMutability":"view","type":"function"},{"inputs":[],"name":"manager","outputs":[{"internalType":"address","name":"","type":"address"}],"stateMutability":"view","type":"function"},{"inputs":[],"name":"minimumContribution","outputs":[{"internalType":"uint256","name":"","type":"uint256"}],"stateMutability":"view","type":"function"},{"inputs":[{"internalType":"uint256","name":"","type":"uint256"}],"name":"requests","outputs":[{"internalType":"string","name":"description","type":"string"},{"internalType":"uint256","name":"value","type":"uint256"},{"internalType":"address","name":"recipient","type":"address"},{"internalType":"bool","name":"complete","type":"bool"},{"internalType":"uint256","name":"approvalCount","type":"uint256"}],"stateMutability":"view","type":"function"}],"devdoc":{"kind":"dev","methods":{},"version":1},"evm":{"assembly":"    /* \"Campaign.sol\":762:3123  contract Campaign {... */\n  mstore(0x40, 0x80)\n    /* \"Campaign.sol\":1319:1572  constructor (uint minimum,string memory camp_name,string memory camp_description, address creator) {... */\n  callvalue\n  dup1\n  iszero\n  tag_1\n  jumpi\n  0x00\n  dup1\n  revert\ntag_1:\n  pop\n  mload(0x40)\n  sub(codesize, bytecodeSize)\n  dup1\n  bytecodeSize\n  dup4\n  codecopy\n  dup2\n  dup2\n  add\n  0x40\n  mstore\n  dup2\n  add\n  swap1\n  tag_2\n  swap2\n  swap1\n  tag_3\n  jump\t// in\ntag_2:\n    /* \"Campaign.sol\":1438:1445  creator */\n  dup1\n    /* \"Campaign.sol\":1428:1435  manager */\n  0x01\n  0x00\n    /* \"Campaign.sol\":1428:1445  manager = creator */\n  0x0100\n  exp\n  dup2\n  sload\n  dup2\n  0xffffffffffffffffffffffffffffffffffffffff\n  mul\n  not\n  and\n  swap1\n  dup4\n  0xffffffffffffffffffffffffffffffffffffffff\n  and\n  mul\n  or\n  swap1\n  sstore\n  pop\n    /* \"Campaign.sol\":1477:1484  minimum */\n  dup4\n    /* \"Campaign.sol\":1455:1474  minimumContribution */\n  0x02\n    /* \"Campaign.sol\":1455:1484  minimumContribution = minimum */\n  dup2\n  swap1\n  sstore\n  pop\n    /* \"Campaign.sol\":1508:1517  camp_name */\n  dup3\n    /* \"Campaign.sol\":1494:1507  campaign_name */\n  0x03\n    /* \"Campaign.sol\":1494:1517  campaign_name=camp_name */\n  swap1\n  dup2\n  tag_6\n  swap2\n  swap1\n  tag_7\n  jump\t// in\ntag_6:\n  pop\n    /* \"Campaign.sol\":1548:1564  camp_description */\n  dup2\n    /* \"Campaign.sol\":1527:1547  campaign_description */\n  0x04\n    /* \"Campaign.sol\":1527:1564  campaign_description=camp_description */\n  swap1\n  dup2\n  tag_8\n  swap2\n  swap1\n  tag_7\n  jump\t// in\ntag_8:\n  pop\n    /* \"Campaign.sol\":1319:1572  constructor (uint minimum,string memory camp_name,string memory camp_description, address creator) {... */\n  pop\n  pop\n  pop\n  pop\n    /* \"Campaign.sol\":762:3123  contract Campaign {... */\n  jump(tag_9)\n    /* \"#utility.yul\":7:82   */\ntag_10:\n    /* \"#utility.yul\":40:46   */\n  0x00\n    /* \"#utility.yul\":73:75   */\n  0x40\n    /* \"#utility.yul\":67:76   */\n  mload\n    /* \"#utility.yul\":57:76   */\n  swap1\n  pop\n    /* \"#utility.yul\":7:82   */\n  swap1\n  jump\t// out\n    /* \"#utility.yul\":88:205   */\ntag_11:\n    /* \"#utility.yul\":197:198   */\n  0x00\n    /* \"#utility.yul\":194:195   */\n  dup1\n    /* \"#utility.yul\":187:199   */\n  revert\n    /* \"#utility.yul\":211:328   */\ntag_12:\n    /* \"#utility.yul\":320:321   */\n  0x00\n    /* \"#utility.yul\":317:318   */\n  dup1\n    /* \"#utility.yul\":310:322   */\n  revert\n    /* \"#utility.yul\":334:411   */\ntag_13:\n    /* \"#utility.yul\":371:378   */\n  0x00\n    /* \"#utility.yul\":400:405   */\n  dup2\n    /* \"#utility.yul\":389:405   */\n  swap1\n  pop\n    /* \"#utility.yul\":334:411   */\n  swap2\n  swap1\n  pop\n  jump\t// out\n    /* \"#utility.yul\":417:539   */\ntag_14:\n    /* \"#utility.yul\":490:514   */\n  tag_54\n    /* \"#utility.yul\":508:513   */\n  dup2\n    /* \"#utility.yul\":490:514   */\n  tag_13\n  jump\t// in\ntag_54:\n    /* \"#utility.yul\":483:488   */\n  dup2\n    /* \"#utility.yul\":480:515   */\n  eq\n    /* \"#utility.yul\":470:533   */\n  tag_55\n  jumpi\n    /* \"#utility.yul\":529:530   */\n  0x00\n    /* \"#utility.yul\":526:527   */\n  dup1\n    /* \"#utility.yul\":519:531   */\n  revert\n    /* \"#utility.yul\":470:533   */\ntag_55:\n    /* \"#utility.yul\":417:539   */\n  pop\n  jump\t// out\n    /* \"#utility.yul\":545:688   */\ntag_15:\n    /* \"#utility.yul\":602:607   */\n  0x00\n    /* \"#utility.yul\":633:639   */\n  dup2\n    /* \"#utility.yul\":627:640   */\n  mload\n    /* \"#utility.yul\":618:640   */\n  swap1\n  pop\n    /* \"#utility.yul\":649:682   */\n  tag_57\n    /* \"#utility.yul\":676:681   */\n  dup2\n    /* \"#utility.yul\":649:682   */\n  tag_14\n  jump\t// in\ntag_57:\n    /* \"#utility.yul\":545:688   */\n  swap3\n  swap2\n  pop\n  pop\n  jump\t// out\n    /* \"#utility.yul\":694:811   */\ntag_16:\n    /* \"#utility.yul\":803:804   */\n  0x00\n    /* \"#utility.yul\":800:801   */\n  dup1\n    /* \"#utility.yul\":793:805   */\n  revert\n    /* \"#utility.yul\":817:934   */\ntag_17:\n    /* \"#utility.yul\":926:927   */\n  0x00\n    /* \"#utility.yul\":923:924   */\n  dup1\n    /* \"#utility.yul\":916:928   */\n  revert\n    /* \"#utility.yul\":940:1042   */\ntag_18:\n    /* \"#utility.yul\":981:987   */\n  0x00\n    /* \"#utility.yul\":1032:1034   */\n  0x1f\n    /* \"#utility.yul\":1028:1035   */\n  not\n    /* \"#utility.yul\":1023:1025   */\n  0x1f\n    /* \"#utility.yul\":1016:1021   */\n  dup4\n    /* \"#utility.yul\":1012:1026   */\n  add\n    /* \"#utility.yul\":1008:1036   */\n  and\n    /* \"#utility.yul\":998:1036   */\n  swap1\n  pop\n    /* \"#utility.yul\":940:1042   */\n  swap2\n  swap1\n  pop\n  jump\t// out\n    /* \"#utility.yul\":1048:1228   */\ntag_19:\n    /* \"#utility.yul\":1096:1173   */\n  0x4e487b7100000000000000000000000000000000000000000000000000000000\n    /* \"#utility.yul\":1093:1094   */\n  0x00\n    /* \"#utility.yul\":1086:1174   */\n  mstore\n    /* \"#utility.yul\":1193:1197   */\n  0x41\n    /* \"#utility.yul\":1190:1191   */\n  0x04\n    /* \"#utility.yul\":1183:1198   */\n  mstore\n    /* \"#utility.yul\":1217:1221   */\n  0x24\n    /* \"#utility.yul\":1214:1215   */\n  0x00\n    /* \"#utility.yul\":1207:1222   */\n  revert\n    /* \"#utility.yul\":1234:1515   */\ntag_20:\n    /* \"#utility.yul\":1317:1344   */\n  tag_63\n    /* \"#utility.yul\":1339:1343   */\n  dup3\n    /* \"#utility.yul\":1317:1344   */\n  tag_18\n  jump\t// in\ntag_63:\n    /* \"#utility.yul\":1309:1315   */\n  dup2\n    /* \"#utility.yul\":1305:1345   */\n  add\n    /* \"#utility.yul\":1447:1453   */\n  dup2\n    /* \"#utility.yul\":1435:1445   */\n  dup2\n    /* \"#utility.yul\":1432:1454   */\n  lt\n    /* \"#utility.yul\":1411:1429   */\n  0xffffffffffffffff\n    /* \"#utility.yul\":1399:1409   */\n  dup3\n    /* \"#utility.yul\":1396:1430   */\n  gt\n    /* \"#utility.yul\":1393:1455   */\n  or\n    /* \"#utility.yul\":1390:1478   */\n  iszero\n  tag_64\n  jumpi\n    /* \"#utility.yul\":1458:1476   */\n  tag_65\n  tag_19\n  jump\t// in\ntag_65:\n    /* \"#utility.yul\":1390:1478   */\ntag_64:\n    /* \"#utility.yul\":1498:1508   */\n  dup1\n    /* \"#utility.yul\":1494:1496   */\n  0x40\n    /* \"#utility.yul\":1487:1509   */\n  mstore\n    /* \"#utility.yul\":1277:1515   */\n  pop\n    /* \"#utility.yul\":1234:1515   */\n  pop\n  pop\n  jump\t// out\n    /* \"#utility.yul\":1521:1650   */\ntag_21:\n    /* \"#utility.yul\":1555:1561   */\n  0x00\n    /* \"#utility.yul\":1582:1602   */\n  tag_67\n  tag_10\n  jump\t// in\ntag_67:\n    /* \"#utility.yul\":1572:1602   */\n  swap1\n  pop\n    /* \"#utility.yul\":1611:1644   */\n  tag_68\n    /* \"#utility.yul\":1639:1643   */\n  dup3\n    /* \"#utility.yul\":1631:1637   */\n  dup3\n    /* \"#utility.yul\":1611:1644   */\n  tag_20\n  jump\t// in\ntag_68:\n    /* \"#utility.yul\":1521:1650   */\n  swap2\n  swap1\n  pop\n  jump\t// out\n    /* \"#utility.yul\":1656:1964   */\ntag_22:\n    /* \"#utility.yul\":1718:1722   */\n  0x00\n    /* \"#utility.yul\":1808:1826   */\n  0xffffffffffffffff\n    /* \"#utility.yul\":1800:1806   */\n  dup3\n    /* \"#utility.yul\":1797:1827   */\n  gt\n    /* \"#utility.yul\":1794:1850   */\n  iszero\n  tag_70\n  jumpi\n    /* \"#utility.yul\":1830:1848   */\n  tag_71\n  tag_19\n  jump\t// in\ntag_71:\n    /* \"#utility.yul\":1794:1850   */\ntag_70:\n    /* \"#utility.yul\":1868:1897   */\n  tag_72\n    /* \"#utility.yul\":1890:1896   */\n  dup3\n    /* \"#utility.yul\":1868:1897   */\n  tag_18\n  jump\t// in\ntag_72:\n    /* \"#utility.yul\":1860:1897   */\n  swap1\n  pop\n    /* \"#utility.yul\":1952:1956   */\n  0x20\n    /* \"#utility.yul\":1946:1950   */\n  dup2\n    /* \"#utility.yul\":1942:1957   */\n  add\n    /* \"#utility.yul\":1934:1957   */\n  swap1\n  pop\n    /* \"#utility.yul\":1656:1964   */\n  swap2\n  swap1\n  pop\n  jump\t// out\n    /* \"#utility.yul\":1970:2277   */\ntag_23:\n    /* \"#utility.yul\":2038:2039   */\n  0x00\n    /* \"#utility.yul\":2048:2161   */\ntag_74:\n    /* \"#utility.yul\":2062:2068   */\n  dup4\n    /* \"#utility.yul\":2059:2060   */\n  dup2\n    /* \"#utility.yul\":2056:2069   */\n  lt\n    /* \"#utility.yul\":2048:2161   */\n  iszero\n  tag_76\n  jumpi\n    /* \"#utility.yul\":2147:2148   */\n  dup1\n    /* \"#utility.yul\":2142:2145   */\n  dup3\n    /* \"#utility.yul\":2138:2149   */\n  add\n    /* \"#utility.yul\":2132:2150   */\n  mload\n    /* \"#utility.yul\":2128:2129   */\n  dup2\n    /* \"#utility.yul\":2123:2126   */\n  dup5\n    /* \"#utility.yul\":2119:2130   */\n  add\n    /* \"#utility.yul\":2112:2151   */\n  mstore\n    /* \"#utility.yul\":2084:2086   */\n  0x20\n    /* \"#utility.yul\":2081:2082   */\n  dup2\n    /* \"#utility.yul\":2077:2087   */\n  add\n    /* \"#utility.yul\":2072:2087   */\n  swap1\n  pop\n    /* \"#utility.yul\":2048:2161   */\n  jump(tag_74)\ntag_76:\n    /* \"#utility.yul\":2179:2185   */\n  dup4\n    /* \"#utility.yul\":2176:2177   */\n  dup2\n    /* \"#utility.yul\":2173:2186   */\n  gt\n    /* \"#utility.yul\":2170:2271   */\n  iszero\n  tag_77\n  jumpi\n    /* \"#utility.yul\":2259:2260   */\n  0x00\n    /* \"#utility.yul\":2250:2256   */\n  dup5\n    /* \"#utility.yul\":2245:2248   */\n  dup5\n    /* \"#utility.yul\":2241:2257   */\n  add\n    /* \"#utility.yul\":2234:2261   */\n  mstore\n    /* \"#utility.yul\":2170:2271   */\ntag_77:\n    /* \"#utility.yul\":2019:2277   */\n  pop\n    /* \"#utility.yul\":1970:2277   */\n  pop\n  pop\n  pop\n  jump\t// out\n    /* \"#utility.yul\":2283:2704   */\ntag_24:\n    /* \"#utility.yul\":2372:2377   */\n  0x00\n    /* \"#utility.yul\":2397:2463   */\n  tag_79\n    /* \"#utility.yul\":2413:2462   */\n  tag_80\n    /* \"#utility.yul\":2455:2461   */\n  dup5\n    /* \"#utility.yul\":2413:2462   */\n  tag_22\n  jump\t// in\ntag_80:\n    /* \"#utility.yul\":2397:2463   */\n  tag_21\n  jump\t// in\ntag_79:\n    /* \"#utility.yul\":2388:2463   */\n  swap1\n  pop\n    /* \"#utility.yul\":2486:2492   */\n  dup3\n    /* \"#utility.yul\":2479:2484   */\n  dup2\n    /* \"#utility.yul\":2472:2493   */\n  mstore\n    /* \"#utility.yul\":2524:2528   */\n  0x20\n    /* \"#utility.yul\":2517:2522   */\n  dup2\n    /* \"#utility.yul\":2513:2529   */\n  add\n    /* \"#utility.yul\":2562:2565   */\n  dup5\n    /* \"#utility.yul\":2553:2559   */\n  dup5\n    /* \"#utility.yul\":2548:2551   */\n  dup5\n    /* \"#utility.yul\":2544:2560   */\n  add\n    /* \"#utility.yul\":2541:2566   */\n  gt\n    /* \"#utility.yul\":2538:2650   */\n  iszero\n  tag_81\n  jumpi\n    /* \"#utility.yul\":2569:2648   */\n  tag_82\n  tag_17\n  jump\t// in\ntag_82:\n    /* \"#utility.yul\":2538:2650   */\ntag_81:\n    /* \"#utility.yul\":2659:2698   */\n  tag_83\n    /* \"#utility.yul\":2691:2697   */\n  dup5\n    /* \"#utility.yul\":2686:2689   */\n  dup3\n    /* \"#utility.yul\":2681:2684   */\n  dup6\n    /* \"#utility.yul\":2659:2698   */\n  tag_23\n  jump\t// in\ntag_83:\n    /* \"#utility.yul\":2378:2704   */\n  pop\n    /* \"#utility.yul\":2283:2704   */\n  swap4\n  swap3\n  pop\n  pop\n  pop\n  jump\t// out\n    /* \"#utility.yul\":2724:3079   */\ntag_25:\n    /* \"#utility.yul\":2791:2796   */\n  0x00\n    /* \"#utility.yul\":2840:2843   */\n  dup3\n    /* \"#utility.yul\":2833:2837   */\n  0x1f\n    /* \"#utility.yul\":2825:2831   */\n  dup4\n    /* \"#utility.yul\":2821:2838   */\n  add\n    /* \"#utility.yul\":2817:2844   */\n  slt\n    /* \"#utility.yul\":2807:2929   */\n  tag_85\n  jumpi\n    /* \"#utility.yul\":2848:2927   */\n  tag_86\n  tag_16\n  jump\t// in\ntag_86:\n    /* \"#utility.yul\":2807:2929   */\ntag_85:\n    /* \"#utility.yul\":2958:2964   */\n  dup2\n    /* \"#utility.yul\":2952:2965   */\n  mload\n    /* \"#utility.yul\":2983:3073   */\n  tag_87\n    /* \"#utility.yul\":3069:3072   */\n  dup5\n    /* \"#utility.yul\":3061:3067   */\n  dup3\n    /* \"#utility.yul\":3054:3058   */\n  0x20\n    /* \"#utility.yul\":3046:3052   */\n  dup7\n    /* \"#utility.yul\":3042:3059   */\n  add\n    /* \"#utility.yul\":2983:3073   */\n  tag_24\n  jump\t// in\ntag_87:\n    /* \"#utility.yul\":2974:3073   */\n  swap2\n  pop\n    /* \"#utility.yul\":2797:3079   */\n  pop\n    /* \"#utility.yul\":2724:3079   */\n  swap3\n  swap2\n  pop\n  pop\n  jump\t// out\n    /* \"#utility.yul\":3085:3211   */\ntag_26:\n    /* \"#utility.yul\":3122:3129   */\n  0x00\n    /* \"#utility.yul\":3162:3204   */\n  0xffffffffffffffffffffffffffffffffffffffff\n    /* \"#utility.yul\":3155:3160   */\n  dup3\n    /* \"#utility.yul\":3151:3205   */\n  and\n    /* \"#utility.yul\":3140:3205   */\n  swap1\n  pop\n    /* \"#utility.yul\":3085:3211   */\n  swap2\n  swap1\n  pop\n  jump\t// out\n    /* \"#utility.yul\":3217:3313   */\ntag_27:\n    /* \"#utility.yul\":3254:3261   */\n  0x00\n    /* \"#utility.yul\":3283:3307   */\n  tag_90\n    /* \"#utility.yul\":3301:3306   */\n  dup3\n    /* \"#utility.yul\":3283:3307   */\n  tag_26\n  jump\t// in\ntag_90:\n    /* \"#utility.yul\":3272:3307   */\n  swap1\n  pop\n    /* \"#utility.yul\":3217:3313   */\n  swap2\n  swap1\n  pop\n  jump\t// out\n    /* \"#utility.yul\":3319:3441   */\ntag_28:\n    /* \"#utility.yul\":3392:3416   */\n  tag_92\n    /* \"#utility.yul\":3410:3415   */\n  dup2\n    /* \"#utility.yul\":3392:3416   */\n  tag_27\n  jump\t// in\ntag_92:\n    /* \"#utility.yul\":3385:3390   */\n  dup2\n    /* \"#utility.yul\":3382:3417   */\n  eq\n    /* \"#utility.yul\":3372:3435   */\n  tag_93\n  jumpi\n    /* \"#utility.yul\":3431:3432   */\n  0x00\n    /* \"#utility.yul\":3428:3429   */\n  dup1\n    /* \"#utility.yul\":3421:3433   */\n  revert\n    /* \"#utility.yul\":3372:3435   */\ntag_93:\n    /* \"#utility.yul\":3319:3441   */\n  pop\n  jump\t// out\n    /* \"#utility.yul\":3447:3590   */\ntag_29:\n    /* \"#utility.yul\":3504:3509   */\n  0x00\n    /* \"#utility.yul\":3535:3541   */\n  dup2\n    /* \"#utility.yul\":3529:3542   */\n  mload\n    /* \"#utility.yul\":3520:3542   */\n  swap1\n  pop\n    /* \"#utility.yul\":3551:3584   */\n  tag_95\n    /* \"#utility.yul\":3578:3583   */\n  dup2\n    /* \"#utility.yul\":3551:3584   */\n  tag_28\n  jump\t// in\ntag_95:\n    /* \"#utility.yul\":3447:3590   */\n  swap3\n  swap2\n  pop\n  pop\n  jump\t// out\n    /* \"#utility.yul\":3596:4762   */\ntag_3:\n    /* \"#utility.yul\":3713:3719   */\n  0x00\n    /* \"#utility.yul\":3721:3727   */\n  dup1\n    /* \"#utility.yul\":3729:3735   */\n  0x00\n    /* \"#utility.yul\":3737:3743   */\n  dup1\n    /* \"#utility.yul\":3786:3789   */\n  0x80\n    /* \"#utility.yul\":3774:3783   */\n  dup6\n    /* \"#utility.yul\":3765:3772   */\n  dup8\n    /* \"#utility.yul\":3761:3784   */\n  sub\n    /* \"#utility.yul\":3757:3790   */\n  slt\n    /* \"#utility.yul\":3754:3874   */\n  iszero\n  tag_97\n  jumpi\n    /* \"#utility.yul\":3793:3872   */\n  tag_98\n  tag_11\n  jump\t// in\ntag_98:\n    /* \"#utility.yul\":3754:3874   */\ntag_97:\n    /* \"#utility.yul\":3913:3914   */\n  0x00\n    /* \"#utility.yul\":3938:4002   */\n  tag_99\n    /* \"#utility.yul\":3994:4001   */\n  dup8\n    /* \"#utility.yul\":3985:3991   */\n  dup3\n    /* \"#utility.yul\":3974:3983   */\n  dup9\n    /* \"#utility.yul\":3970:3992   */\n  add\n    /* \"#utility.yul\":3938:4002   */\n  tag_15\n  jump\t// in\ntag_99:\n    /* \"#utility.yul\":3928:4002   */\n  swap5\n  pop\n    /* \"#utility.yul\":3884:4012   */\n  pop\n    /* \"#utility.yul\":4072:4074   */\n  0x20\n    /* \"#utility.yul\":4061:4070   */\n  dup6\n    /* \"#utility.yul\":4057:4075   */\n  add\n    /* \"#utility.yul\":4051:4076   */\n  mload\n    /* \"#utility.yul\":4103:4121   */\n  0xffffffffffffffff\n    /* \"#utility.yul\":4095:4101   */\n  dup2\n    /* \"#utility.yul\":4092:4122   */\n  gt\n    /* \"#utility.yul\":4089:4206   */\n  iszero\n  tag_100\n  jumpi\n    /* \"#utility.yul\":4125:4204   */\n  tag_101\n  tag_12\n  jump\t// in\ntag_101:\n    /* \"#utility.yul\":4089:4206   */\ntag_100:\n    /* \"#utility.yul\":4230:4304   */\n  tag_102\n    /* \"#utility.yul\":4296:4303   */\n  dup8\n    /* \"#utility.yul\":4287:4293   */\n  dup3\n    /* \"#utility.yul\":4276:4285   */\n  dup9\n    /* \"#utility.yul\":4272:4294   */\n  add\n    /* \"#utility.yul\":4230:4304   */\n  tag_25\n  jump\t// in\ntag_102:\n    /* \"#utility.yul\":4220:4304   */\n  swap4\n  pop\n    /* \"#utility.yul\":4022:4314   */\n  pop\n    /* \"#utility.yul\":4374:4376   */\n  0x40\n    /* \"#utility.yul\":4363:4372   */\n  dup6\n    /* \"#utility.yul\":4359:4377   */\n  add\n    /* \"#utility.yul\":4353:4378   */\n  mload\n    /* \"#utility.yul\":4405:4423   */\n  0xffffffffffffffff\n    /* \"#utility.yul\":4397:4403   */\n  dup2\n    /* \"#utility.yul\":4394:4424   */\n  gt\n    /* \"#utility.yul\":4391:4508   */\n  iszero\n  tag_103\n  jumpi\n    /* \"#utility.yul\":4427:4506   */\n  tag_104\n  tag_12\n  jump\t// in\ntag_104:\n    /* \"#utility.yul\":4391:4508   */\ntag_103:\n    /* \"#utility.yul\":4532:4606   */\n  tag_105\n    /* \"#utility.yul\":4598:4605   */\n  dup8\n    /* \"#utility.yul\":4589:4595   */\n  dup3\n    /* \"#utility.yul\":4578:4587   */\n  dup9\n    /* \"#utility.yul\":4574:4596   */\n  add\n    /* \"#utility.yul\":4532:4606   */\n  tag_25\n  jump\t// in\ntag_105:\n    /* \"#utility.yul\":4522:4606   */\n  swap3\n  pop\n    /* \"#utility.yul\":4324:4616   */\n  pop\n    /* \"#utility.yul\":4655:4657   */\n  0x60\n    /* \"#utility.yul\":4681:4745   */\n  tag_106\n    /* \"#utility.yul\":4737:4744   */\n  dup8\n    /* \"#utility.yul\":4728:4734   */\n  dup3\n    /* \"#utility.yul\":4717:4726   */\n  dup9\n    /* \"#utility.yul\":4713:4735   */\n  add\n    /* \"#utility.yul\":4681:4745   */\n  tag_29\n  jump\t// in\ntag_106:\n    /* \"#utility.yul\":4671:4745   */\n  swap2\n  pop\n    /* \"#utility.yul\":4626:4755   */\n  pop\n    /* \"#utility.yul\":3596:4762   */\n  swap3\n  swap6\n  swap2\n  swap5\n  pop\n  swap3\n  pop\n  jump\t// out\n    /* \"#utility.yul\":4768:4867   */\ntag_30:\n    /* \"#utility.yul\":4820:4826   */\n  0x00\n    /* \"#utility.yul\":4854:4859   */\n  dup2\n    /* \"#utility.yul\":4848:4860   */\n  mload\n    /* \"#utility.yul\":4838:4860   */\n  swap1\n  pop\n    /* \"#utility.yul\":4768:4867   */\n  swap2\n  swap1\n  pop\n  jump\t// out\n    /* \"#utility.yul\":4873:5053   */\ntag_31:\n    /* \"#utility.yul\":4921:4998   */\n  0x4e487b7100000000000000000000000000000000000000000000000000000000\n    /* \"#utility.yul\":4918:4919   */\n  0x00\n    /* \"#utility.yul\":4911:4999   */\n  mstore\n    /* \"#utility.yul\":5018:5022   */\n  0x22\n    /* \"#utility.yul\":5015:5016   */\n  0x04\n    /* \"#utility.yul\":5008:5023   */\n  mstore\n    /* \"#utility.yul\":5042:5046   */\n  0x24\n    /* \"#utility.yul\":5039:5040   */\n  0x00\n    /* \"#utility.yul\":5032:5047   */\n  revert\n    /* \"#utility.yul\":5059:5379   */\ntag_32:\n    /* \"#utility.yul\":5103:5109   */\n  0x00\n    /* \"#utility.yul\":5140:5141   */\n  0x02\n    /* \"#utility.yul\":5134:5138   */\n  dup3\n    /* \"#utility.yul\":5130:5142   */\n  div\n    /* \"#utility.yul\":5120:5142   */\n  swap1\n  pop\n    /* \"#utility.yul\":5187:5188   */\n  0x01\n    /* \"#utility.yul\":5181:5185   */\n  dup3\n    /* \"#utility.yul\":5177:5189   */\n  and\n    /* \"#utility.yul\":5208:5226   */\n  dup1\n    /* \"#utility.yul\":5198:5279   */\n  tag_110\n  jumpi\n    /* \"#utility.yul\":5264:5268   */\n  0x7f\n    /* \"#utility.yul\":5256:5262   */\n  dup3\n    /* \"#utility.yul\":5252:5269   */\n  and\n    /* \"#utility.yul\":5242:5269   */\n  swap2\n  pop\n    /* \"#utility.yul\":5198:5279   */\ntag_110:\n    /* \"#utility.yul\":5326:5328   */\n  0x20\n    /* \"#utility.yul\":5318:5324   */\n  dup3\n    /* \"#utility.yul\":5315:5329   */\n  lt\n    /* \"#utility.yul\":5295:5313   */\n  dup2\n    /* \"#utility.yul\":5292:5330   */\n  sub\n    /* \"#utility.yul\":5289:5373   */\n  tag_111\n  jumpi\n    /* \"#utility.yul\":5345:5363   */\n  tag_112\n  tag_31\n  jump\t// in\ntag_112:\n    /* \"#utility.yul\":5289:5373   */\ntag_111:\n    /* \"#utility.yul\":5110:5379   */\n  pop\n    /* \"#utility.yul\":5059:5379   */\n  swap2\n  swap1\n  pop\n  jump\t// out\n    /* \"#utility.yul\":5385:5526   */\ntag_33:\n    /* \"#utility.yul\":5434:5438   */\n  0x00\n    /* \"#utility.yul\":5457:5460   */\n  dup2\n    /* \"#utility.yul\":5449:5460   */\n  swap1\n  pop\n    /* \"#utility.yul\":5480:5483   */\n  dup2\n    /* \"#utility.yul\":5477:5478   */\n  0x00\n    /* \"#utility.yul\":5470:5484   */\n  mstore\n    /* \"#utility.yul\":5514:5518   */\n  0x20\n    /* \"#utility.yul\":5511:5512   */\n  0x00\n    /* \"#utility.yul\":5501:5519   */\n  keccak256\n    /* \"#utility.yul\":5493:5519   */\n  swap1\n  pop\n    /* \"#utility.yul\":5385:5526   */\n  swap2\n  swap1\n  pop\n  jump\t// out\n    /* \"#utility.yul\":5532:5625   */\ntag_34:\n    /* \"#utility.yul\":5569:5575   */\n  0x00\n    /* \"#utility.yul\":5616:5618   */\n  0x20\n    /* \"#utility.yul\":5611:5613   */\n  0x1f\n    /* \"#utility.yul\":5604:5609   */\n  dup4\n    /* \"#utility.yul\":5600:5614   */\n  add\n    /* \"#utility.yul\":5596:5619   */\n  div\n    /* \"#utility.yul\":5586:5619   */\n  swap1\n  pop\n    /* \"#utility.yul\":5532:5625   */\n  swap2\n  swap1\n  pop\n  jump\t// out\n    /* \"#utility.yul\":5631:5738   */\ntag_35:\n    /* \"#utility.yul\":5675:5683   */\n  0x00\n    /* \"#utility.yul\":5725:5730   */\n  dup3\n    /* \"#utility.yul\":5719:5723   */\n  dup3\n    /* \"#utility.yul\":5715:5731   */\n  shl\n    /* \"#utility.yul\":5694:5731   */\n  swap1\n  pop\n    /* \"#utility.yul\":5631:5738   */\n  swap3\n  swap2\n  pop\n  pop\n  jump\t// out\n    /* \"#utility.yul\":5744:6137   */\ntag_36:\n    /* \"#utility.yul\":5813:5819   */\n  0x00\n    /* \"#utility.yul\":5863:5864   */\n  0x08\n    /* \"#utility.yul\":5851:5861   */\n  dup4\n    /* \"#utility.yul\":5847:5865   */\n  mul\n    /* \"#utility.yul\":5886:5983   */\n  tag_117\n    /* \"#utility.yul\":5916:5982   */\n  0xffffffffffffffffffffffffffffffffffffffffffffffffffffffffffffffff\n    /* \"#utility.yul\":5905:5914   */\n  dup3\n    /* \"#utility.yul\":5886:5983   */\n  tag_35\n  jump\t// in\ntag_117:\n    /* \"#utility.yul\":6004:6043   */\n  tag_118\n    /* \"#utility.yul\":6034:6042   */\n  dup7\n    /* \"#utility.yul\":6023:6032   */\n  dup4\n    /* \"#utility.yul\":6004:6043   */\n  tag_35\n  jump\t// in\ntag_118:\n    /* \"#utility.yul\":5992:6043   */\n  swap6\n  pop\n    /* \"#utility.yul\":6076:6080   */\n  dup1\n    /* \"#utility.yul\":6072:6081   */\n  not\n    /* \"#utility.yul\":6065:6070   */\n  dup5\n    /* \"#utility.yul\":6061:6082   */\n  and\n    /* \"#utility.yul\":6052:6082   */\n  swap4\n  pop\n    /* \"#utility.yul\":6125:6129   */\n  dup1\n    /* \"#utility.yul\":6115:6123   */\n  dup7\n    /* \"#utility.yul\":6111:6130   */\n  and\n    /* \"#utility.yul\":6104:6109   */\n  dup5\n    /* \"#utility.yul\":6101:6131   */\n  or\n    /* \"#utility.yul\":6091:6131   */\n  swap3\n  pop\n    /* \"#utility.yul\":5820:6137   */\n  pop\n  pop\n    /* \"#utility.yul\":5744:6137   */\n  swap4\n  swap3\n  pop\n  pop\n  pop\n  jump\t// out\n    /* \"#utility.yul\":6143:6203   */\ntag_37:\n    /* \"#utility.yul\":6171:6174   */\n  0x00\n    /* \"#utility.yul\":6192:6197   */\n  dup2\n    /* \"#utility.yul\":6185:6197   */\n  swap1\n  pop\n    /* \"#utility.yul\":6143:6203   */\n  swap2\n  swap1\n  pop\n  jump\t// out\n    /* \"#utility.yul\":6209:6351   */\ntag_38:\n    /* \"#utility.yul\":6259:6268   */\n  0x00\n    /* \"#utility.yul\":6292:6345   */\n  tag_121\n    /* \"#utility.yul\":6310:6344   */\n  tag_122\n    /* \"#utility.yul\":6319:6343   */\n  tag_123\n    /* \"#utility.yul\":6337:6342   */\n  dup5\n    /* \"#utility.yul\":6319:6343   */\n  tag_13\n  jump\t// in\ntag_123:\n    /* \"#utility.yul\":6310:6344   */\n  tag_37\n  jump\t// in\ntag_122:\n    /* \"#utility.yul\":6292:6345   */\n  tag_13\n  jump\t// in\ntag_121:\n    /* \"#utility.yul\":6279:6345   */\n  swap1\n  pop\n    /* \"#utility.yul\":6209:6351   */\n  swap2\n  swap1\n  pop\n  jump\t// out\n    /* \"#utility.yul\":6357:6432   */\ntag_39:\n    /* \"#utility.yul\":6400:6403   */\n  0x00\n    /* \"#utility.yul\":6421:6426   */\n  dup2\n    /* \"#utility.yul\":6414:6426   */\n  swap1\n  pop\n    /* \"#utility.yul\":6357:6432   */\n  swap2\n  swap1\n  pop\n  jump\t// out\n    /* \"#utility.yul\":6438:6707   */\ntag_40:\n    /* \"#utility.yul\":6548:6587   */\n  tag_126\n    /* \"#utility.yul\":6579:6586   */\n  dup4\n    /* \"#utility.yul\":6548:6587   */\n  tag_38\n  jump\t// in\ntag_126:\n    /* \"#utility.yul\":6609:6700   */\n  tag_127\n    /* \"#utility.yul\":6658:6699   */\n  tag_128\n    /* \"#utility.yul\":6682:6698   */\n  dup3\n    /* \"#utility.yul\":6658:6699   */\n  tag_39\n  jump\t// in\ntag_128:\n    /* \"#utility.yul\":6650:6656   */\n  dup5\n    /* \"#utility.yul\":6643:6647   */\n  dup5\n    /* \"#utility.yul\":6637:6648   */\n  sload\n    /* \"#utility.yul\":6609:6700   */\n  tag_36\n  jump\t// in\ntag_127:\n    /* \"#utility.yul\":6603:6607   */\n  dup3\n    /* \"#utility.yul\":6596:6701   */\n  sstore\n    /* \"#utility.yul\":6514:6707   */\n  pop\n    /* \"#utility.yul\":6438:6707   */\n  pop\n  pop\n  pop\n  jump\t// out\n    /* \"#utility.yul\":6713:6786   */\ntag_41:\n    /* \"#utility.yul\":6758:6761   */\n  0x00\n    /* \"#utility.yul\":6713:6786   */\n  swap1\n  jump\t// out\n    /* \"#utility.yul\":6792:6981   */\ntag_42:\n    /* \"#utility.yul\":6869:6901   */\n  tag_131\n  tag_41\n  jump\t// in\ntag_131:\n    /* \"#utility.yul\":6910:6975   */\n  tag_132\n    /* \"#utility.yul\":6968:6974   */\n  dup2\n    /* \"#utility.yul\":6960:6966   */\n  dup5\n    /* \"#utility.yul\":6954:6958   */\n  dup5\n    /* \"#utility.yul\":6910:6975   */\n  tag_40\n  jump\t// in\ntag_132:\n    /* \"#utility.yul\":6845:6981   */\n  pop\n    /* \"#utility.yul\":6792:6981   */\n  pop\n  pop\n  jump\t// out\n    /* \"#utility.yul\":6987:7173   */\ntag_43:\n    /* \"#utility.yul\":7047:7167   */\ntag_134:\n    /* \"#utility.yul\":7064:7067   */\n  dup2\n    /* \"#utility.yul\":7057:7062   */\n  dup2\n    /* \"#utility.yul\":7054:7068   */\n  lt\n    /* \"#utility.yul\":7047:7167   */\n  iszero\n  tag_136\n  jumpi\n    /* \"#utility.yul\":7118:7157   */\n  tag_137\n    /* \"#utility.yul\":7155:7156   */\n  0x00\n    /* \"#utility.yul\":7148:7153   */\n  dup3\n    /* \"#utility.yul\":7118:7157   */\n  tag_42\n  jump\t// in\ntag_137:\n    /* \"#utility.yul\":7091:7092   */\n  0x01\n    /* \"#utility.yul\":7084:7089   */\n  dup2\n    /* \"#utility.yul\":7080:7093   */\n  add\n    /* \"#utility.yul\":7071:7093   */\n  swap1\n  pop\n    /* \"#utility.yul\":7047:7167   */\n  jump(tag_134)\ntag_136:\n    /* \"#utility.yul\":6987:7173   */\n  pop\n  pop\n  jump\t// out\n    /* \"#utility.yul\":7179:7722   */\ntag_44:\n    /* \"#utility.yul\":7280:7282   */\n  0x1f\n    /* \"#utility.yul\":7275:7278   */\n  dup3\n    /* \"#utility.yul\":7272:7283   */\n  gt\n    /* \"#utility.yul\":7269:7715   */\n  iszero\n  tag_139\n  jumpi\n    /* \"#utility.yul\":7314:7352   */\n  tag_140\n    /* \"#utility.yul\":7346:7351   */\n  dup2\n    /* \"#utility.yul\":7314:7352   */\n  tag_33\n  jump\t// in\ntag_140:\n    /* \"#utility.yul\":7398:7427   */\n  tag_141\n    /* \"#utility.yul\":7416:7426   */\n  dup5\n    /* \"#utility.yul\":7398:7427   */\n  tag_34\n  jump\t// in\ntag_141:\n    /* \"#utility.yul\":7388:7396   */\n  dup2\n    /* \"#utility.yul\":7384:7428   */\n  add\n    /* \"#utility.yul\":7581:7583   */\n  0x20\n    /* \"#utility.yul\":7569:7579   */\n  dup6\n    /* \"#utility.yul\":7566:7584   */\n  lt\n    /* \"#utility.yul\":7563:7612   */\n  iszero\n  tag_142\n  jumpi\n    /* \"#utility.yul\":7602:7610   */\n  dup2\n    /* \"#utility.yul\":7587:7610   */\n  swap1\n  pop\n    /* \"#utility.yul\":7563:7612   */\ntag_142:\n    /* \"#utility.yul\":7625:7705   */\n  tag_143\n    /* \"#utility.yul\":7681:7703   */\n  tag_144\n    /* \"#utility.yul\":7699:7702   */\n  dup6\n    /* \"#utility.yul\":7681:7703   */\n  tag_34\n  jump\t// in\ntag_144:\n    /* \"#utility.yul\":7671:7679   */\n  dup4\n    /* \"#utility.yul\":7667:7704   */\n  add\n    /* \"#utility.yul\":7654:7665   */\n  dup3\n    /* \"#utility.yul\":7625:7705   */\n  tag_43\n  jump\t// in\ntag_143:\n    /* \"#utility.yul\":7284:7715   */\n  pop\n  pop\n    /* \"#utility.yul\":7269:7715   */\ntag_139:\n    /* \"#utility.yul\":7179:7722   */\n  pop\n  pop\n  pop\n  jump\t// out\n    /* \"#utility.yul\":7728:7845   */\ntag_45:\n    /* \"#utility.yul\":7782:7790   */\n  0x00\n    /* \"#utility.yul\":7832:7837   */\n  dup3\n    /* \"#utility.yul\":7826:7830   */\n  dup3\n    /* \"#utility.yul\":7822:7838   */\n  shr\n    /* \"#utility.yul\":7801:7838   */\n  swap1\n  pop\n    /* \"#utility.yul\":7728:7845   */\n  swap3\n  swap2\n  pop\n  pop\n  jump\t// out\n    /* \"#utility.yul\":7851:8020   */\ntag_46:\n    /* \"#utility.yul\":7895:7901   */\n  0x00\n    /* \"#utility.yul\":7928:7979   */\n  tag_147\n    /* \"#utility.yul\":7976:7977   */\n  0x00\n    /* \"#utility.yul\":7972:7978   */\n  not\n    /* \"#utility.yul\":7964:7969   */\n  dup5\n    /* \"#utility.yul\":7961:7962   */\n  0x08\n    /* \"#utility.yul\":7957:7970   */\n  mul\n    /* \"#utility.yul\":7928:7979   */\n  tag_45\n  jump\t// in\ntag_147:\n    /* \"#utility.yul\":7924:7980   */\n  not\n    /* \"#utility.yul\":8009:8013   */\n  dup1\n    /* \"#utility.yul\":8003:8007   */\n  dup4\n    /* \"#utility.yul\":7999:8014   */\n  and\n    /* \"#utility.yul\":7989:8014   */\n  swap2\n  pop\n    /* \"#utility.yul\":7902:8020   */\n  pop\n    /* \"#utility.yul\":7851:8020   */\n  swap3\n  swap2\n  pop\n  pop\n  jump\t// out\n    /* \"#utility.yul\":8025:8320   */\ntag_47:\n    /* \"#utility.yul\":8101:8105   */\n  0x00\n    /* \"#utility.yul\":8247:8276   */\n  tag_149\n    /* \"#utility.yul\":8272:8275   */\n  dup4\n    /* \"#utility.yul\":8266:8270   */\n  dup4\n    /* \"#utility.yul\":8247:8276   */\n  tag_46\n  jump\t// in\ntag_149:\n    /* \"#utility.yul\":8239:8276   */\n  swap2\n  pop\n    /* \"#utility.yul\":8309:8312   */\n  dup3\n    /* \"#utility.yul\":8306:8307   */\n  0x02\n    /* \"#utility.yul\":8302:8313   */\n  mul\n    /* \"#utility.yul\":8296:8300   */\n  dup3\n    /* \"#utility.yul\":8293:8314   */\n  or\n    /* \"#utility.yul\":8285:8314   */\n  swap1\n  pop\n    /* \"#utility.yul\":8025:8320   */\n  swap3\n  swap2\n  pop\n  pop\n  jump\t// out\n    /* \"#utility.yul\":8325:9720   */\ntag_7:\n    /* \"#utility.yul\":8442:8479   */\n  tag_151\n    /* \"#utility.yul\":8475:8478   */\n  dup3\n    /* \"#utility.yul\":8442:8479   */\n  tag_30\n  jump\t// in\ntag_151:\n    /* \"#utility.yul\":8544:8562   */\n  0xffffffffffffffff\n    /* \"#utility.yul\":8536:8542   */\n  dup2\n    /* \"#utility.yul\":8533:8563   */\n  gt\n    /* \"#utility.yul\":8530:8586   */\n  iszero\n  tag_152\n  jumpi\n    /* \"#utility.yul\":8566:8584   */\n  tag_153\n  tag_19\n  jump\t// in\ntag_153:\n    /* \"#utility.yul\":8530:8586   */\ntag_152:\n    /* \"#utility.yul\":8610:8648   */\n  tag_154\n    /* \"#utility.yul\":8642:8646   */\n  dup3\n    /* \"#utility.yul\":8636:8647   */\n  sload\n    /* \"#utility.yul\":8610:8648   */\n  tag_32\n  jump\t// in\ntag_154:\n    /* \"#utility.yul\":8695:8762   */\n  tag_155\n    /* \"#utility.yul\":8755:8761   */\n  dup3\n    /* \"#utility.yul\":8747:8753   */\n  dup3\n    /* \"#utility.yul\":8741:8745   */\n  dup6\n    /* \"#utility.yul\":8695:8762   */\n  tag_44\n  jump\t// in\ntag_155:\n    /* \"#utility.yul\":8789:8790   */\n  0x00\n    /* \"#utility.yul\":8813:8817   */\n  0x20\n    /* \"#utility.yul\":8800:8817   */\n  swap1\n  pop\n    /* \"#utility.yul\":8845:8847   */\n  0x1f\n    /* \"#utility.yul\":8837:8843   */\n  dup4\n    /* \"#utility.yul\":8834:8848   */\n  gt\n    /* \"#utility.yul\":8862:8863   */\n  0x01\n    /* \"#utility.yul\":8857:9475   */\n  dup2\n  eq\n  tag_157\n  jumpi\n    /* \"#utility.yul\":9519:9520   */\n  0x00\n    /* \"#utility.yul\":9536:9542   */\n  dup5\n    /* \"#utility.yul\":9533:9610   */\n  iszero\n  tag_158\n  jumpi\n    /* \"#utility.yul\":9585:9594   */\n  dup3\n    /* \"#utility.yul\":9580:9583   */\n  dup8\n    /* \"#utility.yul\":9576:9595   */\n  add\n    /* \"#utility.yul\":9570:9596   */\n  mload\n    /* \"#utility.yul\":9561:9596   */\n  swap1\n  pop\n    /* \"#utility.yul\":9533:9610   */\ntag_158:\n    /* \"#utility.yul\":9636:9703   */\n  tag_159\n    /* \"#utility.yul\":9696:9702   */\n  dup6\n    /* \"#utility.yul\":9689:9694   */\n  dup3\n    /* \"#utility.yul\":9636:9703   */\n  tag_47\n  jump\t// in\ntag_159:\n    /* \"#utility.yul\":9630:9634   */\n  dup7\n    /* \"#utility.yul\":9623:9704   */\n  sstore\n    /* \"#utility.yul\":9492:9714   */\n  pop\n    /* \"#utility.yul\":8827:9714   */\n  jump(tag_156)\n    /* \"#utility.yul\":8857:9475   */\ntag_157:\n    /* \"#utility.yul\":8909:8913   */\n  0x1f\n    /* \"#utility.yul\":8905:8914   */\n  not\n    /* \"#utility.yul\":8897:8903   */\n  dup5\n    /* \"#utility.yul\":8893:8915   */\n  and\n    /* \"#utility.yul\":8943:8980   */\n  tag_160\n    /* \"#utility.yul\":8975:8979   */\n  dup7\n    /* \"#utility.yul\":8943:8980   */\n  tag_33\n  jump\t// in\ntag_160:\n    /* \"#utility.yul\":9002:9003   */\n  0x00\n    /* \"#utility.yul\":9016:9224   */\ntag_161:\n    /* \"#utility.yul\":9030:9037   */\n  dup3\n    /* \"#utility.yul\":9027:9028   */\n  dup2\n    /* \"#utility.yul\":9024:9038   */\n  lt\n    /* \"#utility.yul\":9016:9224   */\n  iszero\n  tag_163\n  jumpi\n    /* \"#utility.yul\":9109:9118   */\n  dup5\n    /* \"#utility.yul\":9104:9107   */\n  dup10\n    /* \"#utility.yul\":9100:9119   */\n  add\n    /* \"#utility.yul\":9094:9120   */\n  mload\n    /* \"#utility.yul\":9086:9092   */\n  dup3\n    /* \"#utility.yul\":9079:9121   */\n  sstore\n    /* \"#utility.yul\":9160:9161   */\n  0x01\n    /* \"#utility.yul\":9152:9158   */\n  dup3\n    /* \"#utility.yul\":9148:9162   */\n  add\n    /* \"#utility.yul\":9138:9162   */\n  swap2\n  pop\n    /* \"#utility.yul\":9207:9209   */\n  0x20\n    /* \"#utility.yul\":9196:9205   */\n  dup6\n    /* \"#utility.yul\":9192:9210   */\n  add\n    /* \"#utility.yul\":9179:9210   */\n  swap5\n  pop\n    /* \"#utility.yul\":9053:9057   */\n  0x20\n    /* \"#utility.yul\":9050:9051   */\n  dup2\n    /* \"#utility.yul\":9046:9058   */\n  add\n    /* \"#utility.yul\":9041:9058   */\n  swap1\n  pop\n    /* \"#utility.yul\":9016:9224   */\n  jump(tag_161)\ntag_163:\n    /* \"#utility.yul\":9252:9258   */\n  dup7\n    /* \"#utility.yul\":9243:9250   */\n  dup4\n    /* \"#utility.yul\":9240:9259   */\n  lt\n    /* \"#utility.yul\":9237:9416   */\n  iszero\n  tag_164\n  jumpi\n    /* \"#utility.yul\":9310:9319   */\n  dup5\n    /* \"#utility.yul\":9305:9308   */\n  dup10\n    /* \"#utility.yul\":9301:9320   */\n  add\n    /* \"#utility.yul\":9295:9321   */\n  mload\n    /* \"#utility.yul\":9353:9401   */\n  tag_165\n    /* \"#utility.yul\":9395:9399   */\n  0x1f\n    /* \"#utility.yul\":9387:9393   */\n  dup10\n    /* \"#utility.yul\":9383:9400   */\n  and\n    /* \"#utility.yul\":9372:9381   */\n  dup3\n    /* \"#utility.yul\":9353:9401   */\n  tag_46\n  jump\t// in\ntag_165:\n    /* \"#utility.yul\":9345:9351   */\n  dup4\n    /* \"#utility.yul\":9338:9402   */\n  sstore\n    /* \"#utility.yul\":9260:9416   */\n  pop\n    /* \"#utility.yul\":9237:9416   */\ntag_164:\n    /* \"#utility.yul\":9462:9463   */\n  0x01\n    /* \"#utility.yul\":9458:9459   */\n  0x02\n    /* \"#utility.yul\":9450:9456   */\n  dup9\n    /* \"#utility.yul\":9446:9460   */\n  mul\n    /* \"#utility.yul\":9442:9464   */\n  add\n    /* \"#utility.yul\":9436:9440   */\n  dup9\n    /* \"#utility.yul\":9429:9465   */\n  sstore\n    /* \"#utility.yul\":8864:9475   */\n  pop\n  pop\n  pop\n    /* \"#utility.yul\":8827:9714   */\ntag_156:\n  pop\n    /* \"#utility.yul\":8417:9720   */\n  pop\n  pop\n  pop\n    /* \"#utility.yul\":8325:9720   */\n  pop\n  pop\n  jump\t// out\n    /* \"Campaign.sol\":762:3123  contract Campaign {... */\ntag_9:\n  dataSize(sub_0)\n  dup1\n  dataOffset(sub_0)\n  0x00\n  codecopy\n  0x00\n  return\nstop\n\nsub_0: assembly {\n        /* \"Campaign.sol\":762:3123  contract Campaign {... */\n      mstore(0x40, 0x80)\n      jumpi(tag_1, lt(calldatasize, 0x04))\n      shr(0xe0, calldataload(0x00))\n      dup1\n      0x481c6a75\n      gt\n      tag_15\n      jumpi\n      dup1\n      0x8a9cfd55\n      gt\n      tag_16\n      jumpi\n      dup1\n      0x8a9cfd55\n      eq\n      tag_11\n      jumpi\n      dup1\n      0x937e09b1\n      eq\n      tag_12\n      jumpi\n      dup1\n      0xd7bb99ba\n      eq\n      tag_13\n      jumpi\n      dup1\n      0xd7d1bbdb\n      eq\n      tag_14\n      jumpi\n      jump(tag_1)\n    tag_16:\n      dup1\n      0x481c6a75\n      eq\n      tag_8\n      jumpi\n      dup1\n      0x81d12c58\n      eq\n      tag_9\n      jumpi\n      dup1\n      0x82fde093\n      eq\n      tag_10\n      jumpi\n      jump(tag_1)\n    tag_15:\n      dup1\n      0x03441006\n      eq\n      tag_2\n      jumpi\n      dup1\n      0x0574f590\n      eq\n      tag_3\n      jumpi\n      dup1\n      0x0a144391\n      eq\n      tag_4\n      jumpi\n      dup1\n      0x3410452a\n      eq\n      tag_5\n      jumpi\n      dup1\n      0x4051ddac\n      eq\n      tag_6\n      jumpi\n      dup1\n      0x4137e733\n      eq\n      tag_7\n      jumpi\n    tag_1:\n      0x00\n      dup1\n      revert\n        /* \"Campaign.sol\":2440:2747  function finalizeRequest(uint index) public restricted {... */\n    tag_2:\n      callvalue\n      dup1\n      iszero\n      tag_17\n      jumpi\n      0x00\n      dup1\n      revert\n    tag_17:\n      pop\n      tag_18\n      0x04\n      dup1\n      calldatasize\n      sub\n      dup2\n      add\n      swap1\n      tag_19\n      swap2\n      swap1\n      tag_20\n      jump\t// in\n    tag_19:\n      tag_21\n      jump\t// in\n    tag_18:\n      stop\n        /* \"Campaign.sol\":1113:1147  string public campaign_description */\n    tag_3:\n      callvalue\n      dup1\n      iszero\n      tag_22\n      jumpi\n      0x00\n      dup1\n      revert\n    tag_22:\n      pop\n      tag_23\n      tag_24\n      jump\t// in\n    tag_23:\n      mload(0x40)\n      tag_25\n      swap2\n      swap1\n      tag_26\n      jump\t// in\n    tag_25:\n      mload(0x40)\n      dup1\n      swap2\n      sub\n      swap1\n      return\n        /* \"Campaign.sol\":1153:1194  mapping(address => bool) public approvers */\n    tag_4:\n      callvalue\n      dup1\n      iszero\n      tag_27\n      jumpi\n      0x00\n      dup1\n      revert\n    tag_27:\n      pop\n      tag_28\n      0x04\n      dup1\n      calldatasize\n      sub\n      dup2\n      add\n      swap1\n      tag_29\n      swap2\n      swap1\n      tag_30\n      jump\t// in\n    tag_29:\n      tag_31\n      jump\t// in\n    tag_28:\n      mload(0x40)\n      tag_32\n      swap2\n      swap1\n      tag_33\n      jump\t// in\n    tag_32:\n      mload(0x40)\n      dup1\n      swap2\n      sub\n      swap1\n      return\n        /* \"Campaign.sol\":3027:3121  function getRequestsCount() public view returns (uint) {... */\n    tag_5:\n      callvalue\n      dup1\n      iszero\n      tag_34\n      jumpi\n      0x00\n      dup1\n      revert\n    tag_34:\n      pop\n      tag_35\n      tag_36\n      jump\t// in\n    tag_35:\n      mload(0x40)\n      tag_37\n      swap2\n      swap1\n      tag_38\n      jump\t// in\n    tag_37:\n      mload(0x40)\n      dup1\n      swap2\n      sub\n      swap1\n      return\n        /* \"Campaign.sol\":2757:3017  function getSummary() public view returns (... */\n    tag_6:\n      callvalue\n      dup1\n      iszero\n      tag_39\n      jumpi\n      0x00\n      dup1\n      revert\n    tag_39:\n      pop\n      tag_40\n      tag_41\n      jump\t// in\n    tag_40:\n      mload(0x40)\n      tag_42\n      swap6\n      swap5\n      swap4\n      swap3\n      swap2\n      swap1\n      tag_43\n      jump\t// in\n    tag_42:\n      mload(0x40)\n      dup1\n      swap2\n      sub\n      swap1\n      return\n        /* \"Campaign.sol\":1080:1107  string public campaign_name */\n    tag_7:\n      callvalue\n      dup1\n      iszero\n      tag_44\n      jumpi\n      0x00\n      dup1\n      revert\n    tag_44:\n      pop\n      tag_45\n      tag_46\n      jump\t// in\n    tag_45:\n      mload(0x40)\n      tag_47\n      swap2\n      swap1\n      tag_26\n      jump\t// in\n    tag_47:\n      mload(0x40)\n      dup1\n      swap2\n      sub\n      swap1\n      return\n        /* \"Campaign.sol\":1015:1037  address public manager */\n    tag_8:\n      callvalue\n      dup1\n      iszero\n      tag_48\n      jumpi\n      0x00\n      dup1\n      revert\n    tag_48:\n      pop\n      tag_49\n      tag_50\n      jump\t// in\n    tag_49:\n      mload(0x40)\n      tag_51\n      swap2\n      swap1\n      tag_52\n      jump\t// in\n    tag_51:\n      mload(0x40)\n      dup1\n      swap2\n      sub\n      swap1\n      return\n        /* \"Campaign.sol\":984:1009  Request[] public requests */\n    tag_9:\n      callvalue\n      dup1\n      iszero\n      tag_53\n      jumpi\n      0x00\n      dup1\n      revert\n    tag_53:\n      pop\n      tag_54\n      0x04\n      dup1\n      calldatasize\n      sub\n      dup2\n      add\n      swap1\n      tag_55\n      swap2\n      swap1\n      tag_20\n      jump\t// in\n    tag_55:\n      tag_56\n      jump\t// in\n    tag_54:\n      mload(0x40)\n      tag_57\n      swap6\n      swap5\n      swap4\n      swap3\n      swap2\n      swap1\n      tag_58\n      jump\t// in\n    tag_57:\n      mload(0x40)\n      dup1\n      swap2\n      sub\n      swap1\n      return\n        /* \"Campaign.sol\":1200:1226  uint public approversCount */\n    tag_10:\n      callvalue\n      dup1\n      iszero\n      tag_59\n      jumpi\n      0x00\n      dup1\n      revert\n    tag_59:\n      pop\n      tag_60\n      tag_61\n      jump\t// in\n    tag_60:\n      mload(0x40)\n      tag_62\n      swap2\n      swap1\n      tag_38\n      jump\t// in\n    tag_62:\n      mload(0x40)\n      dup1\n      swap2\n      sub\n      swap1\n      return\n        /* \"Campaign.sol\":1803:2157  function createRequest(string memory description, uint value, address recipient) public restricted {... */\n    tag_11:\n      callvalue\n      dup1\n      iszero\n      tag_63\n      jumpi\n      0x00\n      dup1\n      revert\n    tag_63:\n      pop\n      tag_64\n      0x04\n      dup1\n      calldatasize\n      sub\n      dup2\n      add\n      swap1\n      tag_65\n      swap2\n      swap1\n      tag_66\n      jump\t// in\n    tag_65:\n      tag_67\n      jump\t// in\n    tag_64:\n      stop\n        /* \"Campaign.sol\":1043:1074  uint public minimumContribution */\n    tag_12:\n      callvalue\n      dup1\n      iszero\n      tag_68\n      jumpi\n      0x00\n      dup1\n      revert\n    tag_68:\n      pop\n      tag_69\n      tag_70\n      jump\t// in\n    tag_69:\n      mload(0x40)\n      tag_71\n      swap2\n      swap1\n      tag_38\n      jump\t// in\n    tag_71:\n      mload(0x40)\n      dup1\n      swap2\n      sub\n      swap1\n      return\n        /* \"Campaign.sol\":1578:1797  function contribute() public payable {... */\n    tag_13:\n      tag_72\n      tag_73\n      jump\t// in\n    tag_72:\n      stop\n        /* \"Campaign.sol\":2163:2434  function approveRequest(uint index) public {... */\n    tag_14:\n      callvalue\n      dup1\n      iszero\n      tag_74\n      jumpi\n      0x00\n      dup1\n      revert\n    tag_74:\n      pop\n      tag_75\n      0x04\n      dup1\n      calldatasize\n      sub\n      dup2\n      add\n      swap1\n      tag_76\n      swap2\n      swap1\n      tag_20\n      jump\t// in\n    tag_76:\n      tag_77\n      jump\t// in\n    tag_75:\n      stop\n        /* \"Campaign.sol\":2440:2747  function finalizeRequest(uint index) public restricted {... */\n    tag_21:\n        /* \"Campaign.sol\":1287:1294  manager */\n      0x01\n      0x00\n      swap1\n      sload\n      swap1\n      0x0100\n      exp\n      swap1\n      div\n      0xffffffffffffffffffffffffffffffffffffffff\n      and\n        /* \"Campaign.sol\":1273:1294  msg.sender == manager */\n      0xffffffffffffffffffffffffffffffffffffffff\n      and\n        /* \"Campaign.sol\":1273:1283  msg.sender */\n      caller\n        /* \"Campaign.sol\":1273:1294  msg.sender == manager */\n      0xffffffffffffffffffffffffffffffffffffffff\n      and\n      eq\n        /* \"Campaign.sol\":1265:1295  require(msg.sender == manager) */\n      tag_79\n      jumpi\n      0x00\n      dup1\n      revert\n    tag_79:\n        /* \"Campaign.sol\":2505:2528  Request storage request */\n      0x00\n        /* \"Campaign.sol\":2531:2539  requests */\n      dup1\n        /* \"Campaign.sol\":2540:2545  index */\n      dup3\n        /* \"Campaign.sol\":2531:2546  requests[index] */\n      dup2\n      sload\n      dup2\n      lt\n      tag_81\n      jumpi\n      tag_82\n      tag_83\n      jump\t// in\n    tag_82:\n    tag_81:\n      swap1\n      0x00\n      mstore\n      keccak256(0x00, 0x20)\n      swap1\n      0x05\n      mul\n      add\n        /* \"Campaign.sol\":2505:2546  Request storage request = requests[index] */\n      swap1\n      pop\n        /* \"Campaign.sol\":2607:2608  2 */\n      0x02\n        /* \"Campaign.sol\":2590:2604  approversCount */\n      sload(0x06)\n        /* \"Campaign.sol\":2590:2608  approversCount / 2 */\n      tag_85\n      swap2\n      swap1\n      tag_86\n      jump\t// in\n    tag_85:\n        /* \"Campaign.sol\":2565:2572  request */\n      dup2\n        /* \"Campaign.sol\":2565:2586  request.approvalCount */\n      0x03\n      add\n      sload\n        /* \"Campaign.sol\":2565:2609  request.approvalCount > (approversCount / 2) */\n      gt\n        /* \"Campaign.sol\":2557:2610  require(request.approvalCount > (approversCount / 2)) */\n      tag_87\n      jumpi\n      0x00\n      dup1\n      revert\n    tag_87:\n        /* \"Campaign.sol\":2629:2636  request */\n      dup1\n        /* \"Campaign.sol\":2629:2645  request.complete */\n      0x02\n      add\n      0x14\n      swap1\n      sload\n      swap1\n      0x0100\n      exp\n      swap1\n      div\n      0xff\n      and\n        /* \"Campaign.sol\":2628:2645  !request.complete */\n      iszero\n        /* \"Campaign.sol\":2620:2646  require(!request.complete) */\n      tag_88\n      jumpi\n      0x00\n      dup1\n      revert\n    tag_88:\n        /* \"Campaign.sol\":2665:2672  request */\n      dup1\n        /* \"Campaign.sol\":2665:2682  request.recipient */\n      0x02\n      add\n      0x00\n      swap1\n      sload\n      swap1\n      0x0100\n      exp\n      swap1\n      div\n      0xffffffffffffffffffffffffffffffffffffffff\n      and\n        /* \"Campaign.sol\":2657:2692  payable(request.recipient).transfer */\n      0xffffffffffffffffffffffffffffffffffffffff\n      and\n        /* \"Campaign.sol\":2657:2707  payable(request.recipient).transfer(request.value) */\n      0x08fc\n        /* \"Campaign.sol\":2693:2700  request */\n      dup3\n        /* \"Campaign.sol\":2693:2706  request.value */\n      0x01\n      add\n      sload\n        /* \"Campaign.sol\":2657:2707  payable(request.recipient).transfer(request.value) */\n      swap1\n      dup2\n      iszero\n      mul\n      swap1\n      mload(0x40)\n      0x00\n      mload(0x40)\n      dup1\n      dup4\n      sub\n      dup2\n      dup6\n      dup9\n      dup9\n      call\n      swap4\n      pop\n      pop\n      pop\n      pop\n      iszero\n      dup1\n      iszero\n      tag_90\n      jumpi\n      returndatasize\n      0x00\n      dup1\n      returndatacopy\n      revert(0x00, returndatasize)\n    tag_90:\n      pop\n        /* \"Campaign.sol\":2736:2740  true */\n      0x01\n        /* \"Campaign.sol\":2717:2724  request */\n      dup2\n        /* \"Campaign.sol\":2717:2733  request.complete */\n      0x02\n      add\n      0x14\n        /* \"Campaign.sol\":2717:2740  request.complete = true */\n      0x0100\n      exp\n      dup2\n      sload\n      dup2\n      0xff\n      mul\n      not\n      and\n      swap1\n      dup4\n      iszero\n      iszero\n      mul\n      or\n      swap1\n      sstore\n      pop\n        /* \"Campaign.sol\":2495:2747  {... */\n      pop\n        /* \"Campaign.sol\":2440:2747  function finalizeRequest(uint index) public restricted {... */\n      pop\n      jump\t// out\n        /* \"Campaign.sol\":1113:1147  string public campaign_description */\n    tag_24:\n      0x04\n      dup1\n      sload\n      tag_91\n      swap1\n      tag_92\n      jump\t// in\n    tag_91:\n      dup1\n      0x1f\n      add\n      0x20\n      dup1\n      swap2\n      div\n      mul\n      0x20\n      add\n      mload(0x40)\n      swap1\n      dup2\n      add\n      0x40\n      mstore\n      dup1\n      swap3\n      swap2\n      swap1\n      dup2\n      dup2\n      mstore\n      0x20\n      add\n      dup3\n      dup1\n      sload\n      tag_93\n      swap1\n      tag_92\n      jump\t// in\n    tag_93:\n      dup1\n      iszero\n      tag_94\n      jumpi\n      dup1\n      0x1f\n      lt\n      tag_95\n      jumpi\n      0x0100\n      dup1\n      dup4\n      sload\n      div\n      mul\n      dup4\n      mstore\n      swap2\n      0x20\n      add\n      swap2\n      jump(tag_94)\n    tag_95:\n      dup3\n      add\n      swap2\n      swap1\n      0x00\n      mstore\n      keccak256(0x00, 0x20)\n      swap1\n    tag_96:\n      dup2\n      sload\n      dup2\n      mstore\n      swap1\n      0x01\n      add\n      swap1\n      0x20\n      add\n      dup1\n      dup4\n      gt\n      tag_96\n      jumpi\n      dup3\n      swap1\n      sub\n      0x1f\n      and\n      dup3\n      add\n      swap2\n    tag_94:\n      pop\n      pop\n      pop\n      pop\n      pop\n      dup2\n      jump\t// out\n        /* \"Campaign.sol\":1153:1194  mapping(address => bool) public approvers */\n    tag_31:\n      mstore(0x20, 0x05)\n      dup1\n      0x00\n      mstore\n      keccak256(0x00, 0x40)\n      0x00\n      swap2\n      pop\n      sload\n      swap1\n      0x0100\n      exp\n      swap1\n      div\n      0xff\n      and\n      dup2\n      jump\t// out\n        /* \"Campaign.sol\":3027:3121  function getRequestsCount() public view returns (uint) {... */\n    tag_36:\n        /* \"Campaign.sol\":3076:3080  uint */\n      0x00\n        /* \"Campaign.sol\":3099:3107  requests */\n      dup1\n        /* \"Campaign.sol\":3099:3114  requests.length */\n      dup1\n      sload\n      swap1\n      pop\n        /* \"Campaign.sol\":3092:3114  return requests.length */\n      swap1\n      pop\n        /* \"Campaign.sol\":3027:3121  function getRequestsCount() public view returns (uint) {... */\n      swap1\n      jump\t// out\n        /* \"Campaign.sol\":2757:3017  function getSummary() public view returns (... */\n    tag_41:\n        /* \"Campaign.sol\":2807:2811  uint */\n      0x00\n        /* \"Campaign.sol\":2813:2817  uint */\n      dup1\n        /* \"Campaign.sol\":2819:2823  uint */\n      0x00\n        /* \"Campaign.sol\":2825:2829  uint */\n      dup1\n        /* \"Campaign.sol\":2831:2838  address */\n      0x00\n        /* \"Campaign.sol\":2876:2895  minimumContribution */\n      sload(0x02)\n        /* \"Campaign.sol\":2907:2928  address(this).balance */\n      selfbalance\n        /* \"Campaign.sol\":2940:2948  requests */\n      0x00\n        /* \"Campaign.sol\":2940:2955  requests.length */\n      dup1\n      sload\n      swap1\n      pop\n        /* \"Campaign.sol\":2967:2981  approversCount */\n      sload(0x06)\n        /* \"Campaign.sol\":2993:3000  manager */\n      0x01\n      0x00\n      swap1\n      sload\n      swap1\n      0x0100\n      exp\n      swap1\n      div\n      0xffffffffffffffffffffffffffffffffffffffff\n      and\n        /* \"Campaign.sol\":2857:3010  return (... */\n      swap5\n      pop\n      swap5\n      pop\n      swap5\n      pop\n      swap5\n      pop\n      swap5\n      pop\n        /* \"Campaign.sol\":2757:3017  function getSummary() public view returns (... */\n      swap1\n      swap2\n      swap3\n      swap4\n      swap5\n      jump\t// out\n        /* \"Campaign.sol\":1080:1107  string public campaign_name */\n    tag_46:\n      0x03\n      dup1\n      sload\n      tag_99\n      swap1\n      tag_92\n      jump\t// in\n    tag_99:\n      dup1\n      0x1f\n      add\n      0x20\n      dup1\n      swap2\n      div\n      mul\n      0x20\n      add\n      mload(0x40)\n      swap1\n      dup2\n      add\n      0x40\n      mstore\n      dup1\n      swap3\n      swap2\n      swap1\n      dup2\n      dup2\n      mstore\n      0x20\n      add\n      dup3\n      dup1\n      sload\n      tag_100\n      swap1\n      tag_92\n      jump\t// in\n    tag_100:\n      dup1\n      iszero\n      tag_101\n      jumpi\n      dup1\n      0x1f\n      lt\n      tag_102\n      jumpi\n      0x0100\n      dup1\n      dup4\n      sload\n      div\n      mul\n      dup4\n      mstore\n      swap2\n      0x20\n      add\n      swap2\n      jump(tag_101)\n    tag_102:\n      dup3\n      add\n      swap2\n      swap1\n      0x00\n      mstore\n      keccak256(0x00, 0x20)\n      swap1\n    tag_103:\n      dup2\n      sload\n      dup2\n      mstore\n      swap1\n      0x01\n      add\n      swap1\n      0x20\n      add\n      dup1\n      dup4\n      gt\n      tag_103\n      jumpi\n      dup3\n      swap1\n      sub\n      0x1f\n      and\n      dup3\n      add\n      swap2\n    tag_101:\n      pop\n      pop\n      pop\n      pop\n      pop\n      dup2\n      jump\t// out\n        /* \"Campaign.sol\":1015:1037  address public manager */\n    tag_50:\n      0x01\n      0x00\n      swap1\n      sload\n      swap1\n      0x0100\n      exp\n      swap1\n      div\n      0xffffffffffffffffffffffffffffffffffffffff\n      and\n      dup2\n      jump\t// out\n        /* \"Campaign.sol\":984:1009  Request[] public requests */\n    tag_56:\n      0x00\n      dup2\n      dup2\n      sload\n      dup2\n      lt\n      tag_104\n      jumpi\n      0x00\n      dup1\n      revert\n    tag_104:\n      swap1\n      0x00\n      mstore\n      keccak256(0x00, 0x20)\n      swap1\n      0x05\n      mul\n      add\n      0x00\n      swap2\n      pop\n      swap1\n      pop\n      dup1\n      0x00\n      add\n      dup1\n      sload\n      tag_106\n      swap1\n      tag_92\n      jump\t// in\n    tag_106:\n      dup1\n      0x1f\n      add\n      0x20\n      dup1\n      swap2\n      div\n      mul\n      0x20\n      add\n      mload(0x40)\n      swap1\n      dup2\n      add\n      0x40\n      mstore\n      dup1\n      swap3\n      swap2\n      swap1\n      dup2\n      dup2\n      mstore\n      0x20\n      add\n      dup3\n      dup1\n      sload\n      tag_107\n      swap1\n      tag_92\n      jump\t// in\n    tag_107:\n      dup1\n      iszero\n      tag_108\n      jumpi\n      dup1\n      0x1f\n      lt\n      tag_109\n      jumpi\n      0x0100\n      dup1\n      dup4\n      sload\n      div\n      mul\n      dup4\n      mstore\n      swap2\n      0x20\n      add\n      swap2\n      jump(tag_108)\n    tag_109:\n      dup3\n      add\n      swap2\n      swap1\n      0x00\n      mstore\n      keccak256(0x00, 0x20)\n      swap1\n    tag_110:\n      dup2\n      sload\n      dup2\n      mstore\n      swap1\n      0x01\n      add\n      swap1\n      0x20\n      add\n      dup1\n      dup4\n      gt\n      tag_110\n      jumpi\n      dup3\n      swap1\n      sub\n      0x1f\n      and\n      dup3\n      add\n      swap2\n    tag_108:\n      pop\n      pop\n      pop\n      pop\n      pop\n      swap1\n      dup1\n      0x01\n      add\n      sload\n      swap1\n      dup1\n      0x02\n      add\n      0x00\n      swap1\n      sload\n      swap1\n      0x0100\n      exp\n      swap1\n      div\n      0xffffffffffffffffffffffffffffffffffffffff\n      and\n      swap1\n      dup1\n      0x02\n      add\n      0x14\n      swap1\n      sload\n      swap1\n      0x0100\n      exp\n      swap1\n      div\n      0xff\n      and\n      swap1\n      dup1\n      0x03\n      add\n      sload\n      swap1\n      pop\n      dup6\n      jump\t// out\n        /* \"Campaign.sol\":1200:1226  uint public approversCount */\n    tag_61:\n      sload(0x06)\n      dup2\n      jump\t// out\n        /* \"Campaign.sol\":1803:2157  function createRequest(string memory description, uint value, address recipient) public restricted {... */\n    tag_67:\n        /* \"Campaign.sol\":1287:1294  manager */\n      0x01\n      0x00\n      swap1\n      sload\n      swap1\n      0x0100\n      exp\n      swap1\n      div\n      0xffffffffffffffffffffffffffffffffffffffff\n      and\n        /* \"Campaign.sol\":1273:1294  msg.sender == manager */\n      0xffffffffffffffffffffffffffffffffffffffff\n      and\n        /* \"Campaign.sol\":1273:1283  msg.sender */\n      caller\n        /* \"Campaign.sol\":1273:1294  msg.sender == manager */\n      0xffffffffffffffffffffffffffffffffffffffff\n      and\n      eq\n        /* \"Campaign.sol\":1265:1295  require(msg.sender == manager) */\n      tag_112\n      jumpi\n      0x00\n      dup1\n      revert\n    tag_112:\n        /* \"Campaign.sol\":1912:1938  Request storage newRequest */\n      0x00\n        /* \"Campaign.sol\":1941:1949  requests */\n      dup1\n        /* \"Campaign.sol\":1941:1956  requests.push() */\n      0x01\n      dup2\n      0x01\n      dup2\n      sload\n      add\n      dup1\n      dup3\n      sstore\n      dup1\n      swap2\n      pop\n      pop\n      sub\n      swap1\n      0x00\n      mstore\n      keccak256(0x00, 0x20)\n      swap1\n      0x05\n      mul\n      add\n        /* \"Campaign.sol\":1912:1956  Request storage newRequest = requests.push() */\n      swap1\n      pop\n        /* \"Campaign.sol\":1992:2003  description */\n      dup4\n        /* \"Campaign.sol\":1967:1977  newRequest */\n      dup2\n        /* \"Campaign.sol\":1967:1989  newRequest.description */\n      0x00\n      add\n        /* \"Campaign.sol\":1967:2003  newRequest.description = description */\n      swap1\n      dup2\n      tag_115\n      swap2\n      swap1\n      tag_116\n      jump\t// in\n    tag_115:\n      pop\n        /* \"Campaign.sol\":2031:2036  value */\n      dup3\n        /* \"Campaign.sol\":2013:2023  newRequest */\n      dup2\n        /* \"Campaign.sol\":2013:2029  newRequest.value */\n      0x01\n      add\n        /* \"Campaign.sol\":2013:2036  newRequest.value= value */\n      dup2\n      swap1\n      sstore\n      pop\n        /* \"Campaign.sol\":2068:2077  recipient */\n      dup2\n        /* \"Campaign.sol\":2046:2056  newRequest */\n      dup2\n        /* \"Campaign.sol\":2046:2066  newRequest.recipient */\n      0x02\n      add\n      0x00\n        /* \"Campaign.sol\":2046:2077  newRequest.recipient= recipient */\n      0x0100\n      exp\n      dup2\n      sload\n      dup2\n      0xffffffffffffffffffffffffffffffffffffffff\n      mul\n      not\n      and\n      swap1\n      dup4\n      0xffffffffffffffffffffffffffffffffffffffff\n      and\n      mul\n      or\n      swap1\n      sstore\n      pop\n        /* \"Campaign.sol\":2108:2113  false */\n      0x00\n        /* \"Campaign.sol\":2087:2097  newRequest */\n      dup2\n        /* \"Campaign.sol\":2087:2106  newRequest.complete */\n      0x02\n      add\n      0x14\n        /* \"Campaign.sol\":2087:2113  newRequest.complete= false */\n      0x0100\n      exp\n      dup2\n      sload\n      dup2\n      0xff\n      mul\n      not\n      and\n      swap1\n      dup4\n      iszero\n      iszero\n      mul\n      or\n      swap1\n      sstore\n      pop\n        /* \"Campaign.sol\":2149:2150  0 */\n      0x00\n        /* \"Campaign.sol\":2123:2133  newRequest */\n      dup2\n        /* \"Campaign.sol\":2123:2147  newRequest.approvalCount */\n      0x03\n      add\n        /* \"Campaign.sol\":2123:2150  newRequest.approvalCount= 0 */\n      dup2\n      swap1\n      sstore\n      pop\n        /* \"Campaign.sol\":1902:2157  {... */\n      pop\n        /* \"Campaign.sol\":1803:2157  function createRequest(string memory description, uint value, address recipient) public restricted {... */\n      pop\n      pop\n      pop\n      jump\t// out\n        /* \"Campaign.sol\":1043:1074  uint public minimumContribution */\n    tag_70:\n      sload(0x02)\n      dup2\n      jump\t// out\n        /* \"Campaign.sol\":1578:1797  function contribute() public payable {... */\n    tag_73:\n        /* \"Campaign.sol\":1645:1664  minimumContribution */\n      sload(0x02)\n        /* \"Campaign.sol\":1633:1642  msg.value */\n      callvalue\n        /* \"Campaign.sol\":1633:1664  msg.value > minimumContribution */\n      gt\n        /* \"Campaign.sol\":1625:1665  require(msg.value > minimumContribution) */\n      tag_118\n      jumpi\n      0x00\n      dup1\n      revert\n    tag_118:\n        /* \"Campaign.sol\":1701:1706  false */\n      0x00\n        /* \"Campaign.sol\":1678:1706  approvers[msg.sender]==false */\n      iszero\n      iszero\n        /* \"Campaign.sol\":1678:1687  approvers */\n      0x05\n        /* \"Campaign.sol\":1678:1699  approvers[msg.sender] */\n      0x00\n        /* \"Campaign.sol\":1688:1698  msg.sender */\n      caller\n        /* \"Campaign.sol\":1678:1699  approvers[msg.sender] */\n      0xffffffffffffffffffffffffffffffffffffffff\n      and\n      0xffffffffffffffffffffffffffffffffffffffff\n      and\n      dup2\n      mstore\n      0x20\n      add\n      swap1\n      dup2\n      mstore\n      0x20\n      add\n      0x00\n      keccak256\n      0x00\n      swap1\n      sload\n      swap1\n      0x0100\n      exp\n      swap1\n      div\n      0xff\n      and\n        /* \"Campaign.sol\":1678:1706  approvers[msg.sender]==false */\n      iszero\n      iszero\n      sub\n        /* \"Campaign.sol\":1675:1791  if(approvers[msg.sender]==false)... */\n      tag_119\n      jumpi\n        /* \"Campaign.sol\":1726:1740  approversCount */\n      0x06\n      0x00\n        /* \"Campaign.sol\":1726:1742  approversCount++ */\n      dup2\n      sload\n      dup1\n      swap3\n      swap2\n      swap1\n      tag_120\n      swap1\n      tag_121\n      jump\t// in\n    tag_120:\n      swap2\n      swap1\n      pop\n      sstore\n      pop\n        /* \"Campaign.sol\":1776:1780  true */\n      0x01\n        /* \"Campaign.sol\":1752:1761  approvers */\n      0x05\n        /* \"Campaign.sol\":1752:1773  approvers[msg.sender] */\n      0x00\n        /* \"Campaign.sol\":1762:1772  msg.sender */\n      caller\n        /* \"Campaign.sol\":1752:1773  approvers[msg.sender] */\n      0xffffffffffffffffffffffffffffffffffffffff\n      and\n      0xffffffffffffffffffffffffffffffffffffffff\n      and\n      dup2\n      mstore\n      0x20\n      add\n      swap1\n      dup2\n      mstore\n      0x20\n      add\n      0x00\n      keccak256\n      0x00\n        /* \"Campaign.sol\":1752:1780  approvers[msg.sender] = true */\n      0x0100\n      exp\n      dup2\n      sload\n      dup2\n      0xff\n      mul\n      not\n      and\n      swap1\n      dup4\n      iszero\n      iszero\n      mul\n      or\n      swap1\n      sstore\n      pop\n        /* \"Campaign.sol\":1675:1791  if(approvers[msg.sender]==false)... */\n    tag_119:\n        /* \"Campaign.sol\":1578:1797  function contribute() public payable {... */\n      jump\t// out\n        /* \"Campaign.sol\":2163:2434  function approveRequest(uint index) public {... */\n    tag_77:\n        /* \"Campaign.sol\":2216:2239  Request storage request */\n      0x00\n        /* \"Campaign.sol\":2242:2250  requests */\n      dup1\n        /* \"Campaign.sol\":2251:2256  index */\n      dup3\n        /* \"Campaign.sol\":2242:2257  requests[index] */\n      dup2\n      sload\n      dup2\n      lt\n      tag_123\n      jumpi\n      tag_124\n      tag_83\n      jump\t// in\n    tag_124:\n    tag_123:\n      swap1\n      0x00\n      mstore\n      keccak256(0x00, 0x20)\n      swap1\n      0x05\n      mul\n      add\n        /* \"Campaign.sol\":2216:2257  Request storage request = requests[index] */\n      swap1\n      pop\n        /* \"Campaign.sol\":2276:2285  approvers */\n      0x05\n        /* \"Campaign.sol\":2276:2297  approvers[msg.sender] */\n      0x00\n        /* \"Campaign.sol\":2286:2296  msg.sender */\n      caller\n        /* \"Campaign.sol\":2276:2297  approvers[msg.sender] */\n      0xffffffffffffffffffffffffffffffffffffffff\n      and\n      0xffffffffffffffffffffffffffffffffffffffff\n      and\n      dup2\n      mstore\n      0x20\n      add\n      swap1\n      dup2\n      mstore\n      0x20\n      add\n      0x00\n      keccak256\n      0x00\n      swap1\n      sload\n      swap1\n      0x0100\n      exp\n      swap1\n      div\n      0xff\n      and\n        /* \"Campaign.sol\":2268:2298  require(approvers[msg.sender]) */\n      tag_126\n      jumpi\n      0x00\n      dup1\n      revert\n    tag_126:\n        /* \"Campaign.sol\":2317:2324  request */\n      dup1\n        /* \"Campaign.sol\":2317:2334  request.approvals */\n      0x04\n      add\n        /* \"Campaign.sol\":2317:2346  request.approvals[msg.sender] */\n      0x00\n        /* \"Campaign.sol\":2335:2345  msg.sender */\n      caller\n        /* \"Campaign.sol\":2317:2346  request.approvals[msg.sender] */\n      0xffffffffffffffffffffffffffffffffffffffff\n      and\n      0xffffffffffffffffffffffffffffffffffffffff\n      and\n      dup2\n      mstore\n      0x20\n      add\n      swap1\n      dup2\n      mstore\n      0x20\n      add\n      0x00\n      keccak256\n      0x00\n      swap1\n      sload\n      swap1\n      0x0100\n      exp\n      swap1\n      div\n      0xff\n      and\n        /* \"Campaign.sol\":2316:2346  !request.approvals[msg.sender] */\n      iszero\n        /* \"Campaign.sol\":2308:2347  require(!request.approvals[msg.sender]) */\n      tag_127\n      jumpi\n      0x00\n      dup1\n      revert\n    tag_127:\n        /* \"Campaign.sol\":2390:2394  true */\n      0x01\n        /* \"Campaign.sol\":2358:2365  request */\n      dup2\n        /* \"Campaign.sol\":2358:2375  request.approvals */\n      0x04\n      add\n        /* \"Campaign.sol\":2358:2387  request.approvals[msg.sender] */\n      0x00\n        /* \"Campaign.sol\":2376:2386  msg.sender */\n      caller\n        /* \"Campaign.sol\":2358:2387  request.approvals[msg.sender] */\n      0xffffffffffffffffffffffffffffffffffffffff\n      and\n      0xffffffffffffffffffffffffffffffffffffffff\n      and\n      dup2\n      mstore\n      0x20\n      add\n      swap1\n      dup2\n      mstore\n      0x20\n      add\n      0x00\n      keccak256\n      0x00\n        /* \"Campaign.sol\":2358:2394  request.approvals[msg.sender] = true */\n      0x0100\n      exp\n      dup2\n      sload\n      dup2\n      0xff\n      mul\n      not\n      and\n      swap1\n      dup4\n      iszero\n      iszero\n      mul\n      or\n      swap1\n      sstore\n      pop\n        /* \"Campaign.sol\":2404:2411  request */\n      dup1\n        /* \"Campaign.sol\":2404:2425  request.approvalCount */\n      0x03\n      add\n      0x00\n        /* \"Campaign.sol\":2404:2427  request.approvalCount++ */\n      dup2\n      sload\n      dup1\n      swap3\n      swap2\n      swap1\n      tag_128\n      swap1\n      tag_121\n      jump\t// in\n    tag_128:\n      swap2\n      swap1\n      pop\n      sstore\n      pop\n        /* \"Campaign.sol\":2206:2434  {... */\n      pop\n        /* \"Campaign.sol\":2163:2434  function approveRequest(uint index) public {... */\n      pop\n      jump\t// out\n        /* \"#utility.yul\":7:82   */\n    tag_129:\n        /* \"#utility.yul\":40:46   */\n      0x00\n        /* \"#utility.yul\":73:75   */\n      0x40\n        /* \"#utility.yul\":67:76   */\n      mload\n        /* \"#utility.yul\":57:76   */\n      swap1\n      pop\n        /* \"#utility.yul\":7:82   */\n      swap1\n      jump\t// out\n        /* \"#utility.yul\":88:205   */\n    tag_130:\n        /* \"#utility.yul\":197:198   */\n      0x00\n        /* \"#utility.yul\":194:195   */\n      dup1\n        /* \"#utility.yul\":187:199   */\n      revert\n        /* \"#utility.yul\":211:328   */\n    tag_131:\n        /* \"#utility.yul\":320:321   */\n      0x00\n        /* \"#utility.yul\":317:318   */\n      dup1\n        /* \"#utility.yul\":310:322   */\n      revert\n        /* \"#utility.yul\":334:411   */\n    tag_132:\n        /* \"#utility.yul\":371:378   */\n      0x00\n        /* \"#utility.yul\":400:405   */\n      dup2\n        /* \"#utility.yul\":389:405   */\n      swap1\n      pop\n        /* \"#utility.yul\":334:411   */\n      swap2\n      swap1\n      pop\n      jump\t// out\n        /* \"#utility.yul\":417:539   */\n    tag_133:\n        /* \"#utility.yul\":490:514   */\n      tag_181\n        /* \"#utility.yul\":508:513   */\n      dup2\n        /* \"#utility.yul\":490:514   */\n      tag_132\n      jump\t// in\n    tag_181:\n        /* \"#utility.yul\":483:488   */\n      dup2\n        /* \"#utility.yul\":480:515   */\n      eq\n        /* \"#utility.yul\":470:533   */\n      tag_182\n      jumpi\n        /* \"#utility.yul\":529:530   */\n      0x00\n        /* \"#utility.yul\":526:527   */\n      dup1\n        /* \"#utility.yul\":519:531   */\n      revert\n        /* \"#utility.yul\":470:533   */\n    tag_182:\n        /* \"#utility.yul\":417:539   */\n      pop\n      jump\t// out\n        /* \"#utility.yul\":545:684   */\n    tag_134:\n        /* \"#utility.yul\":591:596   */\n      0x00\n        /* \"#utility.yul\":629:635   */\n      dup2\n        /* \"#utility.yul\":616:636   */\n      calldataload\n        /* \"#utility.yul\":607:636   */\n      swap1\n      pop\n        /* \"#utility.yul\":645:678   */\n      tag_184\n        /* \"#utility.yul\":672:677   */\n      dup2\n        /* \"#utility.yul\":645:678   */\n      tag_133\n      jump\t// in\n    tag_184:\n        /* \"#utility.yul\":545:684   */\n      swap3\n      swap2\n      pop\n      pop\n      jump\t// out\n        /* \"#utility.yul\":690:1019   */\n    tag_20:\n        /* \"#utility.yul\":749:755   */\n      0x00\n        /* \"#utility.yul\":798:800   */\n      0x20\n        /* \"#utility.yul\":786:795   */\n      dup3\n        /* \"#utility.yul\":777:784   */\n      dup5\n        /* \"#utility.yul\":773:796   */\n      sub\n        /* \"#utility.yul\":769:801   */\n      slt\n        /* \"#utility.yul\":766:885   */\n      iszero\n      tag_186\n      jumpi\n        /* \"#utility.yul\":804:883   */\n      tag_187\n      tag_130\n      jump\t// in\n    tag_187:\n        /* \"#utility.yul\":766:885   */\n    tag_186:\n        /* \"#utility.yul\":924:925   */\n      0x00\n        /* \"#utility.yul\":949:1002   */\n      tag_188\n        /* \"#utility.yul\":994:1001   */\n      dup5\n        /* \"#utility.yul\":985:991   */\n      dup3\n        /* \"#utility.yul\":974:983   */\n      dup6\n        /* \"#utility.yul\":970:992   */\n      add\n        /* \"#utility.yul\":949:1002   */\n      tag_134\n      jump\t// in\n    tag_188:\n        /* \"#utility.yul\":939:1002   */\n      swap2\n      pop\n        /* \"#utility.yul\":895:1012   */\n      pop\n        /* \"#utility.yul\":690:1019   */\n      swap3\n      swap2\n      pop\n      pop\n      jump\t// out\n        /* \"#utility.yul\":1025:1124   */\n    tag_135:\n        /* \"#utility.yul\":1077:1083   */\n      0x00\n        /* \"#utility.yul\":1111:1116   */\n      dup2\n        /* \"#utility.yul\":1105:1117   */\n      mload\n        /* \"#utility.yul\":1095:1117   */\n      swap1\n      pop\n        /* \"#utility.yul\":1025:1124   */\n      swap2\n      swap1\n      pop\n      jump\t// out\n        /* \"#utility.yul\":1130:1299   */\n    tag_136:\n        /* \"#utility.yul\":1214:1225   */\n      0x00\n        /* \"#utility.yul\":1248:1254   */\n      dup3\n        /* \"#utility.yul\":1243:1246   */\n      dup3\n        /* \"#utility.yul\":1236:1255   */\n      mstore\n        /* \"#utility.yul\":1288:1292   */\n      0x20\n        /* \"#utility.yul\":1283:1286   */\n      dup3\n        /* \"#utility.yul\":1279:1293   */\n      add\n        /* \"#utility.yul\":1264:1293   */\n      swap1\n      pop\n        /* \"#utility.yul\":1130:1299   */\n      swap3\n      swap2\n      pop\n      pop\n      jump\t// out\n        /* \"#utility.yul\":1305:1612   */\n    tag_137:\n        /* \"#utility.yul\":1373:1374   */\n      0x00\n        /* \"#utility.yul\":1383:1496   */\n    tag_192:\n        /* \"#utility.yul\":1397:1403   */\n      dup4\n        /* \"#utility.yul\":1394:1395   */\n      dup2\n        /* \"#utility.yul\":1391:1404   */\n      lt\n        /* \"#utility.yul\":1383:1496   */\n      iszero\n      tag_194\n      jumpi\n        /* \"#utility.yul\":1482:1483   */\n      dup1\n        /* \"#utility.yul\":1477:1480   */\n      dup3\n        /* \"#utility.yul\":1473:1484   */\n      add\n        /* \"#utility.yul\":1467:1485   */\n      mload\n        /* \"#utility.yul\":1463:1464   */\n      dup2\n        /* \"#utility.yul\":1458:1461   */\n      dup5\n        /* \"#utility.yul\":1454:1465   */\n      add\n        /* \"#utility.yul\":1447:1486   */\n      mstore\n        /* \"#utility.yul\":1419:1421   */\n      0x20\n        /* \"#utility.yul\":1416:1417   */\n      dup2\n        /* \"#utility.yul\":1412:1422   */\n      add\n        /* \"#utility.yul\":1407:1422   */\n      swap1\n      pop\n        /* \"#utility.yul\":1383:1496   */\n      jump(tag_192)\n    tag_194:\n        /* \"#utility.yul\":1514:1520   */\n      dup4\n        /* \"#utility.yul\":1511:1512   */\n      dup2\n        /* \"#utility.yul\":1508:1521   */\n      gt\n        /* \"#utility.yul\":1505:1606   */\n      iszero\n      tag_195\n      jumpi\n        /* \"#utility.yul\":1594:1595   */\n      0x00\n        /* \"#utility.yul\":1585:1591   */\n      dup5\n        /* \"#utility.yul\":1580:1583   */\n      dup5\n        /* \"#utility.yul\":1576:1592   */\n      add\n        /* \"#utility.yul\":1569:1596   */\n      mstore\n        /* \"#utility.yul\":1505:1606   */\n    tag_195:\n        /* \"#utility.yul\":1354:1612   */\n      pop\n        /* \"#utility.yul\":1305:1612   */\n      pop\n      pop\n      pop\n      jump\t// out\n        /* \"#utility.yul\":1618:1720   */\n    tag_138:\n        /* \"#utility.yul\":1659:1665   */\n      0x00\n        /* \"#utility.yul\":1710:1712   */\n      0x1f\n        /* \"#utility.yul\":1706:1713   */\n      not\n        /* \"#utility.yul\":1701:1703   */\n      0x1f\n        /* \"#utility.yul\":1694:1699   */\n      dup4\n        /* \"#utility.yul\":1690:1704   */\n      add\n        /* \"#utility.yul\":1686:1714   */\n      and\n        /* \"#utility.yul\":1676:1714   */\n      swap1\n      pop\n        /* \"#utility.yul\":1618:1720   */\n      swap2\n      swap1\n      pop\n      jump\t// out\n        /* \"#utility.yul\":1726:2090   */\n    tag_139:\n        /* \"#utility.yul\":1814:1817   */\n      0x00\n        /* \"#utility.yul\":1842:1881   */\n      tag_198\n        /* \"#utility.yul\":1875:1880   */\n      dup3\n        /* \"#utility.yul\":1842:1881   */\n      tag_135\n      jump\t// in\n    tag_198:\n        /* \"#utility.yul\":1897:1968   */\n      tag_199\n        /* \"#utility.yul\":1961:1967   */\n      dup2\n        /* \"#utility.yul\":1956:1959   */\n      dup6\n        /* \"#utility.yul\":1897:1968   */\n      tag_136\n      jump\t// in\n    tag_199:\n        /* \"#utility.yul\":1890:1968   */\n      swap4\n      pop\n        /* \"#utility.yul\":1977:2029   */\n      tag_200\n        /* \"#utility.yul\":2022:2028   */\n      dup2\n        /* \"#utility.yul\":2017:2020   */\n      dup6\n        /* \"#utility.yul\":2010:2014   */\n      0x20\n        /* \"#utility.yul\":2003:2008   */\n      dup7\n        /* \"#utility.yul\":1999:2015   */\n      add\n        /* \"#utility.yul\":1977:2029   */\n      tag_137\n      jump\t// in\n    tag_200:\n        /* \"#utility.yul\":2054:2083   */\n      tag_201\n        /* \"#utility.yul\":2076:2082   */\n      dup2\n        /* \"#utility.yul\":2054:2083   */\n      tag_138\n      jump\t// in\n    tag_201:\n        /* \"#utility.yul\":2049:2052   */\n      dup5\n        /* \"#utility.yul\":2045:2084   */\n      add\n        /* \"#utility.yul\":2038:2084   */\n      swap2\n      pop\n        /* \"#utility.yul\":1818:2090   */\n      pop\n        /* \"#utility.yul\":1726:2090   */\n      swap3\n      swap2\n      pop\n      pop\n      jump\t// out\n        /* \"#utility.yul\":2096:2409   */\n    tag_26:\n        /* \"#utility.yul\":2209:2213   */\n      0x00\n        /* \"#utility.yul\":2247:2249   */\n      0x20\n        /* \"#utility.yul\":2236:2245   */\n      dup3\n        /* \"#utility.yul\":2232:2250   */\n      add\n        /* \"#utility.yul\":2224:2250   */\n      swap1\n      pop\n        /* \"#utility.yul\":2296:2305   */\n      dup2\n        /* \"#utility.yul\":2290:2294   */\n      dup2\n        /* \"#utility.yul\":2286:2306   */\n      sub\n        /* \"#utility.yul\":2282:2283   */\n      0x00\n        /* \"#utility.yul\":2271:2280   */\n      dup4\n        /* \"#utility.yul\":2267:2284   */\n      add\n        /* \"#utility.yul\":2260:2307   */\n      mstore\n        /* \"#utility.yul\":2324:2402   */\n      tag_203\n        /* \"#utility.yul\":2397:2401   */\n      dup2\n        /* \"#utility.yul\":2388:2394   */\n      dup5\n        /* \"#utility.yul\":2324:2402   */\n      tag_139\n      jump\t// in\n    tag_203:\n        /* \"#utility.yul\":2316:2402   */\n      swap1\n      pop\n        /* \"#utility.yul\":2096:2409   */\n      swap3\n      swap2\n      pop\n      pop\n      jump\t// out\n        /* \"#utility.yul\":2415:2541   */\n    tag_140:\n        /* \"#utility.yul\":2452:2459   */\n      0x00\n        /* \"#utility.yul\":2492:2534   */\n      0xffffffffffffffffffffffffffffffffffffffff\n        /* \"#utility.yul\":2485:2490   */\n      dup3\n        /* \"#utility.yul\":2481:2535   */\n      and\n        /* \"#utility.yul\":2470:2535   */\n      swap1\n      pop\n        /* \"#utility.yul\":2415:2541   */\n      swap2\n      swap1\n      pop\n      jump\t// out\n        /* \"#utility.yul\":2547:2643   */\n    tag_141:\n        /* \"#utility.yul\":2584:2591   */\n      0x00\n        /* \"#utility.yul\":2613:2637   */\n      tag_206\n        /* \"#utility.yul\":2631:2636   */\n      dup3\n        /* \"#utility.yul\":2613:2637   */\n      tag_140\n      jump\t// in\n    tag_206:\n        /* \"#utility.yul\":2602:2637   */\n      swap1\n      pop\n        /* \"#utility.yul\":2547:2643   */\n      swap2\n      swap1\n      pop\n      jump\t// out\n        /* \"#utility.yul\":2649:2771   */\n    tag_142:\n        /* \"#utility.yul\":2722:2746   */\n      tag_208\n        /* \"#utility.yul\":2740:2745   */\n      dup2\n        /* \"#utility.yul\":2722:2746   */\n      tag_141\n      jump\t// in\n    tag_208:\n        /* \"#utility.yul\":2715:2720   */\n      dup2\n        /* \"#utility.yul\":2712:2747   */\n      eq\n        /* \"#utility.yul\":2702:2765   */\n      tag_209\n      jumpi\n        /* \"#utility.yul\":2761:2762   */\n      0x00\n        /* \"#utility.yul\":2758:2759   */\n      dup1\n        /* \"#utility.yul\":2751:2763   */\n      revert\n        /* \"#utility.yul\":2702:2765   */\n    tag_209:\n        /* \"#utility.yul\":2649:2771   */\n      pop\n      jump\t// out\n        /* \"#utility.yul\":2777:2916   */\n    tag_143:\n        /* \"#utility.yul\":2823:2828   */\n      0x00\n        /* \"#utility.yul\":2861:2867   */\n      dup2\n        /* \"#utility.yul\":2848:2868   */\n      calldataload\n        /* \"#utility.yul\":2839:2868   */\n      swap1\n      pop\n        /* \"#utility.yul\":2877:2910   */\n      tag_211\n        /* \"#utility.yul\":2904:2909   */\n      dup2\n        /* \"#utility.yul\":2877:2910   */\n      tag_142\n      jump\t// in\n    tag_211:\n        /* \"#utility.yul\":2777:2916   */\n      swap3\n      swap2\n      pop\n      pop\n      jump\t// out\n        /* \"#utility.yul\":2922:3251   */\n    tag_30:\n        /* \"#utility.yul\":2981:2987   */\n      0x00\n        /* \"#utility.yul\":3030:3032   */\n      0x20\n        /* \"#utility.yul\":3018:3027   */\n      dup3\n        /* \"#utility.yul\":3009:3016   */\n      dup5\n        /* \"#utility.yul\":3005:3028   */\n      sub\n        /* \"#utility.yul\":3001:3033   */\n      slt\n        /* \"#utility.yul\":2998:3117   */\n      iszero\n      tag_213\n      jumpi\n        /* \"#utility.yul\":3036:3115   */\n      tag_214\n      tag_130\n      jump\t// in\n    tag_214:\n        /* \"#utility.yul\":2998:3117   */\n    tag_213:\n        /* \"#utility.yul\":3156:3157   */\n      0x00\n        /* \"#utility.yul\":3181:3234   */\n      tag_215\n        /* \"#utility.yul\":3226:3233   */\n      dup5\n        /* \"#utility.yul\":3217:3223   */\n      dup3\n        /* \"#utility.yul\":3206:3215   */\n      dup6\n        /* \"#utility.yul\":3202:3224   */\n      add\n        /* \"#utility.yul\":3181:3234   */\n      tag_143\n      jump\t// in\n    tag_215:\n        /* \"#utility.yul\":3171:3234   */\n      swap2\n      pop\n        /* \"#utility.yul\":3127:3244   */\n      pop\n        /* \"#utility.yul\":2922:3251   */\n      swap3\n      swap2\n      pop\n      pop\n      jump\t// out\n        /* \"#utility.yul\":3257:3347   */\n    tag_144:\n        /* \"#utility.yul\":3291:3298   */\n      0x00\n        /* \"#utility.yul\":3334:3339   */\n      dup2\n        /* \"#utility.yul\":3327:3340   */\n      iszero\n        /* \"#utility.yul\":3320:3341   */\n      iszero\n        /* \"#utility.yul\":3309:3341   */\n      swap1\n      pop\n        /* \"#utility.yul\":3257:3347   */\n      swap2\n      swap1\n      pop\n      jump\t// out\n        /* \"#utility.yul\":3353:3462   */\n    tag_145:\n        /* \"#utility.yul\":3434:3455   */\n      tag_218\n        /* \"#utility.yul\":3449:3454   */\n      dup2\n        /* \"#utility.yul\":3434:3455   */\n      tag_144\n      jump\t// in\n    tag_218:\n        /* \"#utility.yul\":3429:3432   */\n      dup3\n        /* \"#utility.yul\":3422:3456   */\n      mstore\n        /* \"#utility.yul\":3353:3462   */\n      pop\n      pop\n      jump\t// out\n        /* \"#utility.yul\":3468:3678   */\n    tag_33:\n        /* \"#utility.yul\":3555:3559   */\n      0x00\n        /* \"#utility.yul\":3593:3595   */\n      0x20\n        /* \"#utility.yul\":3582:3591   */\n      dup3\n        /* \"#utility.yul\":3578:3596   */\n      add\n        /* \"#utility.yul\":3570:3596   */\n      swap1\n      pop\n        /* \"#utility.yul\":3606:3671   */\n      tag_220\n        /* \"#utility.yul\":3668:3669   */\n      0x00\n        /* \"#utility.yul\":3657:3666   */\n      dup4\n        /* \"#utility.yul\":3653:3670   */\n      add\n        /* \"#utility.yul\":3644:3650   */\n      dup5\n        /* \"#utility.yul\":3606:3671   */\n      tag_145\n      jump\t// in\n    tag_220:\n        /* \"#utility.yul\":3468:3678   */\n      swap3\n      swap2\n      pop\n      pop\n      jump\t// out\n        /* \"#utility.yul\":3684:3802   */\n    tag_146:\n        /* \"#utility.yul\":3771:3795   */\n      tag_222\n        /* \"#utility.yul\":3789:3794   */\n      dup2\n        /* \"#utility.yul\":3771:3795   */\n      tag_132\n      jump\t// in\n    tag_222:\n        /* \"#utility.yul\":3766:3769   */\n      dup3\n        /* \"#utility.yul\":3759:3796   */\n      mstore\n        /* \"#utility.yul\":3684:3802   */\n      pop\n      pop\n      jump\t// out\n        /* \"#utility.yul\":3808:4030   */\n    tag_38:\n        /* \"#utility.yul\":3901:3905   */\n      0x00\n        /* \"#utility.yul\":3939:3941   */\n      0x20\n        /* \"#utility.yul\":3928:3937   */\n      dup3\n        /* \"#utility.yul\":3924:3942   */\n      add\n        /* \"#utility.yul\":3916:3942   */\n      swap1\n      pop\n        /* \"#utility.yul\":3952:4023   */\n      tag_224\n        /* \"#utility.yul\":4020:4021   */\n      0x00\n        /* \"#utility.yul\":4009:4018   */\n      dup4\n        /* \"#utility.yul\":4005:4022   */\n      add\n        /* \"#utility.yul\":3996:4002   */\n      dup5\n        /* \"#utility.yul\":3952:4023   */\n      tag_146\n      jump\t// in\n    tag_224:\n        /* \"#utility.yul\":3808:4030   */\n      swap3\n      swap2\n      pop\n      pop\n      jump\t// out\n        /* \"#utility.yul\":4036:4154   */\n    tag_147:\n        /* \"#utility.yul\":4123:4147   */\n      tag_226\n        /* \"#utility.yul\":4141:4146   */\n      dup2\n        /* \"#utility.yul\":4123:4147   */\n      tag_141\n      jump\t// in\n    tag_226:\n        /* \"#utility.yul\":4118:4121   */\n      dup3\n        /* \"#utility.yul\":4111:4148   */\n      mstore\n        /* \"#utility.yul\":4036:4154   */\n      pop\n      pop\n      jump\t// out\n        /* \"#utility.yul\":4160:4824   */\n    tag_43:\n        /* \"#utility.yul\":4365:4369   */\n      0x00\n        /* \"#utility.yul\":4403:4406   */\n      0xa0\n        /* \"#utility.yul\":4392:4401   */\n      dup3\n        /* \"#utility.yul\":4388:4407   */\n      add\n        /* \"#utility.yul\":4380:4407   */\n      swap1\n      pop\n        /* \"#utility.yul\":4417:4488   */\n      tag_228\n        /* \"#utility.yul\":4485:4486   */\n      0x00\n        /* \"#utility.yul\":4474:4483   */\n      dup4\n        /* \"#utility.yul\":4470:4487   */\n      add\n        /* \"#utility.yul\":4461:4467   */\n      dup9\n        /* \"#utility.yul\":4417:4488   */\n      tag_146\n      jump\t// in\n    tag_228:\n        /* \"#utility.yul\":4498:4570   */\n      tag_229\n        /* \"#utility.yul\":4566:4568   */\n      0x20\n        /* \"#utility.yul\":4555:4564   */\n      dup4\n        /* \"#utility.yul\":4551:4569   */\n      add\n        /* \"#utility.yul\":4542:4548   */\n      dup8\n        /* \"#utility.yul\":4498:4570   */\n      tag_146\n      jump\t// in\n    tag_229:\n        /* \"#utility.yul\":4580:4652   */\n      tag_230\n        /* \"#utility.yul\":4648:4650   */\n      0x40\n        /* \"#utility.yul\":4637:4646   */\n      dup4\n        /* \"#utility.yul\":4633:4651   */\n      add\n        /* \"#utility.yul\":4624:4630   */\n      dup7\n        /* \"#utility.yul\":4580:4652   */\n      tag_146\n      jump\t// in\n    tag_230:\n        /* \"#utility.yul\":4662:4734   */\n      tag_231\n        /* \"#utility.yul\":4730:4732   */\n      0x60\n        /* \"#utility.yul\":4719:4728   */\n      dup4\n        /* \"#utility.yul\":4715:4733   */\n      add\n        /* \"#utility.yul\":4706:4712   */\n      dup6\n        /* \"#utility.yul\":4662:4734   */\n      tag_146\n      jump\t// in\n    tag_231:\n        /* \"#utility.yul\":4744:4817   */\n      tag_232\n        /* \"#utility.yul\":4812:4815   */\n      0x80\n        /* \"#utility.yul\":4801:4810   */\n      dup4\n        /* \"#utility.yul\":4797:4816   */\n      add\n        /* \"#utility.yul\":4788:4794   */\n      dup5\n        /* \"#utility.yul\":4744:4817   */\n      tag_147\n      jump\t// in\n    tag_232:\n        /* \"#utility.yul\":4160:4824   */\n      swap7\n      swap6\n      pop\n      pop\n      pop\n      pop\n      pop\n      pop\n      jump\t// out\n        /* \"#utility.yul\":4830:5052   */\n    tag_52:\n        /* \"#utility.yul\":4923:4927   */\n      0x00\n        /* \"#utility.yul\":4961:4963   */\n      0x20\n        /* \"#utility.yul\":4950:4959   */\n      dup3\n        /* \"#utility.yul\":4946:4964   */\n      add\n        /* \"#utility.yul\":4938:4964   */\n      swap1\n      pop\n        /* \"#utility.yul\":4974:5045   */\n      tag_234\n        /* \"#utility.yul\":5042:5043   */\n      0x00\n        /* \"#utility.yul\":5031:5040   */\n      dup4\n        /* \"#utility.yul\":5027:5044   */\n      add\n        /* \"#utility.yul\":5018:5024   */\n      dup5\n        /* \"#utility.yul\":4974:5045   */\n      tag_147\n      jump\t// in\n    tag_234:\n        /* \"#utility.yul\":4830:5052   */\n      swap3\n      swap2\n      pop\n      pop\n      jump\t// out\n        /* \"#utility.yul\":5058:5801   */\n    tag_58:\n        /* \"#utility.yul\":5277:5281   */\n      0x00\n        /* \"#utility.yul\":5315:5318   */\n      0xa0\n        /* \"#utility.yul\":5304:5313   */\n      dup3\n        /* \"#utility.yul\":5300:5319   */\n      add\n        /* \"#utility.yul\":5292:5319   */\n      swap1\n      pop\n        /* \"#utility.yul\":5365:5374   */\n      dup2\n        /* \"#utility.yul\":5359:5363   */\n      dup2\n        /* \"#utility.yul\":5355:5375   */\n      sub\n        /* \"#utility.yul\":5351:5352   */\n      0x00\n        /* \"#utility.yul\":5340:5349   */\n      dup4\n        /* \"#utility.yul\":5336:5353   */\n      add\n        /* \"#utility.yul\":5329:5376   */\n      mstore\n        /* \"#utility.yul\":5393:5471   */\n      tag_236\n        /* \"#utility.yul\":5466:5470   */\n      dup2\n        /* \"#utility.yul\":5457:5463   */\n      dup9\n        /* \"#utility.yul\":5393:5471   */\n      tag_139\n      jump\t// in\n    tag_236:\n        /* \"#utility.yul\":5385:5471   */\n      swap1\n      pop\n        /* \"#utility.yul\":5481:5553   */\n      tag_237\n        /* \"#utility.yul\":5549:5551   */\n      0x20\n        /* \"#utility.yul\":5538:5547   */\n      dup4\n        /* \"#utility.yul\":5534:5552   */\n      add\n        /* \"#utility.yul\":5525:5531   */\n      dup8\n        /* \"#utility.yul\":5481:5553   */\n      tag_146\n      jump\t// in\n    tag_237:\n        /* \"#utility.yul\":5563:5635   */\n      tag_238\n        /* \"#utility.yul\":5631:5633   */\n      0x40\n        /* \"#utility.yul\":5620:5629   */\n      dup4\n        /* \"#utility.yul\":5616:5634   */\n      add\n        /* \"#utility.yul\":5607:5613   */\n      dup7\n        /* \"#utility.yul\":5563:5635   */\n      tag_147\n      jump\t// in\n    tag_238:\n        /* \"#utility.yul\":5645:5711   */\n      tag_239\n        /* \"#utility.yul\":5707:5709   */\n      0x60\n        /* \"#utility.yul\":5696:5705   */\n      dup4\n        /* \"#utility.yul\":5692:5710   */\n      add\n        /* \"#utility.yul\":5683:5689   */\n      dup6\n        /* \"#utility.yul\":5645:5711   */\n      tag_145\n      jump\t// in\n    tag_239:\n        /* \"#utility.yul\":5721:5794   */\n      tag_240\n        /* \"#utility.yul\":5789:5792   */\n      0x80\n        /* \"#utility.yul\":5778:5787   */\n      dup4\n        /* \"#utility.yul\":5774:5793   */\n      add\n        /* \"#utility.yul\":5765:5771   */\n      dup5\n        /* \"#utility.yul\":5721:5794   */\n      tag_146\n      jump\t// in\n    tag_240:\n        /* \"#utility.yul\":5058:5801   */\n      swap7\n      swap6\n      pop\n      pop\n      pop\n      pop\n      pop\n      pop\n      jump\t// out\n        /* \"#utility.yul\":5807:5924   */\n    tag_148:\n        /* \"#utility.yul\":5916:5917   */\n      0x00\n        /* \"#utility.yul\":5913:5914   */\n      dup1\n        /* \"#utility.yul\":5906:5918   */\n      revert\n        /* \"#utility.yul\":5930:6047   */\n    tag_149:\n        /* \"#utility.yul\":6039:6040   */\n      0x00\n        /* \"#utility.yul\":6036:6037   */\n      dup1\n        /* \"#utility.yul\":6029:6041   */\n      revert\n        /* \"#utility.yul\":6053:6233   */\n    tag_150:\n        /* \"#utility.yul\":6101:6178   */\n      0x4e487b7100000000000000000000000000000000000000000000000000000000\n        /* \"#utility.yul\":6098:6099   */\n      0x00\n        /* \"#utility.yul\":6091:6179   */\n      mstore\n        /* \"#utility.yul\":6198:6202   */\n      0x41\n        /* \"#utility.yul\":6195:6196   */\n      0x04\n        /* \"#utility.yul\":6188:6203   */\n      mstore\n        /* \"#utility.yul\":6222:6226   */\n      0x24\n        /* \"#utility.yul\":6219:6220   */\n      0x00\n        /* \"#utility.yul\":6212:6227   */\n      revert\n        /* \"#utility.yul\":6239:6520   */\n    tag_151:\n        /* \"#utility.yul\":6322:6349   */\n      tag_245\n        /* \"#utility.yul\":6344:6348   */\n      dup3\n        /* \"#utility.yul\":6322:6349   */\n      tag_138\n      jump\t// in\n    tag_245:\n        /* \"#utility.yul\":6314:6320   */\n      dup2\n        /* \"#utility.yul\":6310:6350   */\n      add\n        /* \"#utility.yul\":6452:6458   */\n      dup2\n        /* \"#utility.yul\":6440:6450   */\n      dup2\n        /* \"#utility.yul\":6437:6459   */\n      lt\n        /* \"#utility.yul\":6416:6434   */\n      0xffffffffffffffff\n        /* \"#utility.yul\":6404:6414   */\n      dup3\n        /* \"#utility.yul\":6401:6435   */\n      gt\n        /* \"#utility.yul\":6398:6460   */\n      or\n        /* \"#utility.yul\":6395:6483   */\n      iszero\n      tag_246\n      jumpi\n        /* \"#utility.yul\":6463:6481   */\n      tag_247\n      tag_150\n      jump\t// in\n    tag_247:\n        /* \"#utility.yul\":6395:6483   */\n    tag_246:\n        /* \"#utility.yul\":6503:6513   */\n      dup1\n        /* \"#utility.yul\":6499:6501   */\n      0x40\n        /* \"#utility.yul\":6492:6514   */\n      mstore\n        /* \"#utility.yul\":6282:6520   */\n      pop\n        /* \"#utility.yul\":6239:6520   */\n      pop\n      pop\n      jump\t// out\n        /* \"#utility.yul\":6526:6655   */\n    tag_152:\n        /* \"#utility.yul\":6560:6566   */\n      0x00\n        /* \"#utility.yul\":6587:6607   */\n      tag_249\n      tag_129\n      jump\t// in\n    tag_249:\n        /* \"#utility.yul\":6577:6607   */\n      swap1\n      pop\n        /* \"#utility.yul\":6616:6649   */\n      tag_250\n        /* \"#utility.yul\":6644:6648   */\n      dup3\n        /* \"#utility.yul\":6636:6642   */\n      dup3\n        /* \"#utility.yul\":6616:6649   */\n      tag_151\n      jump\t// in\n    tag_250:\n        /* \"#utility.yul\":6526:6655   */\n      swap2\n      swap1\n      pop\n      jump\t// out\n        /* \"#utility.yul\":6661:6969   */\n    tag_153:\n        /* \"#utility.yul\":6723:6727   */\n      0x00\n        /* \"#utility.yul\":6813:6831   */\n      0xffffffffffffffff\n        /* \"#utility.yul\":6805:6811   */\n      dup3\n        /* \"#utility.yul\":6802:6832   */\n      gt\n        /* \"#utility.yul\":6799:6855   */\n      iszero\n      tag_252\n      jumpi\n        /* \"#utility.yul\":6835:6853   */\n      tag_253\n      tag_150\n      jump\t// in\n    tag_253:\n        /* \"#utility.yul\":6799:6855   */\n    tag_252:\n        /* \"#utility.yul\":6873:6902   */\n      tag_254\n        /* \"#utility.yul\":6895:6901   */\n      dup3\n        /* \"#utility.yul\":6873:6902   */\n      tag_138\n      jump\t// in\n    tag_254:\n        /* \"#utility.yul\":6865:6902   */\n      swap1\n      pop\n        /* \"#utility.yul\":6957:6961   */\n      0x20\n        /* \"#utility.yul\":6951:6955   */\n      dup2\n        /* \"#utility.yul\":6947:6962   */\n      add\n        /* \"#utility.yul\":6939:6962   */\n      swap1\n      pop\n        /* \"#utility.yul\":6661:6969   */\n      swap2\n      swap1\n      pop\n      jump\t// out\n        /* \"#utility.yul\":6975:7129   */\n    tag_154:\n        /* \"#utility.yul\":7059:7065   */\n      dup3\n        /* \"#utility.yul\":7054:7057   */\n      dup2\n        /* \"#utility.yul\":7049:7052   */\n      dup4\n        /* \"#utility.yul\":7036:7066   */\n      calldatacopy\n        /* \"#utility.yul\":7121:7122   */\n      0x00\n        /* \"#utility.yul\":7112:7118   */\n      dup4\n        /* \"#utility.yul\":7107:7110   */\n      dup4\n        /* \"#utility.yul\":7103:7119   */\n      add\n        /* \"#utility.yul\":7096:7123   */\n      mstore\n        /* \"#utility.yul\":6975:7129   */\n      pop\n      pop\n      pop\n      jump\t// out\n        /* \"#utility.yul\":7135:7547   */\n    tag_155:\n        /* \"#utility.yul\":7213:7218   */\n      0x00\n        /* \"#utility.yul\":7238:7304   */\n      tag_257\n        /* \"#utility.yul\":7254:7303   */\n      tag_258\n        /* \"#utility.yul\":7296:7302   */\n      dup5\n        /* \"#utility.yul\":7254:7303   */\n      tag_153\n      jump\t// in\n    tag_258:\n        /* \"#utility.yul\":7238:7304   */\n      tag_152\n      jump\t// in\n    tag_257:\n        /* \"#utility.yul\":7229:7304   */\n      swap1\n      pop\n        /* \"#utility.yul\":7327:7333   */\n      dup3\n        /* \"#utility.yul\":7320:7325   */\n      dup2\n        /* \"#utility.yul\":7313:7334   */\n      mstore\n        /* \"#utility.yul\":7365:7369   */\n      0x20\n        /* \"#utility.yul\":7358:7363   */\n      dup2\n        /* \"#utility.yul\":7354:7370   */\n      add\n        /* \"#utility.yul\":7403:7406   */\n      dup5\n        /* \"#utility.yul\":7394:7400   */\n      dup5\n        /* \"#utility.yul\":7389:7392   */\n      dup5\n        /* \"#utility.yul\":7385:7401   */\n      add\n        /* \"#utility.yul\":7382:7407   */\n      gt\n        /* \"#utility.yul\":7379:7491   */\n      iszero\n      tag_259\n      jumpi\n        /* \"#utility.yul\":7410:7489   */\n      tag_260\n      tag_149\n      jump\t// in\n    tag_260:\n        /* \"#utility.yul\":7379:7491   */\n    tag_259:\n        /* \"#utility.yul\":7500:7541   */\n      tag_261\n        /* \"#utility.yul\":7534:7540   */\n      dup5\n        /* \"#utility.yul\":7529:7532   */\n      dup3\n        /* \"#utility.yul\":7524:7527   */\n      dup6\n        /* \"#utility.yul\":7500:7541   */\n      tag_154\n      jump\t// in\n    tag_261:\n        /* \"#utility.yul\":7219:7547   */\n      pop\n        /* \"#utility.yul\":7135:7547   */\n      swap4\n      swap3\n      pop\n      pop\n      pop\n      jump\t// out\n        /* \"#utility.yul\":7567:7907   */\n    tag_156:\n        /* \"#utility.yul\":7623:7628   */\n      0x00\n        /* \"#utility.yul\":7672:7675   */\n      dup3\n        /* \"#utility.yul\":7665:7669   */\n      0x1f\n        /* \"#utility.yul\":7657:7663   */\n      dup4\n        /* \"#utility.yul\":7653:7670   */\n      add\n        /* \"#utility.yul\":7649:7676   */\n      slt\n        /* \"#utility.yul\":7639:7761   */\n      tag_263\n      jumpi\n        /* \"#utility.yul\":7680:7759   */\n      tag_264\n      tag_148\n      jump\t// in\n    tag_264:\n        /* \"#utility.yul\":7639:7761   */\n    tag_263:\n        /* \"#utility.yul\":7797:7803   */\n      dup2\n        /* \"#utility.yul\":7784:7804   */\n      calldataload\n        /* \"#utility.yul\":7822:7901   */\n      tag_265\n        /* \"#utility.yul\":7897:7900   */\n      dup5\n        /* \"#utility.yul\":7889:7895   */\n      dup3\n        /* \"#utility.yul\":7882:7886   */\n      0x20\n        /* \"#utility.yul\":7874:7880   */\n      dup7\n        /* \"#utility.yul\":7870:7887   */\n      add\n        /* \"#utility.yul\":7822:7901   */\n      tag_155\n      jump\t// in\n    tag_265:\n        /* \"#utility.yul\":7813:7901   */\n      swap2\n      pop\n        /* \"#utility.yul\":7629:7907   */\n      pop\n        /* \"#utility.yul\":7567:7907   */\n      swap3\n      swap2\n      pop\n      pop\n      jump\t// out\n        /* \"#utility.yul\":7913:8712   */\n    tag_66:\n        /* \"#utility.yul\":8000:8006   */\n      0x00\n        /* \"#utility.yul\":8008:8014   */\n      dup1\n        /* \"#utility.yul\":8016:8022   */\n      0x00\n        /* \"#utility.yul\":8065:8067   */\n      0x60\n        /* \"#utility.yul\":8053:8062   */\n      dup5\n        /* \"#utility.yul\":8044:8051   */\n      dup7\n        /* \"#utility.yul\":8040:8063   */\n      sub\n        /* \"#utility.yul\":8036:8068   */\n      slt\n        /* \"#utility.yul\":8033:8152   */\n      iszero\n      tag_267\n      jumpi\n        /* \"#utility.yul\":8071:8150   */\n      tag_268\n      tag_130\n      jump\t// in\n    tag_268:\n        /* \"#utility.yul\":8033:8152   */\n    tag_267:\n        /* \"#utility.yul\":8219:8220   */\n      0x00\n        /* \"#utility.yul\":8208:8217   */\n      dup5\n        /* \"#utility.yul\":8204:8221   */\n      add\n        /* \"#utility.yul\":8191:8222   */\n      calldataload\n        /* \"#utility.yul\":8249:8267   */\n      0xffffffffffffffff\n        /* \"#utility.yul\":8241:8247   */\n      dup2\n        /* \"#utility.yul\":8238:8268   */\n      gt\n        /* \"#utility.yul\":8235:8352   */\n      iszero\n      tag_269\n      jumpi\n        /* \"#utility.yul\":8271:8350   */\n      tag_270\n      tag_131\n      jump\t// in\n    tag_270:\n        /* \"#utility.yul\":8235:8352   */\n    tag_269:\n        /* \"#utility.yul\":8376:8439   */\n      tag_271\n        /* \"#utility.yul\":8431:8438   */\n      dup7\n        /* \"#utility.yul\":8422:8428   */\n      dup3\n        /* \"#utility.yul\":8411:8420   */\n      dup8\n        /* \"#utility.yul\":8407:8429   */\n      add\n        /* \"#utility.yul\":8376:8439   */\n      tag_156\n      jump\t// in\n    tag_271:\n        /* \"#utility.yul\":8366:8439   */\n      swap4\n      pop\n        /* \"#utility.yul\":8162:8449   */\n      pop\n        /* \"#utility.yul\":8488:8490   */\n      0x20\n        /* \"#utility.yul\":8514:8567   */\n      tag_272\n        /* \"#utility.yul\":8559:8566   */\n      dup7\n        /* \"#utility.yul\":8550:8556   */\n      dup3\n        /* \"#utility.yul\":8539:8548   */\n      dup8\n        /* \"#utility.yul\":8535:8557   */\n      add\n        /* \"#utility.yul\":8514:8567   */\n      tag_134\n      jump\t// in\n    tag_272:\n        /* \"#utility.yul\":8504:8567   */\n      swap3\n      pop\n        /* \"#utility.yul\":8459:8577   */\n      pop\n        /* \"#utility.yul\":8616:8618   */\n      0x40\n        /* \"#utility.yul\":8642:8695   */\n      tag_273\n        /* \"#utility.yul\":8687:8694   */\n      dup7\n        /* \"#utility.yul\":8678:8684   */\n      dup3\n        /* \"#utility.yul\":8667:8676   */\n      dup8\n        /* \"#utility.yul\":8663:8685   */\n      add\n        /* \"#utility.yul\":8642:8695   */\n      tag_143\n      jump\t// in\n    tag_273:\n        /* \"#utility.yul\":8632:8695   */\n      swap2\n      pop\n        /* \"#utility.yul\":8587:8705   */\n      pop\n        /* \"#utility.yul\":7913:8712   */\n      swap3\n      pop\n      swap3\n      pop\n      swap3\n      jump\t// out\n        /* \"#utility.yul\":8718:8898   */\n    tag_83:\n        /* \"#utility.yul\":8766:8843   */\n      0x4e487b7100000000000000000000000000000000000000000000000000000000\n        /* \"#utility.yul\":8763:8764   */\n      0x00\n        /* \"#utility.yul\":8756:8844   */\n      mstore\n        /* \"#utility.yul\":8863:8867   */\n      0x32\n        /* \"#utility.yul\":8860:8861   */\n      0x04\n        /* \"#utility.yul\":8853:8868   */\n      mstore\n        /* \"#utility.yul\":8887:8891   */\n      0x24\n        /* \"#utility.yul\":8884:8885   */\n      0x00\n        /* \"#utility.yul\":8877:8892   */\n      revert\n        /* \"#utility.yul\":8904:9084   */\n    tag_157:\n        /* \"#utility.yul\":8952:9029   */\n      0x4e487b7100000000000000000000000000000000000000000000000000000000\n        /* \"#utility.yul\":8949:8950   */\n      0x00\n        /* \"#utility.yul\":8942:9030   */\n      mstore\n        /* \"#utility.yul\":9049:9053   */\n      0x12\n        /* \"#utility.yul\":9046:9047   */\n      0x04\n        /* \"#utility.yul\":9039:9054   */\n      mstore\n        /* \"#utility.yul\":9073:9077   */\n      0x24\n        /* \"#utility.yul\":9070:9071   */\n      0x00\n        /* \"#utility.yul\":9063:9078   */\n      revert\n        /* \"#utility.yul\":9090:9270   */\n    tag_158:\n        /* \"#utility.yul\":9138:9215   */\n      0x4e487b7100000000000000000000000000000000000000000000000000000000\n        /* \"#utility.yul\":9135:9136   */\n      0x00\n        /* \"#utility.yul\":9128:9216   */\n      mstore\n        /* \"#utility.yul\":9235:9239   */\n      0x11\n        /* \"#utility.yul\":9232:9233   */\n      0x04\n        /* \"#utility.yul\":9225:9240   */\n      mstore\n        /* \"#utility.yul\":9259:9263   */\n      0x24\n        /* \"#utility.yul\":9256:9257   */\n      0x00\n        /* \"#utility.yul\":9249:9264   */\n      revert\n        /* \"#utility.yul\":9276:9461   */\n    tag_86:\n        /* \"#utility.yul\":9316:9317   */\n      0x00\n        /* \"#utility.yul\":9333:9353   */\n      tag_278\n        /* \"#utility.yul\":9351:9352   */\n      dup3\n        /* \"#utility.yul\":9333:9353   */\n      tag_132\n      jump\t// in\n    tag_278:\n        /* \"#utility.yul\":9328:9353   */\n      swap2\n      pop\n        /* \"#utility.yul\":9367:9387   */\n      tag_279\n        /* \"#utility.yul\":9385:9386   */\n      dup4\n        /* \"#utility.yul\":9367:9387   */\n      tag_132\n      jump\t// in\n    tag_279:\n        /* \"#utility.yul\":9362:9387   */\n      swap3\n      pop\n        /* \"#utility.yul\":9406:9407   */\n      dup3\n        /* \"#utility.yul\":9396:9431   */\n      tag_280\n      jumpi\n        /* \"#utility.yul\":9411:9429   */\n      tag_281\n      tag_157\n      jump\t// in\n    tag_281:\n        /* \"#utility.yul\":9396:9431   */\n    tag_280:\n        /* \"#utility.yul\":9453:9454   */\n      dup3\n        /* \"#utility.yul\":9450:9451   */\n      dup3\n        /* \"#utility.yul\":9446:9455   */\n      div\n        /* \"#utility.yul\":9441:9455   */\n      swap1\n      pop\n        /* \"#utility.yul\":9276:9461   */\n      swap3\n      swap2\n      pop\n      pop\n      jump\t// out\n        /* \"#utility.yul\":9467:9647   */\n    tag_159:\n        /* \"#utility.yul\":9515:9592   */\n      0x4e487b7100000000000000000000000000000000000000000000000000000000\n        /* \"#utility.yul\":9512:9513   */\n      0x00\n        /* \"#utility.yul\":9505:9593   */\n      mstore\n        /* \"#utility.yul\":9612:9616   */\n      0x22\n        /* \"#utility.yul\":9609:9610   */\n      0x04\n        /* \"#utility.yul\":9602:9617   */\n      mstore\n        /* \"#utility.yul\":9636:9640   */\n      0x24\n        /* \"#utility.yul\":9633:9634   */\n      0x00\n        /* \"#utility.yul\":9626:9641   */\n      revert\n        /* \"#utility.yul\":9653:9973   */\n    tag_92:\n        /* \"#utility.yul\":9697:9703   */\n      0x00\n        /* \"#utility.yul\":9734:9735   */\n      0x02\n        /* \"#utility.yul\":9728:9732   */\n      dup3\n        /* \"#utility.yul\":9724:9736   */\n      div\n        /* \"#utility.yul\":9714:9736   */\n      swap1\n      pop\n        /* \"#utility.yul\":9781:9782   */\n      0x01\n        /* \"#utility.yul\":9775:9779   */\n      dup3\n        /* \"#utility.yul\":9771:9783   */\n      and\n        /* \"#utility.yul\":9802:9820   */\n      dup1\n        /* \"#utility.yul\":9792:9873   */\n      tag_284\n      jumpi\n        /* \"#utility.yul\":9858:9862   */\n      0x7f\n        /* \"#utility.yul\":9850:9856   */\n      dup3\n        /* \"#utility.yul\":9846:9863   */\n      and\n        /* \"#utility.yul\":9836:9863   */\n      swap2\n      pop\n        /* \"#utility.yul\":9792:9873   */\n    tag_284:\n        /* \"#utility.yul\":9920:9922   */\n      0x20\n        /* \"#utility.yul\":9912:9918   */\n      dup3\n        /* \"#utility.yul\":9909:9923   */\n      lt\n        /* \"#utility.yul\":9889:9907   */\n      dup2\n        /* \"#utility.yul\":9886:9924   */\n      sub\n        /* \"#utility.yul\":9883:9967   */\n      tag_285\n      jumpi\n        /* \"#utility.yul\":9939:9957   */\n      tag_286\n      tag_159\n      jump\t// in\n    tag_286:\n        /* \"#utility.yul\":9883:9967   */\n    tag_285:\n        /* \"#utility.yul\":9704:9973   */\n      pop\n        /* \"#utility.yul\":9653:9973   */\n      swap2\n      swap1\n      pop\n      jump\t// out\n        /* \"#utility.yul\":9979:10120   */\n    tag_160:\n        /* \"#utility.yul\":10028:10032   */\n      0x00\n        /* \"#utility.yul\":10051:10054   */\n      dup2\n        /* \"#utility.yul\":10043:10054   */\n      swap1\n      pop\n        /* \"#utility.yul\":10074:10077   */\n      dup2\n        /* \"#utility.yul\":10071:10072   */\n      0x00\n        /* \"#utility.yul\":10064:10078   */\n      mstore\n        /* \"#utility.yul\":10108:10112   */\n      0x20\n        /* \"#utility.yul\":10105:10106   */\n      0x00\n        /* \"#utility.yul\":10095:10113   */\n      keccak256\n        /* \"#utility.yul\":10087:10113   */\n      swap1\n      pop\n        /* \"#utility.yul\":9979:10120   */\n      swap2\n      swap1\n      pop\n      jump\t// out\n        /* \"#utility.yul\":10126:10219   */\n    tag_161:\n        /* \"#utility.yul\":10163:10169   */\n      0x00\n        /* \"#utility.yul\":10210:10212   */\n      0x20\n        /* \"#utility.yul\":10205:10207   */\n      0x1f\n        /* \"#utility.yul\":10198:10203   */\n      dup4\n        /* \"#utility.yul\":10194:10208   */\n      add\n        /* \"#utility.yul\":10190:10213   */\n      div\n        /* \"#utility.yul\":10180:10213   */\n      swap1\n      pop\n        /* \"#utility.yul\":10126:10219   */\n      swap2\n      swap1\n      pop\n      jump\t// out\n        /* \"#utility.yul\":10225:10332   */\n    tag_162:\n        /* \"#utility.yul\":10269:10277   */\n      0x00\n        /* \"#utility.yul\":10319:10324   */\n      dup3\n        /* \"#utility.yul\":10313:10317   */\n      dup3\n        /* \"#utility.yul\":10309:10325   */\n      shl\n        /* \"#utility.yul\":10288:10325   */\n      swap1\n      pop\n        /* \"#utility.yul\":10225:10332   */\n      swap3\n      swap2\n      pop\n      pop\n      jump\t// out\n        /* \"#utility.yul\":10338:10731   */\n    tag_163:\n        /* \"#utility.yul\":10407:10413   */\n      0x00\n        /* \"#utility.yul\":10457:10458   */\n      0x08\n        /* \"#utility.yul\":10445:10455   */\n      dup4\n        /* \"#utility.yul\":10441:10459   */\n      mul\n        /* \"#utility.yul\":10480:10577   */\n      tag_291\n        /* \"#utility.yul\":10510:10576   */\n      0xffffffffffffffffffffffffffffffffffffffffffffffffffffffffffffffff\n        /* \"#utility.yul\":10499:10508   */\n      dup3\n        /* \"#utility.yul\":10480:10577   */\n      tag_162\n      jump\t// in\n    tag_291:\n        /* \"#utility.yul\":10598:10637   */\n      tag_292\n        /* \"#utility.yul\":10628:10636   */\n      dup7\n        /* \"#utility.yul\":10617:10626   */\n      dup4\n        /* \"#utility.yul\":10598:10637   */\n      tag_162\n      jump\t// in\n    tag_292:\n        /* \"#utility.yul\":10586:10637   */\n      swap6\n      pop\n        /* \"#utility.yul\":10670:10674   */\n      dup1\n        /* \"#utility.yul\":10666:10675   */\n      not\n        /* \"#utility.yul\":10659:10664   */\n      dup5\n        /* \"#utility.yul\":10655:10676   */\n      and\n        /* \"#utility.yul\":10646:10676   */\n      swap4\n      pop\n        /* \"#utility.yul\":10719:10723   */\n      dup1\n        /* \"#utility.yul\":10709:10717   */\n      dup7\n        /* \"#utility.yul\":10705:10724   */\n      and\n        /* \"#utility.yul\":10698:10703   */\n      dup5\n        /* \"#utility.yul\":10695:10725   */\n      or\n        /* \"#utility.yul\":10685:10725   */\n      swap3\n      pop\n        /* \"#utility.yul\":10414:10731   */\n      pop\n      pop\n        /* \"#utility.yul\":10338:10731   */\n      swap4\n      swap3\n      pop\n      pop\n      pop\n      jump\t// out\n        /* \"#utility.yul\":10737:10797   */\n    tag_164:\n        /* \"#utility.yul\":10765:10768   */\n      0x00\n        /* \"#utility.yul\":10786:10791   */\n      dup2\n        /* \"#utility.yul\":10779:10791   */\n      swap1\n      pop\n        /* \"#utility.yul\":10737:10797   */\n      swap2\n      swap1\n      pop\n      jump\t// out\n        /* \"#utility.yul\":10803:10945   */\n    tag_165:\n        /* \"#utility.yul\":10853:10862   */\n      0x00\n        /* \"#utility.yul\":10886:10939   */\n      tag_295\n        /* \"#utility.yul\":10904:10938   */\n      tag_296\n        /* \"#utility.yul\":10913:10937   */\n      tag_297\n        /* \"#utility.yul\":10931:10936   */\n      dup5\n        /* \"#utility.yul\":10913:10937   */\n      tag_132\n      jump\t// in\n    tag_297:\n        /* \"#utility.yul\":10904:10938   */\n      tag_164\n      jump\t// in\n    tag_296:\n        /* \"#utility.yul\":10886:10939   */\n      tag_132\n      jump\t// in\n    tag_295:\n        /* \"#utility.yul\":10873:10939   */\n      swap1\n      pop\n        /* \"#utility.yul\":10803:10945   */\n      swap2\n      swap1\n      pop\n      jump\t// out\n        /* \"#utility.yul\":10951:11026   */\n    tag_166:\n        /* \"#utility.yul\":10994:10997   */\n      0x00\n        /* \"#utility.yul\":11015:11020   */\n      dup2\n        /* \"#utility.yul\":11008:11020   */\n      swap1\n      pop\n        /* \"#utility.yul\":10951:11026   */\n      swap2\n      swap1\n      pop\n      jump\t// out\n        /* \"#utility.yul\":11032:11301   */\n    tag_167:\n        /* \"#utility.yul\":11142:11181   */\n      tag_300\n        /* \"#utility.yul\":11173:11180   */\n      dup4\n        /* \"#utility.yul\":11142:11181   */\n      tag_165\n      jump\t// in\n    tag_300:\n        /* \"#utility.yul\":11203:11294   */\n      tag_301\n        /* \"#utility.yul\":11252:11293   */\n      tag_302\n        /* \"#utility.yul\":11276:11292   */\n      dup3\n        /* \"#utility.yul\":11252:11293   */\n      tag_166\n      jump\t// in\n    tag_302:\n        /* \"#utility.yul\":11244:11250   */\n      dup5\n        /* \"#utility.yul\":11237:11241   */\n      dup5\n        /* \"#utility.yul\":11231:11242   */\n      sload\n        /* \"#utility.yul\":11203:11294   */\n      tag_163\n      jump\t// in\n    tag_301:\n        /* \"#utility.yul\":11197:11201   */\n      dup3\n        /* \"#utility.yul\":11190:11295   */\n      sstore\n        /* \"#utility.yul\":11108:11301   */\n      pop\n        /* \"#utility.yul\":11032:11301   */\n      pop\n      pop\n      pop\n      jump\t// out\n        /* \"#utility.yul\":11307:11380   */\n    tag_168:\n        /* \"#utility.yul\":11352:11355   */\n      0x00\n        /* \"#utility.yul\":11307:11380   */\n      swap1\n      jump\t// out\n        /* \"#utility.yul\":11386:11575   */\n    tag_169:\n        /* \"#utility.yul\":11463:11495   */\n      tag_305\n      tag_168\n      jump\t// in\n    tag_305:\n        /* \"#utility.yul\":11504:11569   */\n      tag_306\n        /* \"#utility.yul\":11562:11568   */\n      dup2\n        /* \"#utility.yul\":11554:11560   */\n      dup5\n        /* \"#utility.yul\":11548:11552   */\n      dup5\n        /* \"#utility.yul\":11504:11569   */\n      tag_167\n      jump\t// in\n    tag_306:\n        /* \"#utility.yul\":11439:11575   */\n      pop\n        /* \"#utility.yul\":11386:11575   */\n      pop\n      pop\n      jump\t// out\n        /* \"#utility.yul\":11581:11767   */\n    tag_170:\n        /* \"#utility.yul\":11641:11761   */\n    tag_308:\n        /* \"#utility.yul\":11658:11661   */\n      dup2\n        /* \"#utility.yul\":11651:11656   */\n      dup2\n        /* \"#utility.yul\":11648:11662   */\n      lt\n        /* \"#utility.yul\":11641:11761   */\n      iszero\n      tag_310\n      jumpi\n        /* \"#utility.yul\":11712:11751   */\n      tag_311\n        /* \"#utility.yul\":11749:11750   */\n      0x00\n        /* \"#utility.yul\":11742:11747   */\n      dup3\n        /* \"#utility.yul\":11712:11751   */\n      tag_169\n      jump\t// in\n    tag_311:\n        /* \"#utility.yul\":11685:11686   */\n      0x01\n        /* \"#utility.yul\":11678:11683   */\n      dup2\n        /* \"#utility.yul\":11674:11687   */\n      add\n        /* \"#utility.yul\":11665:11687   */\n      swap1\n      pop\n        /* \"#utility.yul\":11641:11761   */\n      jump(tag_308)\n    tag_310:\n        /* \"#utility.yul\":11581:11767   */\n      pop\n      pop\n      jump\t// out\n        /* \"#utility.yul\":11773:12316   */\n    tag_171:\n        /* \"#utility.yul\":11874:11876   */\n      0x1f\n        /* \"#utility.yul\":11869:11872   */\n      dup3\n        /* \"#utility.yul\":11866:11877   */\n      gt\n        /* \"#utility.yul\":11863:12309   */\n      iszero\n      tag_313\n      jumpi\n        /* \"#utility.yul\":11908:11946   */\n      tag_314\n        /* \"#utility.yul\":11940:11945   */\n      dup2\n        /* \"#utility.yul\":11908:11946   */\n      tag_160\n      jump\t// in\n    tag_314:\n        /* \"#utility.yul\":11992:12021   */\n      tag_315\n        /* \"#utility.yul\":12010:12020   */\n      dup5\n        /* \"#utility.yul\":11992:12021   */\n      tag_161\n      jump\t// in\n    tag_315:\n        /* \"#utility.yul\":11982:11990   */\n      dup2\n        /* \"#utility.yul\":11978:12022   */\n      add\n        /* \"#utility.yul\":12175:12177   */\n      0x20\n        /* \"#utility.yul\":12163:12173   */\n      dup6\n        /* \"#utility.yul\":12160:12178   */\n      lt\n        /* \"#utility.yul\":12157:12206   */\n      iszero\n      tag_316\n      jumpi\n        /* \"#utility.yul\":12196:12204   */\n      dup2\n        /* \"#utility.yul\":12181:12204   */\n      swap1\n      pop\n        /* \"#utility.yul\":12157:12206   */\n    tag_316:\n        /* \"#utility.yul\":12219:12299   */\n      tag_317\n        /* \"#utility.yul\":12275:12297   */\n      tag_318\n        /* \"#utility.yul\":12293:12296   */\n      dup6\n        /* \"#utility.yul\":12275:12297   */\n      tag_161\n      jump\t// in\n    tag_318:\n        /* \"#utility.yul\":12265:12273   */\n      dup4\n        /* \"#utility.yul\":12261:12298   */\n      add\n        /* \"#utility.yul\":12248:12259   */\n      dup3\n        /* \"#utility.yul\":12219:12299   */\n      tag_170\n      jump\t// in\n    tag_317:\n        /* \"#utility.yul\":11878:12309   */\n      pop\n      pop\n        /* \"#utility.yul\":11863:12309   */\n    tag_313:\n        /* \"#utility.yul\":11773:12316   */\n      pop\n      pop\n      pop\n      jump\t// out\n        /* \"#utility.yul\":12322:12439   */\n    tag_172:\n        /* \"#utility.yul\":12376:12384   */\n      0x00\n        /* \"#utility.yul\":12426:12431   */\n      dup3\n        /* \"#utility.yul\":12420:12424   */\n      dup3\n        /* \"#utility.yul\":12416:12432   */\n      shr\n        /* \"#utility.yul\":12395:12432   */\n      swap1\n      pop\n        /* \"#utility.yul\":12322:12439   */\n      swap3\n      swap2\n      pop\n      pop\n      jump\t// out\n        /* \"#utility.yul\":12445:12614   */\n    tag_173:\n        /* \"#utility.yul\":12489:12495   */\n      0x00\n        /* \"#utility.yul\":12522:12573   */\n      tag_321\n        /* \"#utility.yul\":12570:12571   */\n      0x00\n        /* \"#utility.yul\":12566:12572   */\n      not\n        /* \"#utility.yul\":12558:12563   */\n      dup5\n        /* \"#utility.yul\":12555:12556   */\n      0x08\n        /* \"#utility.yul\":12551:12564   */\n      mul\n        /* \"#utility.yul\":12522:12573   */\n      tag_172\n      jump\t// in\n    tag_321:\n        /* \"#utility.yul\":12518:12574   */\n      not\n        /* \"#utility.yul\":12603:12607   */\n      dup1\n        /* \"#utility.yul\":12597:12601   */\n      dup4\n        /* \"#utility.yul\":12593:12608   */\n      and\n        /* \"#utility.yul\":12583:12608   */\n      swap2\n      pop\n        /* \"#utility.yul\":12496:12614   */\n      pop\n        /* \"#utility.yul\":12445:12614   */\n      swap3\n      swap2\n      pop\n      pop\n      jump\t// out\n        /* \"#utility.yul\":12619:12914   */\n    tag_174:\n        /* \"#utility.yul\":12695:12699   */\n      0x00\n        /* \"#utility.yul\":12841:12870   */\n      tag_323\n        /* \"#utility.yul\":12866:12869   */\n      dup4\n        /* \"#utility.yul\":12860:12864   */\n      dup4\n        /* \"#utility.yul\":12841:12870   */\n      tag_173\n      jump\t// in\n    tag_323:\n        /* \"#utility.yul\":12833:12870   */\n      swap2\n      pop\n        /* \"#utility.yul\":12903:12906   */\n      dup3\n        /* \"#utility.yul\":12900:12901   */\n      0x02\n        /* \"#utility.yul\":12896:12907   */\n      mul\n        /* \"#utility.yul\":12890:12894   */\n      dup3\n        /* \"#utility.yul\":12887:12908   */\n      or\n        /* \"#utility.yul\":12879:12908   */\n      swap1\n      pop\n        /* \"#utility.yul\":12619:12914   */\n      swap3\n      swap2\n      pop\n      pop\n      jump\t// out\n        /* \"#utility.yul\":12919:14314   */\n    tag_116:\n        /* \"#utility.yul\":13036:13073   */\n      tag_325\n        /* \"#utility.yul\":13069:13072   */\n      dup3\n        /* \"#utility.yul\":13036:13073   */\n      tag_135\n      jump\t// in\n    tag_325:\n        /* \"#utility.yul\":13138:13156   */\n      0xffffffffffffffff\n        /* \"#utility.yul\":13130:13136   */\n      dup2\n        /* \"#utility.yul\":13127:13157   */\n      gt\n        /* \"#utility.yul\":13124:13180   */\n      iszero\n      tag_326\n      jumpi\n        /* \"#utility.yul\":13160:13178   */\n      tag_327\n      tag_150\n      jump\t// in\n    tag_327:\n        /* \"#utility.yul\":13124:13180   */\n    tag_326:\n        /* \"#utility.yul\":13204:13242   */\n      tag_328\n        /* \"#utility.yul\":13236:13240   */\n      dup3\n        /* \"#utility.yul\":13230:13241   */\n      sload\n        /* \"#utility.yul\":13204:13242   */\n      tag_92\n      jump\t// in\n    tag_328:\n        /* \"#utility.yul\":13289:13356   */\n      tag_329\n        /* \"#utility.yul\":13349:13355   */\n      dup3\n        /* \"#utility.yul\":13341:13347   */\n      dup3\n        /* \"#utility.yul\":13335:13339   */\n      dup6\n        /* \"#utility.yul\":13289:13356   */\n      tag_171\n      jump\t// in\n    tag_329:\n        /* \"#utility.yul\":13383:13384   */\n      0x00\n        /* \"#utility.yul\":13407:13411   */\n      0x20\n        /* \"#utility.yul\":13394:13411   */\n      swap1\n      pop\n        /* \"#utility.yul\":13439:13441   */\n      0x1f\n        /* \"#utility.yul\":13431:13437   */\n      dup4\n        /* \"#utility.yul\":13428:13442   */\n      gt\n        /* \"#utility.yul\":13456:13457   */\n      0x01\n        /* \"#utility.yul\":13451:14069   */\n      dup2\n      eq\n      tag_331\n      jumpi\n        /* \"#utility.yul\":14113:14114   */\n      0x00\n        /* \"#utility.yul\":14130:14136   */\n      dup5\n        /* \"#utility.yul\":14127:14204   */\n      iszero\n      tag_332\n      jumpi\n        /* \"#utility.yul\":14179:14188   */\n      dup3\n        /* \"#utility.yul\":14174:14177   */\n      dup8\n        /* \"#utility.yul\":14170:14189   */\n      add\n        /* \"#utility.yul\":14164:14190   */\n      mload\n        /* \"#utility.yul\":14155:14190   */\n      swap1\n      pop\n        /* \"#utility.yul\":14127:14204   */\n    tag_332:\n        /* \"#utility.yul\":14230:14297   */\n      tag_333\n        /* \"#utility.yul\":14290:14296   */\n      dup6\n        /* \"#utility.yul\":14283:14288   */\n      dup3\n        /* \"#utility.yul\":14230:14297   */\n      tag_174\n      jump\t// in\n    tag_333:\n        /* \"#utility.yul\":14224:14228   */\n      dup7\n        /* \"#utility.yul\":14217:14298   */\n      sstore\n        /* \"#utility.yul\":14086:14308   */\n      pop\n        /* \"#utility.yul\":13421:14308   */\n      jump(tag_330)\n        /* \"#utility.yul\":13451:14069   */\n    tag_331:\n        /* \"#utility.yul\":13503:13507   */\n      0x1f\n        /* \"#utility.yul\":13499:13508   */\n      not\n        /* \"#utility.yul\":13491:13497   */\n      dup5\n        /* \"#utility.yul\":13487:13509   */\n      and\n        /* \"#utility.yul\":13537:13574   */\n      tag_334\n        /* \"#utility.yul\":13569:13573   */\n      dup7\n        /* \"#utility.yul\":13537:13574   */\n      tag_160\n      jump\t// in\n    tag_334:\n        /* \"#utility.yul\":13596:13597   */\n      0x00\n        /* \"#utility.yul\":13610:13818   */\n    tag_335:\n        /* \"#utility.yul\":13624:13631   */\n      dup3\n        /* \"#utility.yul\":13621:13622   */\n      dup2\n        /* \"#utility.yul\":13618:13632   */\n      lt\n        /* \"#utility.yul\":13610:13818   */\n      iszero\n      tag_337\n      jumpi\n        /* \"#utility.yul\":13703:13712   */\n      dup5\n        /* \"#utility.yul\":13698:13701   */\n      dup10\n        /* \"#utility.yul\":13694:13713   */\n      add\n        /* \"#utility.yul\":13688:13714   */\n      mload\n        /* \"#utility.yul\":13680:13686   */\n      dup3\n        /* \"#utility.yul\":13673:13715   */\n      sstore\n        /* \"#utility.yul\":13754:13755   */\n      0x01\n        /* \"#utility.yul\":13746:13752   */\n      dup3\n        /* \"#utility.yul\":13742:13756   */\n      add\n        /* \"#utility.yul\":13732:13756   */\n      swap2\n      pop\n        /* \"#utility.yul\":13801:13803   */\n      0x20\n        /* \"#utility.yul\":13790:13799   */\n      dup6\n        /* \"#utility.yul\":13786:13804   */\n      add\n        /* \"#utility.yul\":13773:13804   */\n      swap5\n      pop\n        /* \"#utility.yul\":13647:13651   */\n      0x20\n        /* \"#utility.yul\":13644:13645   */\n      dup2\n        /* \"#utility.yul\":13640:13652   */\n      add\n        /* \"#utility.yul\":13635:13652   */\n      swap1\n      pop\n        /* \"#utility.yul\":13610:13818   */\n      jump(tag_335)\n    tag_337:\n        /* \"#utility.yul\":13846:13852   */\n      dup7\n        /* \"#utility.yul\":13837:13844   */\n      dup4\n        /* \"#utility.yul\":13834:13853   */\n      lt\n        /* \"#utility.yul\":13831:14010   */\n      iszero\n      tag_338\n      jumpi\n        /* \"#utility.yul\":13904:13913   */\n      dup5\n        /* \"#utility.yul\":13899:13902   */\n      dup10\n        /* \"#utility.yul\":13895:13914   */\n      add\n        /* \"#utility.yul\":13889:13915   */\n      mload\n        /* \"#utility.yul\":13947:13995   */\n      tag_339\n        /* \"#utility.yul\":13989:13993   */\n      0x1f\n        /* \"#utility.yul\":13981:13987   */\n      dup10\n        /* \"#utility.yul\":13977:13994   */\n      and\n        /* \"#utility.yul\":13966:13975   */\n      dup3\n        /* \"#utility.yul\":13947:13995   */\n      tag_173\n      jump\t// in\n    tag_339:\n        /* \"#utility.yul\":13939:13945   */\n      dup4\n        /* \"#utility.yul\":13932:13996   */\n      sstore\n        /* \"#utility.yul\":13854:14010   */\n      pop\n        /* \"#utility.yul\":13831:14010   */\n    tag_338:\n        /* \"#utility.yul\":14056:14057   */\n      0x01\n        /* \"#utility.yul\":14052:14053   */\n      0x02\n        /* \"#utility.yul\":14044:14050   */\n      dup9\n        /* \"#utility.yul\":14040:14054   */\n      mul\n        /* \"#utility.yul\":14036:14058   */\n      add\n        /* \"#utility.yul\":14030:14034   */\n      dup9\n        /* \"#utility.yul\":14023:14059   */\n      sstore\n        /* \"#utility.yul\":13458:14069   */\n      pop\n      pop\n      pop\n        /* \"#utility.yul\":13421:14308   */\n    tag_330:\n      pop\n        /* \"#utility.yul\":13011:14314   */\n      pop\n      pop\n      pop\n        /* \"#utility.yul\":12919:14314   */\n      pop\n      pop\n      jump\t// out\n        /* \"#utility.yul\":14320:14553   */\n    tag_121:\n        /* \"#utility.yul\":14359:14362   */\n      0x00\n        /* \"#utility.yul\":14382:14406   */\n      tag_341\n        /* \"#utility.yul\":14400:14405   */\n      dup3\n        /* \"#utility.yul\":14382:14406   */\n      tag_132\n      jump\t// in\n    tag_341:\n        /* \"#utility.yul\":14373:14406   */\n      swap2\n      pop\n        /* \"#utility.yul\":14428:14494   */\n      0xffffffffffffffffffffffffffffffffffffffffffffffffffffffffffffffff\n        /* \"#utility.yul\":14421:14426   */\n      dup3\n        /* \"#utility.yul\":14418:14495   */\n      sub\n        /* \"#utility.yul\":14415:14518   */\n      tag_342\n      jumpi\n        /* \"#utility.yul\":14498:14516   */\n      tag_343\n      tag_158\n      jump\t// in\n    tag_343:\n        /* \"#utility.yul\":14415:14518   */\n    tag_342:\n        /* \"#utility.yul\":14545:14546   */\n      0x01\n        /* \"#utility.yul\":14538:14543   */\n      dup3\n        /* \"#utility.yul\":14534:14547   */\n      add\n        /* \"#utility.yul\":14527:14547   */\n      swap1\n      pop\n        /* \"#utility.yul\":14320:14553   */\n      swap2\n      swap1\n      pop\n      jump\t// out\n\n    auxdata: 0xa2646970667358221220991ba1579401246b8d12a92d6550759179bf591e7f7c103aaeb78bc99342e9f264736f6c634300080f0033\n}\n","bytecode":{"linkReferences":{},"object":"60806040523480156200001157600080fd5b50604051620019b3380380620019b38339818101604052810190620000379190620002ea565b80600160006101000a81548173ffffffffffffffffffffffffffffffffffffffff021916908373ffffffffffffffffffffffffffffffffffffffff160217905550836002819055508260039081620000909190620005db565b508160049081620000a29190620005db565b5050505050620006c2565b6000604051905090565b600080fd5b600080fd5b6000819050919050565b620000d681620000c1565b8114620000e257600080fd5b50565b600081519050620000f681620000cb565b92915050565b600080fd5b600080fd5b6000601f19601f8301169050919050565b7f4e487b7100000000000000000000000000000000000000000000000000000000600052604160045260246000fd5b620001518262000106565b810181811067ffffffffffffffff8211171562000173576200017262000117565b5b80604052505050565b600062000188620000ad565b905062000196828262000146565b919050565b600067ffffffffffffffff821115620001b957620001b862000117565b5b620001c48262000106565b9050602081019050919050565b60005b83811015620001f1578082015181840152602081019050620001d4565b8381111562000201576000848401525b50505050565b60006200021e62000218846200019b565b6200017c565b9050828152602081018484840111156200023d576200023c62000101565b5b6200024a848285620001d1565b509392505050565b600082601f8301126200026a5762000269620000fc565b5b81516200027c84826020860162000207565b91505092915050565b600073ffffffffffffffffffffffffffffffffffffffff82169050919050565b6000620002b28262000285565b9050919050565b620002c481620002a5565b8114620002d057600080fd5b50565b600081519050620002e481620002b9565b92915050565b60008060008060808587031215620003075762000306620000b7565b5b60006200031787828801620000e5565b945050602085015167ffffffffffffffff8111156200033b576200033a620000bc565b5b620003498782880162000252565b935050604085015167ffffffffffffffff8111156200036d576200036c620000bc565b5b6200037b8782880162000252565b92505060606200038e87828801620002d3565b91505092959194509250565b600081519050919050565b7f4e487b7100000000000000000000000000000000000000000000000000000000600052602260045260246000fd5b60006002820490506001821680620003ed57607f821691505b602082108103620004035762000402620003a5565b5b50919050565b60008190508160005260206000209050919050565b60006020601f8301049050919050565b600082821b905092915050565b6000600883026200046d7fffffffffffffffffffffffffffffffffffffffffffffffffffffffffffffffff826200042e565b6200047986836200042e565b95508019841693508086168417925050509392505050565b6000819050919050565b6000620004bc620004b6620004b084620000c1565b62000491565b620000c1565b9050919050565b6000819050919050565b620004d8836200049b565b620004f0620004e782620004c3565b8484546200043b565b825550505050565b600090565b62000507620004f8565b62000514818484620004cd565b505050565b5b818110156200053c5762000530600082620004fd565b6001810190506200051a565b5050565b601f8211156200058b57620005558162000409565b62000560846200041e565b8101602085101562000570578190505b620005886200057f856200041e565b83018262000519565b50505b505050565b600082821c905092915050565b6000620005b06000198460080262000590565b1980831691505092915050565b6000620005cb83836200059d565b9150826002028217905092915050565b620005e6826200039a565b67ffffffffffffffff81111562000602576200060162000117565b5b6200060e8254620003d4565b6200061b82828562000540565b600060209050601f8311600181146200065357600084156200063e578287015190505b6200064a8582620005bd565b865550620006ba565b601f198416620006638662000409565b60005b828110156200068d5784890151825560018201915060208501945060208101905062000666565b86831015620006ad5784890151620006a9601f8916826200059d565b8355505b6001600288020188555050505b505050505050565b6112e180620006d26000396000f3fe6080604052600436106100c25760003560e01c8063481c6a751161007f5780638a9cfd55116100595780638a9cfd5514610274578063937e09b11461029d578063d7bb99ba146102c8578063d7d1bbdb146102d2576100c2565b8063481c6a75146101dd57806381d12c581461020857806382fde09314610249576100c2565b806303441006146100c75780630574f590146100f05780630a1443911461011b5780633410452a146101585780634051ddac146101835780634137e733146101b2575b600080fd5b3480156100d357600080fd5b506100ee60048036038101906100e99190610a79565b6102fb565b005b3480156100fc57600080fd5b50610105610444565b6040516101129190610b3f565b60405180910390f35b34801561012757600080fd5b50610142600480360381019061013d9190610bbf565b6104d2565b60405161014f9190610c07565b60405180910390f35b34801561016457600080fd5b5061016d6104f2565b60405161017a9190610c31565b60405180910390f35b34801561018f57600080fd5b506101986104fe565b6040516101a9959493929190610c5b565b60405180910390f35b3480156101be57600080fd5b506101c7610547565b6040516101d49190610b3f565b60405180910390f35b3480156101e957600080fd5b506101f26105d5565b6040516101ff9190610cae565b60405180910390f35b34801561021457600080fd5b5061022f600480360381019061022a9190610a79565b6105fb565b604051610240959493929190610cc9565b60405180910390f35b34801561025557600080fd5b5061025e6106f6565b60405161026b9190610c31565b60405180910390f35b34801561028057600080fd5b5061029b60048036038101906102969190610e58565b6106fc565b005b3480156102a957600080fd5b506102b2610804565b6040516102bf9190610c31565b60405180910390f35b6102d061080a565b005b3480156102de57600080fd5b506102f960048036038101906102f49190610a79565b6108e3565b005b600160009054906101000a900473ffffffffffffffffffffffffffffffffffffffff1673ffffffffffffffffffffffffffffffffffffffff163373ffffffffffffffffffffffffffffffffffffffff161461035557600080fd5b600080828154811061036a57610369610ec7565b5b9060005260206000209060050201905060026006546103899190610f54565b81600301541161039857600080fd5b8060020160149054906101000a900460ff16156103b457600080fd5b8060020160009054906101000a900473ffffffffffffffffffffffffffffffffffffffff1673ffffffffffffffffffffffffffffffffffffffff166108fc82600101549081150290604051600060405180830381858888f19350505050158015610422573d6000803e3d6000fd5b5060018160020160146101000a81548160ff0219169083151502179055505050565b6004805461045190610fb4565b80601f016020809104026020016040519081016040528092919081815260200182805461047d90610fb4565b80156104ca5780601f1061049f576101008083540402835291602001916104ca565b820191906000526020600020905b8154815290600101906020018083116104ad57829003601f168201915b505050505081565b60056020528060005260406000206000915054906101000a900460ff1681565b60008080549050905090565b600080600080600060025447600080549050600654600160009054906101000a900473ffffffffffffffffffffffffffffffffffffffff16945094509450945094509091929394565b6003805461055490610fb4565b80601f016020809104026020016040519081016040528092919081815260200182805461058090610fb4565b80156105cd5780601f106105a2576101008083540402835291602001916105cd565b820191906000526020600020905b8154815290600101906020018083116105b057829003601f168201915b505050505081565b600160009054906101000a900473ffffffffffffffffffffffffffffffffffffffff1681565b6000818154811061060b57600080fd5b906000526020600020906005020160009150905080600001805461062e90610fb4565b80601f016020809104026020016040519081016040528092919081815260200182805461065a90610fb4565b80156106a75780601f1061067c576101008083540402835291602001916106a7565b820191906000526020600020905b81548152906001019060200180831161068a57829003601f168201915b5050505050908060010154908060020160009054906101000a900473ffffffffffffffffffffffffffffffffffffffff16908060020160149054906101000a900460ff16908060030154905085565b60065481565b600160009054906101000a900473ffffffffffffffffffffffffffffffffffffffff1673ffffffffffffffffffffffffffffffffffffffff163373ffffffffffffffffffffffffffffffffffffffff161461075657600080fd5b60008060018160018154018082558091505003906000526020600020906005020190508381600001908161078a9190611191565b50828160010181905550818160020160006101000a81548173ffffffffffffffffffffffffffffffffffffffff021916908373ffffffffffffffffffffffffffffffffffffffff16021790555060008160020160146101000a81548160ff0219169083151502179055506000816003018190555050505050565b60025481565b600254341161081857600080fd5b60001515600560003373ffffffffffffffffffffffffffffffffffffffff1673ffffffffffffffffffffffffffffffffffffffff16815260200190815260200160002060009054906101000a900460ff161515036108e1576006600081548092919061088390611263565b91905055506001600560003373ffffffffffffffffffffffffffffffffffffffff1673ffffffffffffffffffffffffffffffffffffffff16815260200190815260200160002060006101000a81548160ff0219169083151502179055505b565b60008082815481106108f8576108f7610ec7565b5b90600052602060002090600502019050600560003373ffffffffffffffffffffffffffffffffffffffff1673ffffffffffffffffffffffffffffffffffffffff16815260200190815260200160002060009054906101000a900460ff1661095e57600080fd5b8060040160003373ffffffffffffffffffffffffffffffffffffffff1673ffffffffffffffffffffffffffffffffffffffff16815260200190815260200160002060009054906101000a900460ff16156109b757600080fd5b60018160040160003373ffffffffffffffffffffffffffffffffffffffff1673ffffffffffffffffffffffffffffffffffffffff16815260200190815260200160002060006101000a81548160ff021916908315150217905550806003016000815480929190610a2690611263565b91905055505050565b6000604051905090565b600080fd5b600080fd5b6000819050919050565b610a5681610a43565b8114610a6157600080fd5b50565b600081359050610a7381610a4d565b92915050565b600060208284031215610a8f57610a8e610a39565b5b6000610a9d84828501610a64565b91505092915050565b600081519050919050565b600082825260208201905092915050565b60005b83811015610ae0578082015181840152602081019050610ac5565b83811115610aef576000848401525b50505050565b6000601f19601f8301169050919050565b6000610b1182610aa6565b610b1b8185610ab1565b9350610b2b818560208601610ac2565b610b3481610af5565b840191505092915050565b60006020820190508181036000830152610b598184610b06565b905092915050565b600073ffffffffffffffffffffffffffffffffffffffff82169050919050565b6000610b8c82610b61565b9050919050565b610b9c81610b81565b8114610ba757600080fd5b50565b600081359050610bb981610b93565b92915050565b600060208284031215610bd557610bd4610a39565b5b6000610be384828501610baa565b91505092915050565b60008115159050919050565b610c0181610bec565b82525050565b6000602082019050610c1c6000830184610bf8565b92915050565b610c2b81610a43565b82525050565b6000602082019050610c466000830184610c22565b92915050565b610c5581610b81565b82525050565b600060a082019050610c706000830188610c22565b610c7d6020830187610c22565b610c8a6040830186610c22565b610c976060830185610c22565b610ca46080830184610c4c565b9695505050505050565b6000602082019050610cc36000830184610c4c565b92915050565b600060a0820190508181036000830152610ce38188610b06565b9050610cf26020830187610c22565b610cff6040830186610c4c565b610d0c6060830185610bf8565b610d196080830184610c22565b9695505050505050565b600080fd5b600080fd5b7f4e487b7100000000000000000000000000000000000000000000000000000000600052604160045260246000fd5b610d6582610af5565b810181811067ffffffffffffffff82111715610d8457610d83610d2d565b5b80604052505050565b6000610d97610a2f565b9050610da38282610d5c565b919050565b600067ffffffffffffffff821115610dc357610dc2610d2d565b5b610dcc82610af5565b9050602081019050919050565b82818337600083830152505050565b6000610dfb610df684610da8565b610d8d565b905082815260208101848484011115610e1757610e16610d28565b5b610e22848285610dd9565b509392505050565b600082601f830112610e3f57610e3e610d23565b5b8135610e4f848260208601610de8565b91505092915050565b600080600060608486031215610e7157610e70610a39565b5b600084013567ffffffffffffffff811115610e8f57610e8e610a3e565b5b610e9b86828701610e2a565b9350506020610eac86828701610a64565b9250506040610ebd86828701610baa565b9150509250925092565b7f4e487b7100000000000000000000000000000000000000000000000000000000600052603260045260246000fd5b7f4e487b7100000000000000000000000000000000000000000000000000000000600052601260045260246000fd5b7f4e487b7100000000000000000000000000000000000000000000000000000000600052601160045260246000fd5b6000610f5f82610a43565b9150610f6a83610a43565b925082610f7a57610f79610ef6565b5b828204905092915050565b7f4e487b7100000000000000000000000000000000000000000000000000000000600052602260045260246000fd5b60006002820490506001821680610fcc57607f821691505b602082108103610fdf57610fde610f85565b5b50919050565b60008190508160005260206000209050919050565b60006020601f8301049050919050565b600082821b905092915050565b6000600883026110477fffffffffffffffffffffffffffffffffffffffffffffffffffffffffffffffff8261100a565b611051868361100a565b95508019841693508086168417925050509392505050565b6000819050919050565b600061108e61108961108484610a43565b611069565b610a43565b9050919050565b6000819050919050565b6110a883611073565b6110bc6110b482611095565b848454611017565b825550505050565b600090565b6110d16110c4565b6110dc81848461109f565b505050565b5b81811015611100576110f56000826110c9565b6001810190506110e2565b5050565b601f8211156111455761111681610fe5565b61111f84610ffa565b8101602085101561112e578190505b61114261113a85610ffa565b8301826110e1565b50505b505050565b600082821c905092915050565b60006111686000198460080261114a565b1980831691505092915050565b60006111818383611157565b9150826002028217905092915050565b61119a82610aa6565b67ffffffffffffffff8111156111b3576111b2610d2d565b5b6111bd8254610fb4565b6111c8828285611104565b600060209050601f8311600181146111fb57600084156111e9578287015190505b6111f38582611175565b86555061125b565b601f19841661120986610fe5565b60005b828110156112315784890151825560018201915060208501945060208101905061120c565b8683101561124e578489015161124a601f891682611157565b8355505b6001600288020188555050505b505050505050565b600061126e82610a43565b91507fffffffffffffffffffffffffffffffffffffffffffffffffffffffffffffffff82036112a05761129f610f25565b5b60018201905091905056fea2646970667358221220991ba1579401246b8d12a92d6550759179bf591e7f7c103aaeb78bc99342e9f264736f6c634300080f0033","opcodes":"PUSH1 0x80 PUSH1 0x40 MSTORE CALLVALUE DUP1 ISZERO PUSH3 0x11 JUMPI PUSH1 0x0 DUP1 REVERT JUMPDEST POP PUSH1 0x40 MLOAD PUSH3 0x19B3 CODESIZE SUB DUP1 PUSH3 0x19B3 DUP4 CODECOPY DUP2 DUP2 ADD PUSH1 0x40 MSTORE DUP2 ADD SWAP1 PUSH3 0x37 SWAP2 SWAP1 PUSH3 0x2EA JUMP JUMPDEST DUP1 PUSH1 0x1 PUSH1 0x0 PUSH2 0x100 EXP DUP2 SLOAD DUP2 PUSH20 0xFFFFFFFFFFFFFFFFFFFFFFFFFFFFFFFFFFFFFFFF MUL NOT AND SWAP1 DUP4 PUSH20 0xFFFFFFFFFFFFFFFFFFFFFFFFFFFFFFFFFFFFFFFF AND MUL OR SWAP1 SSTORE POP DUP4 PUSH1 0x2 DUP2 SWAP1 SSTORE POP DUP3 PUSH1 0x3 SWAP1 DUP2 PUSH3 0x90 SWAP2 SWAP1 PUSH3 0x5DB JUMP JUMPDEST POP DUP2 PUSH1 0x4 SWAP1 DUP2 PUSH3 0xA2 SWAP2 SWAP1 PUSH3 0x5DB JUMP JUMPDEST POP POP POP POP POP PUSH3 0x6C2 JUMP JUMPDEST PUSH1 0x0 PUSH1 0x40 MLOAD SWAP1 POP SWAP1 JUMP JUMPDEST PUSH1 0x0 DUP1 REVERT JUMPDEST PUSH1 0x0 DUP1 REVERT JUMPDEST PUSH1 0x0 DUP2 SWAP1 POP SWAP2 SWAP1 POP JUMP JUMPDEST PUSH3 0xD6 DUP2 PUSH3 0xC1 JUMP JUMPDEST DUP2 EQ PUSH3 0xE2 JUMPI PUSH1 0x0 DUP1 REVERT JUMPDEST POP JUMP JUMPDEST PUSH1 0x0 DUP2 MLOAD SWAP1 POP PUSH3 0xF6 DUP2 PUSH3 0xCB JUMP JUMPDEST SWAP3 SWAP2 POP POP JUMP JUMPDEST PUSH1 0x0 DUP1 REVERT JUMPDEST PUSH1 0x0 DUP1 REVERT JUMPDEST PUSH1 0x0 PUSH1 0x1F NOT PUSH1 0x1F DUP4 ADD AND SWAP1 POP SWAP2 SWAP1 POP JUMP JUMPDEST PUSH32 0x4E487B7100000000000000000000000000000000000000000000000000000000 PUSH1 0x0 MSTORE PUSH1 0x41 PUSH1 0x4 MSTORE PUSH1 0x24 PUSH1 0x0 REVERT JUMPDEST PUSH3 0x151 DUP3 PUSH3 0x106 JUMP JUMPDEST DUP2 ADD DUP2 DUP2 LT PUSH8 0xFFFFFFFFFFFFFFFF DUP3 GT OR ISZERO PUSH3 0x173 JUMPI PUSH3 0x172 PUSH3 0x117 JUMP JUMPDEST JUMPDEST DUP1 PUSH1 0x40 MSTORE POP POP POP JUMP JUMPDEST PUSH1 0x0 PUSH3 0x188 PUSH3 0xAD JUMP JUMPDEST SWAP1 POP PUSH3 0x196 DUP3 DUP3 PUSH3 0x146 JUMP JUMPDEST SWAP2 SWAP1 POP JUMP JUMPDEST PUSH1 0x0 PUSH8 0xFFFFFFFFFFFFFFFF DUP3 GT ISZERO PUSH3 0x1B9 JUMPI PUSH3 0x1B8 PUSH3 0x117 JUMP JUMPDEST JUMPDEST PUSH3 0x1C4 DUP3 PUSH3 0x106 JUMP JUMPDEST SWAP1 POP PUSH1 0x20 DUP2 ADD SWAP1 POP SWAP2 SWAP1 POP JUMP JUMPDEST PUSH1 0x0 JUMPDEST DUP4 DUP2 LT ISZERO PUSH3 0x1F1 JUMPI DUP1 DUP3 ADD MLOAD DUP2 DUP5 ADD MSTORE PUSH1 0x20 DUP2 ADD SWAP1 POP PUSH3 0x1D4 JUMP JUMPDEST DUP4 DUP2 GT ISZERO PUSH3 0x201 JUMPI PUSH1 0x0 DUP5 DUP5 ADD MSTORE JUMPDEST POP POP POP POP JUMP JUMPDEST PUSH1 0x0 PUSH3 0x21E PUSH3 0x218 DUP5 PUSH3 0x19B JUMP JUMPDEST PUSH3 0x17C JUMP JUMPDEST SWAP1 POP DUP3 DUP2 MSTORE PUSH1 0x20 DUP2 ADD DUP5 DUP5 DUP5 ADD GT ISZERO PUSH3 0x23D JUMPI PUSH3 0x23C PUSH3 0x101 JUMP JUMPDEST JUMPDEST PUSH3 0x24A DUP5 DUP3 DUP6 PUSH3 0x1D1 JUMP JUMPDEST POP SWAP4 SWAP3 POP POP POP JUMP JUMPDEST PUSH1 0x0 DUP3 PUSH1 0x1F DUP4 ADD SLT PUSH3 0x26A JUMPI PUSH3 0x269 PUSH3 0xFC JUMP JUMPDEST JUMPDEST DUP2 MLOAD PUSH3 0x27C DUP5 DUP3 PUSH1 0x20 DUP7 ADD PUSH3 0x207 JUMP JUMPDEST SWAP2 POP POP SWAP3 SWAP2 POP POP JUMP JUMPDEST PUSH1 0x0 PUSH20 0xFFFFFFFFFFFFFFFFFFFFFFFFFFFFFFFFFFFFFFFF DUP3 AND SWAP1 POP SWAP2 SWAP1 POP JUMP JUMPDEST PUSH1 0x0 PUSH3 0x2B2 DUP3 PUSH3 0x285 JUMP JUMPDEST SWAP1 POP SWAP2 SWAP1 POP JUMP JUMPDEST PUSH3 0x2C4 DUP2 PUSH3 0x2A5 JUMP JUMPDEST DUP2 EQ PUSH3 0x2D0 JUMPI PUSH1 0x0 DUP1 REVERT JUMPDEST POP JUMP JUMPDEST PUSH1 0x0 DUP2 MLOAD SWAP1 POP PUSH3 0x2E4 DUP2 PUSH3 0x2B9 JUMP JUMPDEST SWAP3 SWAP2 POP POP JUMP JUMPDEST PUSH1 0x0 DUP1 PUSH1 0x0 DUP1 PUSH1 0x80 DUP6 DUP8 SUB SLT ISZERO PUSH3 0x307 JUMPI PUSH3 0x306 PUSH3 0xB7 JUMP JUMPDEST JUMPDEST PUSH1 0x0 PUSH3 0x317 DUP8 DUP3 DUP9 ADD PUSH3 0xE5 JUMP JUMPDEST SWAP5 POP POP PUSH1 0x20 DUP6 ADD MLOAD PUSH8 0xFFFFFFFFFFFFFFFF DUP2 GT ISZERO PUSH3 0x33B JUMPI PUSH3 0x33A PUSH3 0xBC JUMP JUMPDEST JUMPDEST PUSH3 0x349 DUP8 DUP3 DUP9 ADD PUSH3 0x252 JUMP JUMPDEST SWAP4 POP POP PUSH1 0x40 DUP6 ADD MLOAD PUSH8 0xFFFFFFFFFFFFFFFF DUP2 GT ISZERO PUSH3 0x36D JUMPI PUSH3 0x36C PUSH3 0xBC JUMP JUMPDEST JUMPDEST PUSH3 0x37B DUP8 DUP3 DUP9 ADD PUSH3 0x252 JUMP JUMPDEST SWAP3 POP POP PUSH1 0x60 PUSH3 0x38E DUP8 DUP3 DUP9 ADD PUSH3 0x2D3 JUMP JUMPDEST SWAP2 POP POP SWAP3 SWAP6 SWAP2 SWAP5 POP SWAP3 POP JUMP JUMPDEST PUSH1 0x0 DUP2 MLOAD SWAP1 POP SWAP2 SWAP1 POP JUMP JUMPDEST PUSH32 0x4E487B7100000000000000000000000000000000000000000000000000000000 PUSH1 0x0 MSTORE PUSH1 0x22 PUSH1 0x4 MSTORE PUSH1 0x24 PUSH1 0x0 REVERT JUMPDEST PUSH1 0x0 PUSH1 0x2 DUP3 DIV SWAP1 POP PUSH1 0x1 DUP3 AND DUP1 PUSH3 0x3ED JUMPI PUSH1 0x7F DUP3 AND SWAP2 POP JUMPDEST PUSH1 0x20 DUP3 LT DUP2 SUB PUSH3 0x403 JUMPI PUSH3 0x402 PUSH3 0x3A5 JUMP JUMPDEST JUMPDEST POP SWAP2 SWAP1 POP JUMP JUMPDEST PUSH1 0x0 DUP2 SWAP1 POP DUP2 PUSH1 0x0 MSTORE PUSH1 0x20 PUSH1 0x0 KECCAK256 SWAP1 POP SWAP2 SWAP1 POP JUMP JUMPDEST PUSH1 0x0 PUSH1 0x20 PUSH1 0x1F DUP4 ADD DIV SWAP1 POP SWAP2 SWAP1 POP JUMP JUMPDEST PUSH1 0x0 DUP3 DUP3 SHL SWAP1 POP SWAP3 SWAP2 POP POP JUMP JUMPDEST PUSH1 0x0 PUSH1 0x8 DUP4 MUL PUSH3 0x46D PUSH32 0xFFFFFFFFFFFFFFFFFFFFFFFFFFFFFFFFFFFFFFFFFFFFFFFFFFFFFFFFFFFFFFFF DUP3 PUSH3 0x42E JUMP JUMPDEST PUSH3 0x479 DUP7 DUP4 PUSH3 0x42E JUMP JUMPDEST SWAP6 POP DUP1 NOT DUP5 AND SWAP4 POP DUP1 DUP7 AND DUP5 OR SWAP3 POP POP POP SWAP4 SWAP3 POP POP POP JUMP JUMPDEST PUSH1 0x0 DUP2 SWAP1 POP SWAP2 SWAP1 POP JUMP JUMPDEST PUSH1 0x0 PUSH3 0x4BC PUSH3 0x4B6 PUSH3 0x4B0 DUP5 PUSH3 0xC1 JUMP JUMPDEST PUSH3 0x491 JUMP JUMPDEST PUSH3 0xC1 JUMP JUMPDEST SWAP1 POP SWAP2 SWAP1 POP JUMP JUMPDEST PUSH1 0x0 DUP2 SWAP1 POP SWAP2 SWAP1 POP JUMP JUMPDEST PUSH3 0x4D8 DUP4 PUSH3 0x49B JUMP JUMPDEST PUSH3 0x4F0 PUSH3 0x4E7 DUP3 PUSH3 0x4C3 JUMP JUMPDEST DUP5 DUP5 SLOAD PUSH3 0x43B JUMP JUMPDEST DUP3 SSTORE POP POP POP POP JUMP JUMPDEST PUSH1 0x0 SWAP1 JUMP JUMPDEST PUSH3 0x507 PUSH3 0x4F8 JUMP JUMPDEST PUSH3 0x514 DUP2 DUP5 DUP5 PUSH3 0x4CD JUMP JUMPDEST POP POP POP JUMP JUMPDEST JUMPDEST DUP2 DUP2 LT ISZERO PUSH3 0x53C JUMPI PUSH3 0x530 PUSH1 0x0 DUP3 PUSH3 0x4FD JUMP JUMPDEST PUSH1 0x1 DUP2 ADD SWAP1 POP PUSH3 0x51A JUMP JUMPDEST POP POP JUMP JUMPDEST PUSH1 0x1F DUP3 GT ISZERO PUSH3 0x58B JUMPI PUSH3 0x555 DUP2 PUSH3 0x409 JUMP JUMPDEST PUSH3 0x560 DUP5 PUSH3 0x41E JUMP JUMPDEST DUP2 ADD PUSH1 0x20 DUP6 LT ISZERO PUSH3 0x570 JUMPI DUP2 SWAP1 POP JUMPDEST PUSH3 0x588 PUSH3 0x57F DUP6 PUSH3 0x41E JUMP JUMPDEST DUP4 ADD DUP3 PUSH3 0x519 JUMP JUMPDEST POP POP JUMPDEST POP POP POP JUMP JUMPDEST PUSH1 0x0 DUP3 DUP3 SHR SWAP1 POP SWAP3 SWAP2 POP POP JUMP JUMPDEST PUSH1 0x0 PUSH3 0x5B0 PUSH1 0x0 NOT DUP5 PUSH1 0x8 MUL PUSH3 0x590 JUMP JUMPDEST NOT DUP1 DUP4 AND SWAP2 POP POP SWAP3 SWAP2 POP POP JUMP JUMPDEST PUSH1 0x0 PUSH3 0x5CB DUP4 DUP4 PUSH3 0x59D JUMP JUMPDEST SWAP2 POP DUP3 PUSH1 0x2 MUL DUP3 OR SWAP1 POP SWAP3 SWAP2 POP POP JUMP JUMPDEST PUSH3 0x5E6 DUP3 PUSH3 0x39A JUMP JUMPDEST PUSH8 0xFFFFFFFFFFFFFFFF DUP2 GT ISZERO PUSH3 0x602 JUMPI PUSH3 0x601 PUSH3 0x117 JUMP JUMPDEST JUMPDEST PUSH3 0x60E DUP3 SLOAD PUSH3 0x3D4 JUMP JUMPDEST PUSH3 0x61B DUP3 DUP3 DUP6 PUSH3 0x540 JUMP JUMPDEST PUSH1 0x0 PUSH1 0x20 SWAP1 POP PUSH1 0x1F DUP4 GT PUSH1 0x1 DUP2 EQ PUSH3 0x653 JUMPI PUSH1 0x0 DUP5 ISZERO PUSH3 0x63E JUMPI DUP3 DUP8 ADD MLOAD SWAP1 POP JUMPDEST PUSH3 0x64A DUP6 DUP3 PUSH3 0x5BD JUMP JUMPDEST DUP7 SSTORE POP PUSH3 0x6BA JUMP JUMPDEST PUSH1 0x1F NOT DUP5 AND PUSH3 0x663 DUP7 PUSH3 0x409 JUMP JUMPDEST PUSH1 0x0 JUMPDEST DUP3 DUP2 LT ISZERO PUSH3 0x68D JUMPI DUP5 DUP10 ADD MLOAD DUP3 SSTORE PUSH1 0x1 DUP3 ADD SWAP2 POP PUSH1 0x20 DUP6 ADD SWAP5 POP PUSH1 0x20 DUP2 ADD SWAP1 POP PUSH3 0x666 JUMP JUMPDEST DUP7 DUP4 LT ISZERO PUSH3 0x6AD JUMPI DUP5 DUP10 ADD MLOAD PUSH3 0x6A9 PUSH1 0x1F DUP10 AND DUP3 PUSH3 0x59D JUMP JUMPDEST DUP4 SSTORE POP JUMPDEST PUSH1 0x1 PUSH1 0x2 DUP9 MUL ADD DUP9 SSTORE POP POP POP JUMPDEST POP POP POP POP POP POP JUMP JUMPDEST PUSH2 0x12E1 DUP1 PUSH3 0x6D2 PUSH1 0x0 CODECOPY PUSH1 0x0 RETURN INVALID PUSH1 0x80 PUSH1 0x40 MSTORE PUSH1 0x4 CALLDATASIZE LT PUSH2 0xC2 JUMPI PUSH1 0x0 CALLDATALOAD PUSH1 0xE0 SHR DUP1 PUSH4 0x481C6A75 GT PUSH2 0x7F JUMPI DUP1 PUSH4 0x8A9CFD55 GT PUSH2 0x59 JUMPI DUP1 PUSH4 0x8A9CFD55 EQ PUSH2 0x274 JUMPI DUP1 PUSH4 0x937E09B1 EQ PUSH2 0x29D JUMPI DUP1 PUSH4 0xD7BB99BA EQ PUSH2 0x2C8 JUMPI DUP1 PUSH4 0xD7D1BBDB EQ PUSH2 0x2D2 JUMPI PUSH2 0xC2 JUMP JUMPDEST DUP1 PUSH4 0x481C6A75 EQ PUSH2 0x1DD JUMPI DUP1 PUSH4 0x81D12C58 EQ PUSH2 0x208 JUMPI DUP1 PUSH4 0x82FDE093 EQ PUSH2 0x249 JUMPI PUSH2 0xC2 JUMP JUMPDEST DUP1 PUSH4 0x3441006 EQ PUSH2 0xC7 JUMPI DUP1 PUSH4 0x574F590 EQ PUSH2 0xF0 JUMPI DUP1 PUSH4 0xA144391 EQ PUSH2 0x11B JUMPI DUP1 PUSH4 0x3410452A EQ PUSH2 0x158 JUMPI DUP1 PUSH4 0x4051DDAC EQ PUSH2 0x183 JUMPI DUP1 PUSH4 0x4137E733 EQ PUSH2 0x1B2 JUMPI JUMPDEST PUSH1 0x0 DUP1 REVERT JUMPDEST CALLVALUE DUP1 ISZERO PUSH2 0xD3 JUMPI PUSH1 0x0 DUP1 REVERT JUMPDEST POP PUSH2 0xEE PUSH1 0x4 DUP1 CALLDATASIZE SUB DUP2 ADD SWAP1 PUSH2 0xE9 SWAP2 SWAP1 PUSH2 0xA79 JUMP JUMPDEST PUSH2 0x2FB JUMP JUMPDEST STOP JUMPDEST CALLVALUE DUP1 ISZERO PUSH2 0xFC JUMPI PUSH1 0x0 DUP1 REVERT JUMPDEST POP PUSH2 0x105 PUSH2 0x444 JUMP JUMPDEST PUSH1 0x40 MLOAD PUSH2 0x112 SWAP2 SWAP1 PUSH2 0xB3F JUMP JUMPDEST PUSH1 0x40 MLOAD DUP1 SWAP2 SUB SWAP1 RETURN JUMPDEST CALLVALUE DUP1 ISZERO PUSH2 0x127 JUMPI PUSH1 0x0 DUP1 REVERT JUMPDEST POP PUSH2 0x142 PUSH1 0x4 DUP1 CALLDATASIZE SUB DUP2 ADD SWAP1 PUSH2 0x13D SWAP2 SWAP1 PUSH2 0xBBF JUMP JUMPDEST PUSH2 0x4D2 JUMP JUMPDEST PUSH1 0x40 MLOAD PUSH2 0x14F SWAP2 SWAP1 PUSH2 0xC07 JUMP JUMPDEST PUSH1 0x40 MLOAD DUP1 SWAP2 SUB SWAP1 RETURN JUMPDEST CALLVALUE DUP1 ISZERO PUSH2 0x164 JUMPI PUSH1 0x0 DUP1 REVERT JUMPDEST POP PUSH2 0x16D PUSH2 0x4F2 JUMP JUMPDEST PUSH1 0x40 MLOAD PUSH2 0x17A SWAP2 SWAP1 PUSH2 0xC31 JUMP JUMPDEST PUSH1 0x40 MLOAD DUP1 SWAP2 SUB SWAP1 RETURN JUMPDEST CALLVALUE DUP1 ISZERO PUSH2 0x18F JUMPI PUSH1 0x0 DUP1 REVERT JUMPDEST POP PUSH2 0x198 PUSH2 0x4FE JUMP JUMPDEST PUSH1 0x40 MLOAD PUSH2 0x1A9 SWAP6 SWAP5 SWAP4 SWAP3 SWAP2 SWAP1 PUSH2 0xC5B JUMP JUMPDEST PUSH1 0x40 MLOAD DUP1 SWAP2 SUB SWAP1 RETURN JUMPDEST CALLVALUE DUP1 ISZERO PUSH2 0x1BE JUMPI PUSH1 0x0 DUP1 REVERT JUMPDEST POP PUSH2 0x1C7 PUSH2 0x547 JUMP JUMPDEST PUSH1 0x40 MLOAD PUSH2 0x1D4 SWAP2 SWAP1 PUSH2 0xB3F JUMP JUMPDEST PUSH1 0x40 MLOAD DUP1 SWAP2 SUB SWAP1 RETURN JUMPDEST CALLVALUE DUP1 ISZERO PUSH2 0x1E9 JUMPI PUSH1 0x0 DUP1 REVERT JUMPDEST POP PUSH2 0x1F2 PUSH2 0x5D5 JUMP JUMPDEST PUSH1 0x40 MLOAD PUSH2 0x1FF SWAP2 SWAP1 PUSH2 0xCAE JUMP JUMPDEST PUSH1 0x40 MLOAD DUP1 SWAP2 SUB SWAP1 RETURN JUMPDEST CALLVALUE DUP1 ISZERO PUSH2 0x214 JUMPI PUSH1 0x0 DUP1 REVERT JUMPDEST POP PUSH2 0x22F PUSH1 0x4 DUP1 CALLDATASIZE SUB DUP2 ADD SWAP1 PUSH2 0x22A SWAP2 SWAP1 PUSH2 0xA79 JUMP JUMPDEST PUSH2 0x5FB JUMP JUMPDEST PUSH1 0x40 MLOAD PUSH2 0x240 SWAP6 SWAP5 SWAP4 SWAP3 SWAP2 SWAP1 PUSH2 0xCC9 JUMP JUMPDEST PUSH1 0x40 MLOAD DUP1 SWAP2 SUB SWAP1 RETURN JUMPDEST CALLVALUE DUP1 ISZERO PUSH2 0x255 JUMPI PUSH1 0x0 DUP1 REVERT JUMPDEST POP PUSH2 0x25E PUSH2 0x6F6 JUMP JUMPDEST PUSH1 0x40 MLOAD PUSH2 0x26B SWAP2 SWAP1 PUSH2 0xC31 JUMP JUMPDEST PUSH1 0x40 MLOAD DUP1 SWAP2 SUB SWAP1 RETURN JUMPDEST CALLVALUE DUP1 ISZERO PUSH2 0x280 JUMPI PUSH1 0x0 DUP1 REVERT JUMPDEST POP PUSH2 0x29B PUSH1 0x4 DUP1 CALLDATASIZE SUB DUP2 ADD SWAP1 PUSH2 0x296 SWAP2 SWAP1 PUSH2 0xE58 JUMP JUMPDEST PUSH2 0x6FC JUMP JUMPDEST STOP JUMPDEST CALLVALUE DUP1 ISZERO PUSH2 0x2A9 JUMPI PUSH1 0x0 DUP1 REVERT JUMPDEST POP PUSH2 0x2B2 PUSH2 0x804 JUMP JUMPDEST PUSH1 0x40 MLOAD PUSH2 0x2BF SWAP2 SWAP1 PUSH2 0xC31 JUMP JUMPDEST PUSH1 0x40 MLOAD DUP1 SWAP2 SUB SWAP1 RETURN JUMPDEST PUSH2 0x2D0 PUSH2 0x80A JUMP JUMPDEST STOP JUMPDEST CALLVALUE DUP1 ISZERO PUSH2 0x2DE JUMPI PUSH1 0x0 DUP1 REVERT JUMPDEST POP PUSH2 0x2F9 PUSH1 0x4 DUP1 CALLDATASIZE SUB DUP2 ADD SWAP1 PUSH2 0x2F4 SWAP2 SWAP1 PUSH2 0xA79 JUMP JUMPDEST PUSH2 0x8E3 JUMP JUMPDEST STOP JUMPDEST PUSH1 0x1 PUSH1 0x0 SWAP1 SLOAD SWAP1 PUSH2 0x100 EXP SWAP1 DIV PUSH20 0xFFFFFFFFFFFFFFFFFFFFFFFFFFFFFFFFFFFFFFFF AND PUSH20 0xFFFFFFFFFFFFFFFFFFFFFFFFFFFFFFFFFFFFFFFF AND CALLER PUSH20 0xFFFFFFFFFFFFFFFFFFFFFFFFFFFFFFFFFFFFFFFF AND EQ PUSH2 0x355 JUMPI PUSH1 0x0 DUP1 REVERT JUMPDEST PUSH1 0x0 DUP1 DUP3 DUP2 SLOAD DUP2 LT PUSH2 0x36A JUMPI PUSH2 0x369 PUSH2 0xEC7 JUMP JUMPDEST JUMPDEST SWAP1 PUSH1 0x0 MSTORE PUSH1 0x20 PUSH1 0x0 KECCAK256 SWAP1 PUSH1 0x5 MUL ADD SWAP1 POP PUSH1 0x2 PUSH1 0x6 SLOAD PUSH2 0x389 SWAP2 SWAP1 PUSH2 0xF54 JUMP JUMPDEST DUP2 PUSH1 0x3 ADD SLOAD GT PUSH2 0x398 JUMPI PUSH1 0x0 DUP1 REVERT JUMPDEST DUP1 PUSH1 0x2 ADD PUSH1 0x14 SWAP1 SLOAD SWAP1 PUSH2 0x100 EXP SWAP1 DIV PUSH1 0xFF AND ISZERO PUSH2 0x3B4 JUMPI PUSH1 0x0 DUP1 REVERT JUMPDEST DUP1 PUSH1 0x2 ADD PUSH1 0x0 SWAP1 SLOAD SWAP1 PUSH2 0x100 EXP SWAP1 DIV PUSH20 0xFFFFFFFFFFFFFFFFFFFFFFFFFFFFFFFFFFFFFFFF AND PUSH20 0xFFFFFFFFFFFFFFFFFFFFFFFFFFFFFFFFFFFFFFFF AND PUSH2 0x8FC DUP3 PUSH1 0x1 ADD SLOAD SWAP1 DUP2 ISZERO MUL SWAP1 PUSH1 0x40 MLOAD PUSH1 0x0 PUSH1 0x40 MLOAD DUP1 DUP4 SUB DUP2 DUP6 DUP9 DUP9 CALL SWAP4 POP POP POP POP ISZERO DUP1 ISZERO PUSH2 0x422 JUMPI RETURNDATASIZE PUSH1 0x0 DUP1 RETURNDATACOPY RETURNDATASIZE PUSH1 0x0 REVERT JUMPDEST POP PUSH1 0x1 DUP2 PUSH1 0x2 ADD PUSH1 0x14 PUSH2 0x100 EXP DUP2 SLOAD DUP2 PUSH1 0xFF MUL NOT AND SWAP1 DUP4 ISZERO ISZERO MUL OR SWAP1 SSTORE POP POP POP JUMP JUMPDEST PUSH1 0x4 DUP1 SLOAD PUSH2 0x451 SWAP1 PUSH2 0xFB4 JUMP JUMPDEST DUP1 PUSH1 0x1F ADD PUSH1 0x20 DUP1 SWAP2 DIV MUL PUSH1 0x20 ADD PUSH1 0x40 MLOAD SWAP1 DUP2 ADD PUSH1 0x40 MSTORE DUP1 SWAP3 SWAP2 SWAP1 DUP2 DUP2 MSTORE PUSH1 0x20 ADD DUP3 DUP1 SLOAD PUSH2 0x47D SWAP1 PUSH2 0xFB4 JUMP JUMPDEST DUP1 ISZERO PUSH2 0x4CA JUMPI DUP1 PUSH1 0x1F LT PUSH2 0x49F JUMPI PUSH2 0x100 DUP1 DUP4 SLOAD DIV MUL DUP4 MSTORE SWAP2 PUSH1 0x20 ADD SWAP2 PUSH2 0x4CA JUMP JUMPDEST DUP3 ADD SWAP2 SWAP1 PUSH1 0x0 MSTORE PUSH1 0x20 PUSH1 0x0 KECCAK256 SWAP1 JUMPDEST DUP2 SLOAD DUP2 MSTORE SWAP1 PUSH1 0x1 ADD SWAP1 PUSH1 0x20 ADD DUP1 DUP4 GT PUSH2 0x4AD JUMPI DUP3 SWAP1 SUB PUSH1 0x1F AND DUP3 ADD SWAP2 JUMPDEST POP POP POP POP POP DUP2 JUMP JUMPDEST PUSH1 0x5 PUSH1 0x20 MSTORE DUP1 PUSH1 0x0 MSTORE PUSH1 0x40 PUSH1 0x0 KECCAK256 PUSH1 0x0 SWAP2 POP SLOAD SWAP1 PUSH2 0x100 EXP SWAP1 DIV PUSH1 0xFF AND DUP2 JUMP JUMPDEST PUSH1 0x0 DUP1 DUP1 SLOAD SWAP1 POP SWAP1 POP SWAP1 JUMP JUMPDEST PUSH1 0x0 DUP1 PUSH1 0x0 DUP1 PUSH1 0x0 PUSH1 0x2 SLOAD SELFBALANCE PUSH1 0x0 DUP1 SLOAD SWAP1 POP PUSH1 0x6 SLOAD PUSH1 0x1 PUSH1 0x0 SWAP1 SLOAD SWAP1 PUSH2 0x100 EXP SWAP1 DIV PUSH20 0xFFFFFFFFFFFFFFFFFFFFFFFFFFFFFFFFFFFFFFFF AND SWAP5 POP SWAP5 POP SWAP5 POP SWAP5 POP SWAP5 POP SWAP1 SWAP2 SWAP3 SWAP4 SWAP5 JUMP JUMPDEST PUSH1 0x3 DUP1 SLOAD PUSH2 0x554 SWAP1 PUSH2 0xFB4 JUMP JUMPDEST DUP1 PUSH1 0x1F ADD PUSH1 0x20 DUP1 SWAP2 DIV MUL PUSH1 0x20 ADD PUSH1 0x40 MLOAD SWAP1 DUP2 ADD PUSH1 0x40 MSTORE DUP1 SWAP3 SWAP2 SWAP1 DUP2 DUP2 MSTORE PUSH1 0x20 ADD DUP3 DUP1 SLOAD PUSH2 0x580 SWAP1 PUSH2 0xFB4 JUMP JUMPDEST DUP1 ISZERO PUSH2 0x5CD JUMPI DUP1 PUSH1 0x1F LT PUSH2 0x5A2 JUMPI PUSH2 0x100 DUP1 DUP4 SLOAD DIV MUL DUP4 MSTORE SWAP2 PUSH1 0x20 ADD SWAP2 PUSH2 0x5CD JUMP JUMPDEST DUP3 ADD SWAP2 SWAP1 PUSH1 0x0 MSTORE PUSH1 0x20 PUSH1 0x0 KECCAK256 SWAP1 JUMPDEST DUP2 SLOAD DUP2 MSTORE SWAP1 PUSH1 0x1 ADD SWAP1 PUSH1 0x20 ADD DUP1 DUP4 GT PUSH2 0x5B0 JUMPI DUP3 SWAP1 SUB PUSH1 0x1F AND DUP3 ADD SWAP2 JUMPDEST POP POP POP POP POP DUP2 JUMP JUMPDEST PUSH1 0x1 PUSH1 0x0 SWAP1 SLOAD SWAP1 PUSH2 0x100 EXP SWAP1 DIV PUSH20 0xFFFFFFFFFFFFFFFFFFFFFFFFFFFFFFFFFFFFFFFF AND DUP2 JUMP JUMPDEST PUSH1 0x0 DUP2 DUP2 SLOAD DUP2 LT PUSH2 0x60B JUMPI PUSH1 0x0 DUP1 REVERT JUMPDEST SWAP1 PUSH1 0x0 MSTORE PUSH1 0x20 PUSH1 0x0 KECCAK256 SWAP1 PUSH1 0x5 MUL ADD PUSH1 0x0 SWAP2 POP SWAP1 POP DUP1 PUSH1 0x0 ADD DUP1 SLOAD PUSH2 0x62E SWAP1 PUSH2 0xFB4 JUMP JUMPDEST DUP1 PUSH1 0x1F ADD PUSH1 0x20 DUP1 SWAP2 DIV MUL PUSH1 0x20 ADD PUSH1 0x40 MLOAD SWAP1 DUP2 ADD PUSH1 0x40 MSTORE DUP1 SWAP3 SWAP2 SWAP1 DUP2 DUP2 MSTORE PUSH1 0x20 ADD DUP3 DUP1 SLOAD PUSH2 0x65A SWAP1 PUSH2 0xFB4 JUMP JUMPDEST DUP1 ISZERO PUSH2 0x6A7 JUMPI DUP1 PUSH1 0x1F LT PUSH2 0x67C JUMPI PUSH2 0x100 DUP1 DUP4 SLOAD DIV MUL DUP4 MSTORE SWAP2 PUSH1 0x20 ADD SWAP2 PUSH2 0x6A7 JUMP JUMPDEST DUP3 ADD SWAP2 SWAP1 PUSH1 0x0 MSTORE PUSH1 0x20 PUSH1 0x0 KECCAK256 SWAP1 JUMPDEST DUP2 SLOAD DUP2 MSTORE SWAP1 PUSH1 0x1 ADD SWAP1 PUSH1 0x20 ADD DUP1 DUP4 GT PUSH2 0x68A JUMPI DUP3 SWAP1 SUB PUSH1 0x1F AND DUP3 ADD SWAP2 JUMPDEST POP POP POP POP POP SWAP1 DUP1 PUSH1 0x1 ADD SLOAD SWAP1 DUP1 PUSH1 0x2 ADD PUSH1 0x0 SWAP1 SLOAD SWAP1 PUSH2 0x100 EXP SWAP1 DIV PUSH20 0xFFFFFFFFFFFFFFFFFFFFFFFFFFFFFFFFFFFFFFFF AND SWAP1 DUP1 PUSH1 0x2 ADD PUSH1 0x14 SWAP1 SLOAD SWAP1 PUSH2 0x100 EXP SWAP1 DIV PUSH1 0xFF AND SWAP1 DUP1 PUSH1 0x3 ADD SLOAD SWAP1 POP DUP6 JUMP JUMPDEST PUSH1 0x6 SLOAD DUP2 JUMP JUMPDEST PUSH1 0x1 PUSH1 0x0 SWAP1 SLOAD SWAP1 PUSH2 0x100 EXP SWAP1 DIV PUSH20 0xFFFFFFFFFFFFFFFFFFFFFFFFFFFFFFFFFFFFFFFF AND PUSH20 0xFFFFFFFFFFFFFFFFFFFFFFFFFFFFFFFFFFFFFFFF AND CALLER PUSH20 0xFFFFFFFFFFFFFFFFFFFFFFFFFFFFFFFFFFFFFFFF AND EQ PUSH2 0x756 JUMPI PUSH1 0x0 DUP1 REVERT JUMPDEST PUSH1 0x0 DUP1 PUSH1 0x1 DUP2 PUSH1 0x1 DUP2 SLOAD ADD DUP1 DUP3 SSTORE DUP1 SWAP2 POP POP SUB SWAP1 PUSH1 0x0 MSTORE PUSH1 0x20 PUSH1 0x0 KECCAK256 SWAP1 PUSH1 0x5 MUL ADD SWAP1 POP DUP4 DUP2 PUSH1 0x0 ADD SWAP1 DUP2 PUSH2 0x78A SWAP2 SWAP1 PUSH2 0x1191 JUMP JUMPDEST POP DUP3 DUP2 PUSH1 0x1 ADD DUP2 SWAP1 SSTORE POP DUP2 DUP2 PUSH1 0x2 ADD PUSH1 0x0 PUSH2 0x100 EXP DUP2 SLOAD DUP2 PUSH20 0xFFFFFFFFFFFFFFFFFFFFFFFFFFFFFFFFFFFFFFFF MUL NOT AND SWAP1 DUP4 PUSH20 0xFFFFFFFFFFFFFFFFFFFFFFFFFFFFFFFFFFFFFFFF AND MUL OR SWAP1 SSTORE POP PUSH1 0x0 DUP2 PUSH1 0x2 ADD PUSH1 0x14 PUSH2 0x100 EXP DUP2 SLOAD DUP2 PUSH1 0xFF MUL NOT AND SWAP1 DUP4 ISZERO ISZERO MUL OR SWAP1 SSTORE POP PUSH1 0x0 DUP2 PUSH1 0x3 ADD DUP2 SWAP1 SSTORE POP POP POP POP POP JUMP JUMPDEST PUSH1 0x2 SLOAD DUP2 JUMP JUMPDEST PUSH1 0x2 SLOAD CALLVALUE GT PUSH2 0x818 JUMPI PUSH1 0x0 DUP1 REVERT JUMPDEST PUSH1 0x0 ISZERO ISZERO PUSH1 0x5 PUSH1 0x0 CALLER PUSH20 0xFFFFFFFFFFFFFFFFFFFFFFFFFFFFFFFFFFFFFFFF AND PUSH20 0xFFFFFFFFFFFFFFFFFFFFFFFFFFFFFFFFFFFFFFFF AND DUP2 MSTORE PUSH1 0x20 ADD SWAP1 DUP2 MSTORE PUSH1 0x20 ADD PUSH1 0x0 KECCAK256 PUSH1 0x0 SWAP1 SLOAD SWAP1 PUSH2 0x100 EXP SWAP1 DIV PUSH1 0xFF AND ISZERO ISZERO SUB PUSH2 0x8E1 JUMPI PUSH1 0x6 PUSH1 0x0 DUP2 SLOAD DUP1 SWAP3 SWAP2 SWAP1 PUSH2 0x883 SWAP1 PUSH2 0x1263 JUMP JUMPDEST SWAP2 SWAP1 POP SSTORE POP PUSH1 0x1 PUSH1 0x5 PUSH1 0x0 CALLER PUSH20 0xFFFFFFFFFFFFFFFFFFFFFFFFFFFFFFFFFFFFFFFF AND PUSH20 0xFFFFFFFFFFFFFFFFFFFFFFFFFFFFFFFFFFFFFFFF AND DUP2 MSTORE PUSH1 0x20 ADD SWAP1 DUP2 MSTORE PUSH1 0x20 ADD PUSH1 0x0 KECCAK256 PUSH1 0x0 PUSH2 0x100 EXP DUP2 SLOAD DUP2 PUSH1 0xFF MUL NOT AND SWAP1 DUP4 ISZERO ISZERO MUL OR SWAP1 SSTORE POP JUMPDEST JUMP JUMPDEST PUSH1 0x0 DUP1 DUP3 DUP2 SLOAD DUP2 LT PUSH2 0x8F8 JUMPI PUSH2 0x8F7 PUSH2 0xEC7 JUMP JUMPDEST JUMPDEST SWAP1 PUSH1 0x0 MSTORE PUSH1 0x20 PUSH1 0x0 KECCAK256 SWAP1 PUSH1 0x5 MUL ADD SWAP1 POP PUSH1 0x5 PUSH1 0x0 CALLER PUSH20 0xFFFFFFFFFFFFFFFFFFFFFFFFFFFFFFFFFFFFFFFF AND PUSH20 0xFFFFFFFFFFFFFFFFFFFFFFFFFFFFFFFFFFFFFFFF AND DUP2 MSTORE PUSH1 0x20 ADD SWAP1 DUP2 MSTORE PUSH1 0x20 ADD PUSH1 0x0 KECCAK256 PUSH1 0x0 SWAP1 SLOAD SWAP1 PUSH2 0x100 EXP SWAP1 DIV PUSH1 0xFF AND PUSH2 0x95E JUMPI PUSH1 0x0 DUP1 REVERT JUMPDEST DUP1 PUSH1 0x4 ADD PUSH1 0x0 CALLER PUSH20 0xFFFFFFFFFFFFFFFFFFFFFFFFFFFFFFFFFFFFFFFF AND PUSH20 0xFFFFFFFFFFFFFFFFFFFFFFFFFFFFFFFFFFFFFFFF AND DUP2 MSTORE PUSH1 0x20 ADD SWAP1 DUP2 MSTORE PUSH1 0x20 ADD PUSH1 0x0 KECCAK256 PUSH1 0x0 SWAP1 SLOAD SWAP1 PUSH2 0x100 EXP SWAP1 DIV PUSH1 0xFF AND ISZERO PUSH2 0x9B7 JUMPI PUSH1 0x0 DUP1 REVERT JUMPDEST PUSH1 0x1 DUP2 PUSH1 0x4 ADD PUSH1 0x0 CALLER PUSH20 0xFFFFFFFFFFFFFFFFFFFFFFFFFFFFFFFFFFFFFFFF AND PUSH20 0xFFFFFFFFFFFFFFFFFFFFFFFFFFFFFFFFFFFFFFFF AND DUP2 MSTORE PUSH1 0x20 ADD SWAP1 DUP2 MSTORE PUSH1 0x20 ADD PUSH1 0x0 KECCAK256 PUSH1 0x0 PUSH2 0x100 EXP DUP2 SLOAD DUP2 PUSH1 0xFF MUL NOT AND SWAP1 DUP4 ISZERO ISZERO MUL OR SWAP1 SSTORE POP DUP1 PUSH1 0x3 ADD PUSH1 0x0 DUP2 SLOAD DUP1 SWAP3 SWAP2 SWAP1 PUSH2 0xA26 SWAP1 PUSH2 0x1263 JUMP JUMPDEST SWAP2 SWAP1 POP SSTORE POP POP POP JUMP JUMPDEST PUSH1 0x0 PUSH1 0x40 MLOAD SWAP1 POP SWAP1 JUMP JUMPDEST PUSH1 0x0 DUP1 REVERT JUMPDEST PUSH1 0x0 DUP1 REVERT JUMPDEST PUSH1 0x0 DUP2 SWAP1 POP SWAP2 SWAP1 POP JUMP JUMPDEST PUSH2 0xA56 DUP2 PUSH2 0xA43 JUMP JUMPDEST DUP2 EQ PUSH2 0xA61 JUMPI PUSH1 0x0 DUP1 REVERT JUMPDEST POP JUMP JUMPDEST PUSH1 0x0 DUP2 CALLDATALOAD SWAP1 POP PUSH2 0xA73 DUP2 PUSH2 0xA4D JUMP JUMPDEST SWAP3 SWAP2 POP POP JUMP JUMPDEST PUSH1 0x0 PUSH1 0x20 DUP3 DUP5 SUB SLT ISZERO PUSH2 0xA8F JUMPI PUSH2 0xA8E PUSH2 0xA39 JUMP JUMPDEST JUMPDEST PUSH1 0x0 PUSH2 0xA9D DUP5 DUP3 DUP6 ADD PUSH2 0xA64 JUMP JUMPDEST SWAP2 POP POP SWAP3 SWAP2 POP POP JUMP JUMPDEST PUSH1 0x0 DUP2 MLOAD SWAP1 POP SWAP2 SWAP1 POP JUMP JUMPDEST PUSH1 0x0 DUP3 DUP3 MSTORE PUSH1 0x20 DUP3 ADD SWAP1 POP SWAP3 SWAP2 POP POP JUMP JUMPDEST PUSH1 0x0 JUMPDEST DUP4 DUP2 LT ISZERO PUSH2 0xAE0 JUMPI DUP1 DUP3 ADD MLOAD DUP2 DUP5 ADD MSTORE PUSH1 0x20 DUP2 ADD SWAP1 POP PUSH2 0xAC5 JUMP JUMPDEST DUP4 DUP2 GT ISZERO PUSH2 0xAEF JUMPI PUSH1 0x0 DUP5 DUP5 ADD MSTORE JUMPDEST POP POP POP POP JUMP JUMPDEST PUSH1 0x0 PUSH1 0x1F NOT PUSH1 0x1F DUP4 ADD AND SWAP1 POP SWAP2 SWAP1 POP JUMP JUMPDEST PUSH1 0x0 PUSH2 0xB11 DUP3 PUSH2 0xAA6 JUMP JUMPDEST PUSH2 0xB1B DUP2 DUP6 PUSH2 0xAB1 JUMP JUMPDEST SWAP4 POP PUSH2 0xB2B DUP2 DUP6 PUSH1 0x20 DUP7 ADD PUSH2 0xAC2 JUMP JUMPDEST PUSH2 0xB34 DUP2 PUSH2 0xAF5 JUMP JUMPDEST DUP5 ADD SWAP2 POP POP SWAP3 SWAP2 POP POP JUMP JUMPDEST PUSH1 0x0 PUSH1 0x20 DUP3 ADD SWAP1 POP DUP2 DUP2 SUB PUSH1 0x0 DUP4 ADD MSTORE PUSH2 0xB59 DUP2 DUP5 PUSH2 0xB06 JUMP JUMPDEST SWAP1 POP SWAP3 SWAP2 POP POP JUMP JUMPDEST PUSH1 0x0 PUSH20 0xFFFFFFFFFFFFFFFFFFFFFFFFFFFFFFFFFFFFFFFF DUP3 AND SWAP1 POP SWAP2 SWAP1 POP JUMP JUMPDEST PUSH1 0x0 PUSH2 0xB8C DUP3 PUSH2 0xB61 JUMP JUMPDEST SWAP1 POP SWAP2 SWAP1 POP JUMP JUMPDEST PUSH2 0xB9C DUP2 PUSH2 0xB81 JUMP JUMPDEST DUP2 EQ PUSH2 0xBA7 JUMPI PUSH1 0x0 DUP1 REVERT JUMPDEST POP JUMP JUMPDEST PUSH1 0x0 DUP2 CALLDATALOAD SWAP1 POP PUSH2 0xBB9 DUP2 PUSH2 0xB93 JUMP JUMPDEST SWAP3 SWAP2 POP POP JUMP JUMPDEST PUSH1 0x0 PUSH1 0x20 DUP3 DUP5 SUB SLT ISZERO PUSH2 0xBD5 JUMPI PUSH2 0xBD4 PUSH2 0xA39 JUMP JUMPDEST JUMPDEST PUSH1 0x0 PUSH2 0xBE3 DUP5 DUP3 DUP6 ADD PUSH2 0xBAA JUMP JUMPDEST SWAP2 POP POP SWAP3 SWAP2 POP POP JUMP JUMPDEST PUSH1 0x0 DUP2 ISZERO ISZERO SWAP1 POP SWAP2 SWAP1 POP JUMP JUMPDEST PUSH2 0xC01 DUP2 PUSH2 0xBEC JUMP JUMPDEST DUP3 MSTORE POP POP JUMP JUMPDEST PUSH1 0x0 PUSH1 0x20 DUP3 ADD SWAP1 POP PUSH2 0xC1C PUSH1 0x0 DUP4 ADD DUP5 PUSH2 0xBF8 JUMP JUMPDEST SWAP3 SWAP2 POP POP JUMP JUMPDEST PUSH2 0xC2B DUP2 PUSH2 0xA43 JUMP JUMPDEST DUP3 MSTORE POP POP JUMP JUMPDEST PUSH1 0x0 PUSH1 0x20 DUP3 ADD SWAP1 POP PUSH2 0xC46 PUSH1 0x0 DUP4 ADD DUP5 PUSH2 0xC22 JUMP JUMPDEST SWAP3 SWAP2 POP POP JUMP JUMPDEST PUSH2 0xC55 DUP2 PUSH2 0xB81 JUMP JUMPDEST DUP3 MSTORE POP POP JUMP JUMPDEST PUSH1 0x0 PUSH1 0xA0 DUP3 ADD SWAP1 POP PUSH2 0xC70 PUSH1 0x0 DUP4 ADD DUP9 PUSH2 0xC22 JUMP JUMPDEST PUSH2 0xC7D PUSH1 0x20 DUP4 ADD DUP8 PUSH2 0xC22 JUMP JUMPDEST PUSH2 0xC8A PUSH1 0x40 DUP4 ADD DUP7 PUSH2 0xC22 JUMP JUMPDEST PUSH2 0xC97 PUSH1 0x60 DUP4 ADD DUP6 PUSH2 0xC22 JUMP JUMPDEST PUSH2 0xCA4 PUSH1 0x80 DUP4 ADD DUP5 PUSH2 0xC4C JUMP JUMPDEST SWAP7 SWAP6 POP POP POP POP POP POP JUMP JUMPDEST PUSH1 0x0 PUSH1 0x20 DUP3 ADD SWAP1 POP PUSH2 0xCC3 PUSH1 0x0 DUP4 ADD DUP5 PUSH2 0xC4C JUMP JUMPDEST SWAP3 SWAP2 POP POP JUMP JUMPDEST PUSH1 0x0 PUSH1 0xA0 DUP3 ADD SWAP1 POP DUP2 DUP2 SUB PUSH1 0x0 DUP4 ADD MSTORE PUSH2 0xCE3 DUP2 DUP9 PUSH2 0xB06 JUMP JUMPDEST SWAP1 POP PUSH2 0xCF2 PUSH1 0x20 DUP4 ADD DUP8 PUSH2 0xC22 JUMP JUMPDEST PUSH2 0xCFF PUSH1 0x40 DUP4 ADD DUP7 PUSH2 0xC4C JUMP JUMPDEST PUSH2 0xD0C PUSH1 0x60 DUP4 ADD DUP6 PUSH2 0xBF8 JUMP JUMPDEST PUSH2 0xD19 PUSH1 0x80 DUP4 ADD DUP5 PUSH2 0xC22 JUMP JUMPDEST SWAP7 SWAP6 POP POP POP POP POP POP JUMP JUMPDEST PUSH1 0x0 DUP1 REVERT JUMPDEST PUSH1 0x0 DUP1 REVERT JUMPDEST PUSH32 0x4E487B7100000000000000000000000000000000000000000000000000000000 PUSH1 0x0 MSTORE PUSH1 0x41 PUSH1 0x4 MSTORE PUSH1 0x24 PUSH1 0x0 REVERT JUMPDEST PUSH2 0xD65 DUP3 PUSH2 0xAF5 JUMP JUMPDEST DUP2 ADD DUP2 DUP2 LT PUSH8 0xFFFFFFFFFFFFFFFF DUP3 GT OR ISZERO PUSH2 0xD84 JUMPI PUSH2 0xD83 PUSH2 0xD2D JUMP JUMPDEST JUMPDEST DUP1 PUSH1 0x40 MSTORE POP POP POP JUMP JUMPDEST PUSH1 0x0 PUSH2 0xD97 PUSH2 0xA2F JUMP JUMPDEST SWAP1 POP PUSH2 0xDA3 DUP3 DUP3 PUSH2 0xD5C JUMP JUMPDEST SWAP2 SWAP1 POP JUMP JUMPDEST PUSH1 0x0 PUSH8 0xFFFFFFFFFFFFFFFF DUP3 GT ISZERO PUSH2 0xDC3 JUMPI PUSH2 0xDC2 PUSH2 0xD2D JUMP JUMPDEST JUMPDEST PUSH2 0xDCC DUP3 PUSH2 0xAF5 JUMP JUMPDEST SWAP1 POP PUSH1 0x20 DUP2 ADD SWAP1 POP SWAP2 SWAP1 POP JUMP JUMPDEST DUP3 DUP2 DUP4 CALLDATACOPY PUSH1 0x0 DUP4 DUP4 ADD MSTORE POP POP POP JUMP JUMPDEST PUSH1 0x0 PUSH2 0xDFB PUSH2 0xDF6 DUP5 PUSH2 0xDA8 JUMP JUMPDEST PUSH2 0xD8D JUMP JUMPDEST SWAP1 POP DUP3 DUP2 MSTORE PUSH1 0x20 DUP2 ADD DUP5 DUP5 DUP5 ADD GT ISZERO PUSH2 0xE17 JUMPI PUSH2 0xE16 PUSH2 0xD28 JUMP JUMPDEST JUMPDEST PUSH2 0xE22 DUP5 DUP3 DUP6 PUSH2 0xDD9 JUMP JUMPDEST POP SWAP4 SWAP3 POP POP POP JUMP JUMPDEST PUSH1 0x0 DUP3 PUSH1 0x1F DUP4 ADD SLT PUSH2 0xE3F JUMPI PUSH2 0xE3E PUSH2 0xD23 JUMP JUMPDEST JUMPDEST DUP2 CALLDATALOAD PUSH2 0xE4F DUP5 DUP3 PUSH1 0x20 DUP7 ADD PUSH2 0xDE8 JUMP JUMPDEST SWAP2 POP POP SWAP3 SWAP2 POP POP JUMP JUMPDEST PUSH1 0x0 DUP1 PUSH1 0x0 PUSH1 0x60 DUP5 DUP7 SUB SLT ISZERO PUSH2 0xE71 JUMPI PUSH2 0xE70 PUSH2 0xA39 JUMP JUMPDEST JUMPDEST PUSH1 0x0 DUP5 ADD CALLDATALOAD PUSH8 0xFFFFFFFFFFFFFFFF DUP2 GT ISZERO PUSH2 0xE8F JUMPI PUSH2 0xE8E PUSH2 0xA3E JUMP JUMPDEST JUMPDEST PUSH2 0xE9B DUP7 DUP3 DUP8 ADD PUSH2 0xE2A JUMP JUMPDEST SWAP4 POP POP PUSH1 0x20 PUSH2 0xEAC DUP7 DUP3 DUP8 ADD PUSH2 0xA64 JUMP JUMPDEST SWAP3 POP POP PUSH1 0x40 PUSH2 0xEBD DUP7 DUP3 DUP8 ADD PUSH2 0xBAA JUMP JUMPDEST SWAP2 POP POP SWAP3 POP SWAP3 POP SWAP3 JUMP JUMPDEST PUSH32 0x4E487B7100000000000000000000000000000000000000000000000000000000 PUSH1 0x0 MSTORE PUSH1 0x32 PUSH1 0x4 MSTORE PUSH1 0x24 PUSH1 0x0 REVERT JUMPDEST PUSH32 0x4E487B7100000000000000000000000000000000000000000000000000000000 PUSH1 0x0 MSTORE PUSH1 0x12 PUSH1 0x4 MSTORE PUSH1 0x24 PUSH1 0x0 REVERT JUMPDEST PUSH32 0x4E487B7100000000000000000000000000000000000000000000000000000000 PUSH1 0x0 MSTORE PUSH1 0x11 PUSH1 0x4 MSTORE PUSH1 0x24 PUSH1 0x0 REVERT JUMPDEST PUSH1 0x0 PUSH2 0xF5F DUP3 PUSH2 0xA43 JUMP JUMPDEST SWAP2 POP PUSH2 0xF6A DUP4 PUSH2 0xA43 JUMP JUMPDEST SWAP3 POP DUP3 PUSH2 0xF7A JUMPI PUSH2 0xF79 PUSH2 0xEF6 JUMP JUMPDEST JUMPDEST DUP3 DUP3 DIV SWAP1 POP SWAP3 SWAP2 POP POP JUMP JUMPDEST PUSH32 0x4E487B7100000000000000000000000000000000000000000000000000000000 PUSH1 0x0 MSTORE PUSH1 0x22 PUSH1 0x4 MSTORE PUSH1 0x24 PUSH1 0x0 REVERT JUMPDEST PUSH1 0x0 PUSH1 0x2 DUP3 DIV SWAP1 POP PUSH1 0x1 DUP3 AND DUP1 PUSH2 0xFCC JUMPI PUSH1 0x7F DUP3 AND SWAP2 POP JUMPDEST PUSH1 0x20 DUP3 LT DUP2 SUB PUSH2 0xFDF JUMPI PUSH2 0xFDE PUSH2 0xF85 JUMP JUMPDEST JUMPDEST POP SWAP2 SWAP1 POP JUMP JUMPDEST PUSH1 0x0 DUP2 SWAP1 POP DUP2 PUSH1 0x0 MSTORE PUSH1 0x20 PUSH1 0x0 KECCAK256 SWAP1 POP SWAP2 SWAP1 POP JUMP JUMPDEST PUSH1 0x0 PUSH1 0x20 PUSH1 0x1F DUP4 ADD DIV SWAP1 POP SWAP2 SWAP1 POP JUMP JUMPDEST PUSH1 0x0 DUP3 DUP3 SHL SWAP1 POP SWAP3 SWAP2 POP POP JUMP JUMPDEST PUSH1 0x0 PUSH1 0x8 DUP4 MUL PUSH2 0x1047 PUSH32 0xFFFFFFFFFFFFFFFFFFFFFFFFFFFFFFFFFFFFFFFFFFFFFFFFFFFFFFFFFFFFFFFF DUP3 PUSH2 0x100A JUMP JUMPDEST PUSH2 0x1051 DUP7 DUP4 PUSH2 0x100A JUMP JUMPDEST SWAP6 POP DUP1 NOT DUP5 AND SWAP4 POP DUP1 DUP7 AND DUP5 OR SWAP3 POP POP POP SWAP4 SWAP3 POP POP POP JUMP JUMPDEST PUSH1 0x0 DUP2 SWAP1 POP SWAP2 SWAP1 POP JUMP JUMPDEST PUSH1 0x0 PUSH2 0x108E PUSH2 0x1089 PUSH2 0x1084 DUP5 PUSH2 0xA43 JUMP JUMPDEST PUSH2 0x1069 JUMP JUMPDEST PUSH2 0xA43 JUMP JUMPDEST SWAP1 POP SWAP2 SWAP1 POP JUMP JUMPDEST PUSH1 0x0 DUP2 SWAP1 POP SWAP2 SWAP1 POP JUMP JUMPDEST PUSH2 0x10A8 DUP4 PUSH2 0x1073 JUMP JUMPDEST PUSH2 0x10BC PUSH2 0x10B4 DUP3 PUSH2 0x1095 JUMP JUMPDEST DUP5 DUP5 SLOAD PUSH2 0x1017 JUMP JUMPDEST DUP3 SSTORE POP POP POP POP JUMP JUMPDEST PUSH1 0x0 SWAP1 JUMP JUMPDEST PUSH2 0x10D1 PUSH2 0x10C4 JUMP JUMPDEST PUSH2 0x10DC DUP2 DUP5 DUP5 PUSH2 0x109F JUMP JUMPDEST POP POP POP JUMP JUMPDEST JUMPDEST DUP2 DUP2 LT ISZERO PUSH2 0x1100 JUMPI PUSH2 0x10F5 PUSH1 0x0 DUP3 PUSH2 0x10C9 JUMP JUMPDEST PUSH1 0x1 DUP2 ADD SWAP1 POP PUSH2 0x10E2 JUMP JUMPDEST POP POP JUMP JUMPDEST PUSH1 0x1F DUP3 GT ISZERO PUSH2 0x1145 JUMPI PUSH2 0x1116 DUP2 PUSH2 0xFE5 JUMP JUMPDEST PUSH2 0x111F DUP5 PUSH2 0xFFA JUMP JUMPDEST DUP2 ADD PUSH1 0x20 DUP6 LT ISZERO PUSH2 0x112E JUMPI DUP2 SWAP1 POP JUMPDEST PUSH2 0x1142 PUSH2 0x113A DUP6 PUSH2 0xFFA JUMP JUMPDEST DUP4 ADD DUP3 PUSH2 0x10E1 JUMP JUMPDEST POP POP JUMPDEST POP POP POP JUMP JUMPDEST PUSH1 0x0 DUP3 DUP3 SHR SWAP1 POP SWAP3 SWAP2 POP POP JUMP JUMPDEST PUSH1 0x0 PUSH2 0x1168 PUSH1 0x0 NOT DUP5 PUSH1 0x8 MUL PUSH2 0x114A JUMP JUMPDEST NOT DUP1 DUP4 AND SWAP2 POP POP SWAP3 SWAP2 POP POP JUMP JUMPDEST PUSH1 0x0 PUSH2 0x1181 DUP4 DUP4 PUSH2 0x1157 JUMP JUMPDEST SWAP2 POP DUP3 PUSH1 0x2 MUL DUP3 OR SWAP1 POP SWAP3 SWAP2 POP POP JUMP JUMPDEST PUSH2 0x119A DUP3 PUSH2 0xAA6 JUMP JUMPDEST PUSH8 0xFFFFFFFFFFFFFFFF DUP2 GT ISZERO PUSH2 0x11B3 JUMPI PUSH2 0x11B2 PUSH2 0xD2D JUMP JUMPDEST JUMPDEST PUSH2 0x11BD DUP3 SLOAD PUSH2 0xFB4 JUMP JUMPDEST PUSH2 0x11C8 DUP3 DUP3 DUP6 PUSH2 0x1104 JUMP JUMPDEST PUSH1 0x0 PUSH1 0x20 SWAP1 POP PUSH1 0x1F DUP4 GT PUSH1 0x1 DUP2 EQ PUSH2 0x11FB JUMPI PUSH1 0x0 DUP5 ISZERO PUSH2 0x11E9 JUMPI DUP3 DUP8 ADD MLOAD SWAP1 POP JUMPDEST PUSH2 0x11F3 DUP6 DUP3 PUSH2 0x1175 JUMP JUMPDEST DUP7 SSTORE POP PUSH2 0x125B JUMP JUMPDEST PUSH1 0x1F NOT DUP5 AND PUSH2 0x1209 DUP7 PUSH2 0xFE5 JUMP JUMPDEST PUSH1 0x0 JUMPDEST DUP3 DUP2 LT ISZERO PUSH2 0x1231 JUMPI DUP5 DUP10 ADD MLOAD DUP3 SSTORE PUSH1 0x1 DUP3 ADD SWAP2 POP PUSH1 0x20 DUP6 ADD SWAP5 POP PUSH1 0x20 DUP2 ADD SWAP1 POP PUSH2 0x120C JUMP JUMPDEST DUP7 DUP4 LT ISZERO PUSH2 0x124E JUMPI DUP5 DUP10 ADD MLOAD PUSH2 0x124A PUSH1 0x1F DUP10 AND DUP3 PUSH2 0x1157 JUMP JUMPDEST DUP4 SSTORE POP JUMPDEST PUSH1 0x1 PUSH1 0x2 DUP9 MUL ADD DUP9 SSTORE POP POP POP JUMPDEST POP POP POP POP POP POP JUMP JUMPDEST PUSH1 0x0 PUSH2 0x126E DUP3 PUSH2 0xA43 JUMP JUMPDEST SWAP2 POP PUSH32 0xFFFFFFFFFFFFFFFFFFFFFFFFFFFFFFFFFFFFFFFFFFFFFFFFFFFFFFFFFFFFFFFF DUP3 SUB PUSH2 0x12A0 JUMPI PUSH2 0x129F PUSH2 0xF25 JUMP JUMPDEST JUMPDEST PUSH1 0x1 DUP3 ADD SWAP1 POP SWAP2 SWAP1 POP JUMP INVALID LOG2 PUSH5 0x6970667358 0x22 SLT KECCAK256 SWAP10 SHL LOG1 JUMPI SWAP5 ADD 0x24 PUSH12 0x8D12A92D6550759179BF591E PUSH32 0x7C103AAEB78BC99342E9F264736F6C634300080F003300000000000000000000 "},"gasEstimates":{"creation":{"codeDepositCost":"966600","executionCost":"infinite","totalCost":"infinite"},"external":{"approveRequest(uint256)":"infinite","approvers(address)":"2890","approversCount()":"2496","campaign_description()":"infinite","campaign_name()":"infinite","contribute()":"53281","createRequest(string,uint256,address)":"infinite","finalizeRequest(uint256)":"infinite","getRequestsCount()":"2512","getSummary()":"infinite","manager()":"2537","minimumContribution()":"2473","requests(uint256)":"infinite"}},"methodIdentifiers":{"approveRequest(uint256)":"d7d1bbdb","approvers(address)":"0a144391","approversCount()":"82fde093","campaign_description()":"0574f590","campaign_name()":"4137e733","contribute()":"d7bb99ba","createRequest(string,uint256,address)":"8a9cfd55","finalizeRequest(uint256)":"03441006","getRequestsCount()":"3410452a","getSummary()":"4051ddac","manager()":"481c6a75","minimumContribution()":"937e09b1","requests(uint256)":"81d12c58"}},"storageLayout":{"storage":[{"astId":94,"contract":"Campaign.sol:Campaign","label":"requests","offset":0,"slot":"0","type":"t_array(t_struct(Request)90_storage)dyn_storage"},{"astId":96,"contract":"Campaign.sol:Campaign","label":"manager","offset":0,"slot":"1","type":"t_address"},{"astId":98,"contract":"Campaign.sol:Campaign","label":"minimumContribution","offset":0,"slot":"2","type":"t_uint256"},{"astId":100,"contract":"Campaign.sol:Campaign","label":"campaign_name","offset":0,"slot":"3","type":"t_string_storage"},{"astId":102,"contract":"Campaign.sol:Campaign","label":"campaign_description","offset":0,"slot":"4","type":"t_string_storage"},{"astId":106,"contract":"Campaign.sol:Campaign","label":"approvers","offset":0,"slot":"5","type":"t_mapping(t_address,t_bool)"},{"astId":108,"contract":"Campaign.sol:Campaign","label":"approversCount","offset":0,"slot":"6","type":"t_uint256"}],"types":{"t_address":{"encoding":"inplace","label":"address","numberOfBytes":"20"},"t_array(t_struct(Request)90_storage)dyn_storage":{"base":"t_struct(Request)90_storage","encoding":"dynamic_array","label":"struct Campaign.Request[]","numberOfBytes":"32"},"t_bool":{"encoding":"inplace","label":"bool","numberOfBytes":"1"},"t_mapping(t_address,t_bool)":{"encoding":"mapping","key":"t_address","label":"mapping(address => bool)","numberOfBytes":"32","value":"t_bool"},"t_string_storage":{"encoding":"bytes","label":"string","numberOfBytes":"32"},"t_struct(Request)90_storage":{"encoding":"inplace","label":"struct Campaign.Request","members":[{"astId":77,"contract":"Campaign.sol:Campaign","label":"description","offset":0,"slot":"0","type":"t_string_storage"},{"astId":79,"contract":"Campaign.sol:Campaign","label":"value","offset":0,"slot":"1","type":"t_uint256"},{"astId":81,"contract":"Campaign.sol:Campaign","label":"recipient","offset":0,"slot":"2","type":"t_address"},{"astId":83,"contract":"Campaign.sol:Campaign","label":"complete","offset":20,"slot":"2","type":"t_bool"},{"astId":85,"contract":"Campaign.sol:Campaign","label":"approvalCount","offset":0,"slot":"3","type":"t_uint256"},{"astId":89,"contract":"Campaign.sol:Campaign","label":"approvals","offset":0,"slot":"4","type":"t_mapping(t_address,t_bool)"}],"numberOfBytes":"160"},"t_uint256":{"encoding":"inplace","label":"uint256","numberOfBytes":"32"}}},"userdoc":{"kind":"user","methods":{},"version":1}}